:020000040800F2
:10000000480700208901000879080008ED0300086E
:100010007508000839020008FB0A0008000000000B
:100020000000000000000000000000009D08000823
:100030003D020008000000007B080008B10900082C
:10004000A3010008A3010008A3010008A301000800
:10005000A3010008A3010008A3010008A3010008F0
:10006000A3010008A3010008A3010008A3010008E0
:10007000A3010008A3010008A3010008A3010008D0
:10008000A3010008A3010008A3010008A3010008C0
:10009000A3010008A3010008A3010008A3010008B0
:1000A000A3010008A3010008A3010008A3010008A0
:1000B000A3010008A3010008A3010008A301000890
:1000C000A3010008A3010008A3010008A301000880
:1000D000A3010008150A0008A3010008A3010008F5
:1000E000A3010008A3010008A301000800F002F822
:1000F00000F03AF80AA090E8000C82448344AAF188
:100100000107DA4501D100F02FF8AFF2090EBAE885
:100110000F0013F0010F18BFFB1A43F0010318473B
:10012000F032000010330000103A24BF78C878C1C4
:10013000FAD8520724BF30C830C144BF04680C60ED
:10014000704700000023002400250026103A28BF35
:1001500078C1FBD8520728BF30C148BF0B60704739
:100160001FB51FBD10B510BD00F033F81146FFF7E5
:10017000F7FF00F057FD00F051F803B4FFF7F2FF6E
:1001800003BC00F0BCFC0000094880470948004758
:10019000FEE7FEE7FEE7FEE7FEE7FEE7FEE7FEE737
:1001A000FEE7FEE704480549054A064B7047000094
:1001B000B5090008ED0000084801002048070020AC
:1001C000480300204803002070477047704770477D
:1001D0007047754600F02CF8AE4605006946534658
:1001E00020F00700854618B020B5FFF7DBFFBDE81B
:1001F00020404FF000064FF000074FF000084FF08E
:10020000000B21F00701AC46ACE8C009ACE8C0091E
:10021000ACE8C009ACE8C0098D46704710B504468B
:10022000AFF300802046BDE81040FFF7A6BF0000F6
:1002300000487047E800002000BFFEE770472DE946
:10024000F04102460025002600200023002400275C
:1002500091F803C00CF00F0591F803C00CF0100CDE
:10026000BCF1000F03D091F802C04CEA050591F8EB
:1002700000C0BCF1000F31D0146800202BE04FF01B
:10028000010C0CFA00F3B1F800C00CEA03069E4220
:1002900020D183004FF00F0C0CFA03F7BC4305FA92
:1002A00003FC4CEA040491F803C0BCF1280F06D10A
:1002B0004FF0010C0CFA00FCC2F814C00AE091F8EF
:1002C00003C0BCF1480F05D14FF0010C0CFA00FC43
:1002D000C2F810C0401C0828D1D31460B1F800C087
:1002E000BCF1FF0F34DD546800202EE000F1080C53
:1002F0004FF0010808FA0CF3B1F800C00CEA03064D
:100300009E4221D183004FF00F0C0CFA03F7BC433F
:1003100005FA03FC4CEA040491F803C0BCF1280F71
:1003200005D100F1080C08FA0CF8C2F8148091F815
:1003300003C0BCF1480F07D100F1080C4FF00108D1
:1003400008FA0CF8C2F81080401C0828CED354607C
:10035000BDE8F081F0B50A46002300240021002505
:1003600000F00046B6F1004F02D11D4EF16901E0E8
:100370001B4E7168C0F3034583B200F44016B6F516
:10038000401F08D121F07061154E766826F0706626
:10039000134F7E6012E000F48016B6F5801F06D180
:1003A000032606FA05F4A14341F0706106E0460D0C
:1003B000360103FA06F6B14341F0706122B1460DF1
:1003C000360103FA06F6314300F00046B6F1004F5D
:1003D00002D1034EF16101E0014E7160F0BD0000F9
:1003E00000000140416170470161704700BFFEE7B6
:1003F0002DE9F04104460D4616461F462A2000F01E
:10040000D9F9611C88B200F0C6F9711C88B200F0FD
:10041000C2F92B2000F0CEF905F11A0188B200F0E4
:10042000BAF907F11A0188B200F0B5F92C2000F0F2
:10043000C1F9BDE8F0812DE9F04706460F461446A4
:100440001D46DDF820A0681E83B2601E82B23946C8
:100450003046FFF7CDFFB8460EE0B14606E0504605
:1004600000F099F909F101001FFA80F9A145F6DBC6
:1004700008F101001FFA80F8A845EEDBBDE8F0871F
:1004800008B50121042000F0F9F9C020ADF8000002
:1004900010208DF8030003208DF8020069460F48F4
:1004A000FFF7CDFEC0210D48FFF79EFF0121082078
:1004B00000F0E4F940F60340ADF8000010208DF89C
:1004C000030003208DF8020069460548FFF7B7FED8
:1004D00040F603410248FFF787FF08BD00080140CE
:1004E000000C014010B5FFF7CBFF80218F48FFF7CC
:1004F00079FF642000F028FB80218C48FFF774FF0F
:10050000642000F021FB40218848FFF76BFF642046
:1005100000F01AFB112000F04DF9782000F014FBD8
:10052000B12000F047F9052000F03EF93C2000F032
:100530003BF93C2000F038F9B22000F03BF90520EF
:1005400000F032F93C2000F02FF93C2000F02CF9AB
:10055000B32000F02FF9052000F026F93C2000F030
:1005600023F93C2000F020F9052000F01DF93C2083
:1005700000F01AF93C2000F017F9B42000F01AF945
:10058000032000F011F9C02000F014F9AB2000F0B6
:100590000BF90B2000F008F9042000F005F9C12048
:1005A00000F008F9C52000F0FFF8C22000F002F9C1
:1005B0000D2000F0F9F8002000F0F6F8C32000F05C
:1005C000F9F88D2000F0F0F86A2000F0EDF8C42072
:1005D00000F0F0F88D2000F0E7F8EE2000F0E4F8ED
:1005E000C52000F0E7F80F2000F0DEF8E02000F072
:1005F000E1F8072000F0D8F80E2000F0D5F8082028
:1006000000F0D2F8072000F0CFF8102000F0CCF86E
:10061000072000F0C9F8022000F0C6F8072000F01B
:10062000C3F8092000F0C0F80F2000F0BDF8252025
:1006300000F0BAF8362000F0B7F8002000F0B4F867
:10064000082000F0B1F8042000F0AEF8102000F00F
:10065000ABF8E12000F0AEF80A2000F0A5F80D207C
:1006600000F0A2F8082000F09FF8072000F09CF8A6
:100670000F2000F099F8072000F096F8022000F013
:1006800093F8072000F090F8092000F08DF80F2073
:1006900000F08AF8252000F087F8352000F084F873
:1006A000002000F081F8092000F07EF8042000F01E
:1006B0007BF8102000F078F8FC2000F07BF8802018
:1006C00000F072F83A2000F075F8052000F06CF8A0
:1006D000362000F06FF8782000F066F8212000F056
:1006E00069F8292000F066F82A2000F063F800205D
:1006F00000F05AF81A2000F057F8002000F054F8E3
:10070000692000F051F82B2000F054F8002000F090
:100710004BF8012000F048F8002000F045F8A02038
:1007200000F042F82C2000F045F810BD0008014010
:100730002DE9F05F0746884615461E46DDF82890ED
:10074000002408EB0600401E83B27819401E82B2D6
:1007500041463846FFF74CFEA24618E04FF0000B2A
:100760000FE019F8140000F01FF8012101EB44011B
:1007700019F8010000F018F8641C0BF101001FFAD1
:1007800080FBB345EDDB0AF101001FFA80FAAA45B0
:10079000E4DBBDE8F09F10B50446201200F01AF823
:1007A000E0B200F017F810BD10B50446204600F086
:1007B00011F810BD10B5044601210548FFF712FEDF
:1007C000204600F007F801210148FFF70DFE10BD9B
:1007D000000C014070B5044602211448FFF702FEE8
:1007E00000251BE04FF480611048FFF7FBFD04F08B
:1007F000800028B14FF400610C48FFF7F5FD04E0DC
:100800004FF400610948FFF7EDFD4FF480610748A0
:10081000FFF7EAFD6006040E681CC5B2082DE1DB97
:1008200002210248FFF7E0FD70BD0000000C01400E
:1008300008B50121052000F021F801210B48FFF740
:1008400089FD4FF40040ADF8000010208DF8030042
:1008500003208DF8020069460548FFF7F0FC4FF4CD
:1008600000410348FFF7C0FD08BD00000002300052
:100870000008014000BFFEE77047704729B1064AF3
:1008800092690243044B9A6104E0034A92698243ED
:10089000014B9A617047000000100240704710B58C
:1008A00000F002F810BD00000CB50020019000908F
:1008B0003348006840F480303149086000BF304858
:1008C000006800F4003000900198401C01900098EE
:1008D00018B90198B0F5A06FF1D12948006800F46B
:1008E000003010B10120009001E00020009000983D
:1008F000012843D12348006840F0100021490860D6
:100900000846006820F0030008600846006840F0D0
:10091000020008601A484068194948600846406863
:1009200048600846406840F4806048600846406877
:1009300020F47C1048600846406840F4E8104860A5
:100940000846006840F08070086000BF0C480068EE
:1009500000F000700028F9D00948406820F003003A
:10096000074948600846406840F00200486000BF00
:100970000348406800F00C000828F9D10CBD0000C5
:100980000010024000200240042808D14FF0E0216E
:10099000096941F004014FF0E022116107E04FF0D6
:1009A000E021096921F004014FF0E0221161704754
:1009B0007047000010B51348006840F0010011496D
:1009C000086008464068104908400E4948600846DB
:1009D00000680E4908400B4908600846006820F48A
:1009E000802008600846406820F4FE0048604FF40C
:1009F0001F008860FFF753FF4FF000600449086054
:100A000010BD0000001002400000FFF8FFFFF6FEDE
:100A100008ED00E010B540F225511D4800F03EF809
:100A200010B31B4800F064F8C4B21A48008800F400
:100A30000040C8B91748008800F4804060B10A2C13
:100A400003D000201349088020E01248008840F4B9
:100A500000401049088019E00D2C06D10D4800888F
:100A600040F480400B49088010E00A480088C0F339
:100A70000D0009490C5407480088401C05490880AE
:100A800008460088C72801DD0020088010BD00004E
:100A9000003801401C0000202000002070B50246F4
:100AA000002400230025002040F66A16B14200D140
:100AB00000BFC1F3421501F01F03012606FA03F33C
:100AC000012D02D19689334006E0022D02D1168A0B
:100AD000334001E0968A33400C12012606FA04F4F2
:100AE0001688344013B10CB1012000E0002070BD25
:100AF00001468888C0F30800704700BFFEE700BFCA
:100B00007047000010B56FF00400FFF73DFF0A4882
:100B100000680A49B0FBF1F00949087008460078FE
:100B200000EB4001C1EBC0104FF6FF7101EAC000BD
:100B30000449088010BD00000000002000127A0067
:100B400014000020160000200146114A12884A4372
:100B50004FF0E0235A6100229A611A46126942F06E
:100B600001021A6100BF4FF0E022106900F001029B
:100B70001AB100F48032002AF5D04FF0E022126959
:100B800022F001024FF0E0231A6100229A617047BF
:100B90001600002008B501210920FFF76FFE012192
:100BA0001C48FFF7D7FB01211020FFF767FE01214A
:100BB0000420FFF763FE01210820FFF75FFE4FF6D8
:100BC000FF70ADF8000010208DF8030003208DF8B1
:100BD000020069461048FFF732FB4FF6FF70ADF890
:100BE000000010208DF8030003208DF802006946F4
:100BF0000A48FFF724FB4FF6FE70ADF80000102006
:100C00008DF8030003208DF8020069460448FFF7C1
:100C100016FB08BD0002300000080140000C014036
:100C20000010014008B5FFF76DFFFFF701FEFFF769
:100C3000B1FFFFF757FC4FF478405023A02200216A
:100C400000900846FFF7F7FB04481D2378222D216A
:100C500000901420FFF76CFD00BFFEE7600C000859
:100C6000FFFFFFFFFFFFFFFFFFFFFFFFFFFFFFFF94
:100C7000FFFFFFFFFFFFFFFFFFFFFFFFFFFFFFFF84
:100C8000FFFFFFFFFFFFFFFFFFFFFFFFFFFFFFFF74
:100C9000FFFFFFFFFFFFFFFFFFFFFFFFFFFFFFFF64
:1010C0005F3C773CFFFFFFFFFFFFFFFFFFFFFFFFDE
:1010D000FFFFFFFFFFFFFFFFFFFFFFFFFFFFFFFF20
:1010E000FFFFFFFFFFFFFFFFFFFFFFFFFFFFFFFF10
:1010F000FFFFFFFFFFFFFFFFFFFFFFFFFFFFFFFF00
:10110000FFFFFFFFFFFFFFFFFFFFFFFFFFFFFFFFEF
:10111000FFFFFFFFFFFFFFFFFFFFFFFFFFFFFFFFDF
:10112000FFFFFFFFFFFFFFFFFFFFFFFFFFFFFFFFCF
:10113000FFFFFFFFFFFFFFFFFFFFFFFFFFFFFFFFBF
:10114000FFFFFFFFFFFFFFFFFFFFFFFFFFFFFFFFAF
:10115000FFFFFFFFFFFFFFFFFFFFFFFFFFFFFFFF9F
:10116000FFFFFFFFFFFFFFFFFFFFFFFFFFFFFFFF8F
:10117000FFFFFFFFFFFFFFFFFFFFFFFFFFFFFFFF7F
:10118000FFFFFFFFFFFFFFFFFFFFFFFFFFFFFFFF6F
:10119000FFFFFFFFFFFFFFFFFFFFFFFFFFFFFFFF5F
:1011A000FFFFFFFFFFFFFFFFFFFFFFFFFFFFFFFF4F
:1011B0008EFBAF1CFFFFFFFFFFFFFFFFFFFFFFFFE7
:1011C000FFFFFFFFFFFFFFFFFFFFFFFFFFFFFFFF2F
:1011D000FFFFFFFFFFFFFFFFFFFFFFFFFFFFFFFF1F
:1011E000FFFFFFFFFFFFFFFFFFFFFFFFFFFFFFFF0F
:1011F000FFFFFFFFFFFFFFFFFFFFFFFFFFFFFFFFFF
:10120000FFFFFFFFFFFFFFFFFFFFFFFFFFFFFFFFEE
:10121000FFFFFFFFFFFFFFFFFFFFFFFFFFFFFFFFDE
:10122000FFFFFFFFFFFFFFFFFFFFFFFFFFFFFFFFCE
:10123000FFFFFFFFFFFFFFFFFFFFFFFFFFFFFFFFBE
:10124000FFFFFFFFFFFFFFFFFFFFFFFFFFFFFFFFAE
:10125000FFFFFFFFFFFFFFFFFFFFFFFFFFFFFFFF9E
:10126000FFFFFFFFFFFFFFFFFFFFFFFFFFFFFFFF8E
:10127000FFFFFFFFFFFFFFFFFFFFFFFFFFFFFFFF7E
:10128000FFFFFFFFFFFFFFFFFFFFFFFFFFFFFFFF6E
:10129000FFFFFFFFFFFFFFFFFFFFFFFFFFFFFFFF5E
:1012A000D69AE71CFFFFFFFFFFFFFFFFFFFFFFFFD7
:1012B000FFFFFFFFFFFFFFFFFFFFFFFFFFFFFFFF3E
:1012C000FFFFFFFFFFFFFFFFFFFFFFFFFFFFFFFF2E
:1012D000FFFFFFFFFFFFFFFFFFFFFFFFFFFFFFFF1E
:1012E000FFFFFFFFFFFFFFFFFFFFFFFFFFFFFFFF0E
:1012F000FFFFFFFFFFFFFFFFFFFFFFFFFFFFFFFFFE
:10130000FFFFFFFFFFFFFFFFFFFFFFFFFFFFFFFFED
:10131000FFFFFFFFFFFFFFFFFFFFFFFFFFFFFFFFDD
:10132000FFFFFFFFFFFFFFFFFFFFFFFFFFFFFFFFCD
:10133000FFFFFFFFFFFFFFFFFFFFFFFFFFFFFFFFBD
:10134000FFFFFFFFFFFFFFFFFFFFFFFFFFFFFFFFAD
:10135000FFFFFFFFFFFFFFFFFFFFFFFFFFFFFFFF9D
:10136000FFFFFFFFFFFFFFFFFFFFFFFFFFFFFFFF8D
:10137000FFFFFFFFFFFFFFFFFFFFFFFFFFFFFFFF7D
:10138000FFFFFFFFFFFFFFFFF79EF79EF79EF79E11
:10139000AEBACF1CF79EF79EF79EF79EFFDFFFFFCA
:1013A000FFFFFFFFFFFFFFFFFFFFFFFFFFFFFFFF4D
:1013B000FFFFFFFFFFFFFFFFFFFFFFFFFFFFFFFF3D
:1013C000FFFFFFFFFFFFFFFFFFFFFFFFFFFFFFFF2D
:1013D000FFFFFFFFFFFFFFFFFFFFFFFFFFFFFFFF1D
:1013E000FFFFFFFFFFFFFFFFFFFFFFFFFFFFFFFF0D
:1013F000FFFFFFFFFFFFFFFFFFFFFFFFFFFFFFFFFD
:10140000FFFFFFFFFFFFFFFFFFFFFFFFFFFFFFFFEC
:10141000FFFFFFFFFFFFFFFFFFFFFFFFFFFFFFFFDC
:10142000FFFFFFFFFFFFFFFFFFFFFFFFFFFFFFFFCC
:10143000FFFFFFFFFFFFFFFFFFFFFFFFFFFFFFFFBC
:10144000FFFFFFFFFFFFFFFFFFFFFFFFFFFFFFFFAC
:10145000FFFFFFFFFFFFFFFFFFFFFFFFFFFFFFFF9C
:10146000FFFFFFFFFFFFFFFFFFFFFFFFFFFFFFFF8C
:10147000FFFFF7FFBE183F5D07FF07FF07FF07FFEE
:1014800007FF07FF07FF07FF07FF07FF07FF571CBF
:10149000CE9AFFFFFFFFFFFFFFFFFFFFFFFFFFFFF2
:1014A000FFFFFFFFFFFFFFFFFFFFFFFFFFFFFFFF4C
:1014B000FFFFFFFFFFFFFFFFFFFFFFFFFFFFFFFF3C
:1014C000FFFFFFFFFFFFFFFFFFFFFFFFFFFFFFFF2C
:1014D000FFFFFFFFFFFFFFFFFFFFFFFFFFFFFFFF1C
:1014E000FFFFFFFFFFFFFFFFFFFFFFFFFFFFFFFF0C
:1014F000FFFFFFFFFFFFFFFFFFFFFFFFFFFFFFFFFC
:10150000FFFFFFFFFFFFFFFFFFFFFFFFFFFFFFFFEB
:10151000FFFFFFFFFFFFFFFFFFFFFFFFFFFFFFFFDB
:10152000FFFFFFFFFFFFFFFFFFFFFFFFFFFFFFFFCB
:10153000FFFFFFFFFFFFFFFFFFFFFFFFFFFFFFFFBB
:10154000FFFFFFFFFFFFFFFFFFFFFFFFFFFFFFFFAB
:10155000FFFFE73CDEDBFFFFFFFFFFFFFFFFCE5992
:1015600027FF07FF07FF07FF07FF07FF07FF07FF2B
:1015700007FF07FF07FF07FF07FF07FF07FF07FF3B
:1015800007FF1FBEBE79F79EFFFFFFFFFFFFFFFFB4
:10159000CE59FFFFFFFFFFFFFFFFFFFFFFFFFFFF32
:1015A000FFFFFFFFFFFFFFFFFFFFFFFFFFFFFFFF4B
:1015B000FFFFFFFFFFFFFFFFFFFFFFFFFFFFFFFF3B
:1015C000FFFFFFFFFFFFFFFFFFFFFFFFFFFFFFFF2B
:1015D000FFFFFFFFFFFFFFFFFFFFFFFFFFFFFFFF1B
:1015E000FFFFFFFFFFFFFFFFFFFFFFFFFFFFFFFF0B
:1015F000FFFFFFFFFFFFFFFFFFFFFFFFFFFFFFFFFB
:10160000FFFFFFFFFFFFFFFFFFFFFFFFFFFFFFFFEA
:10161000FFFFFFFFFFFFFFFFFFFFFFFFFFFFFFFFDA
:10162000FFFFFFFFFFFFFFFFFFFFFFFFFFFFFFFFCA
:10163000FFFFFFFFFFFFFFFFFFFFFFFFFFFFFFFFBA
:10164000FFFF66FB3F5DFFFFFFFFDEFB1FBE07FFE7
:1016500007FF07FF07FF07FF07FF07FF07FF07FF5A
:1016600007FF07FF07FF07FF07FF07FF07FF07FF4A
:1016700007FF07FF07FF07FF47BEE71CFFFFC6186E
:1016800007FFFFFFFFFFFFFFFFFFFFFFFFFFFFFF62
:10169000FFFFFFFFFFFFFFFFFFFFFFFFFFFFFFFF5A
:1016A000FFFFFFFFFFFFFFFFFFFFFFFFFFFFFFFF4A
:1016B000FFFFFFFFFFFFFFFFFFFFEF7DEF5DFFFF7E
:1016C000FFFFFFFFFFFFFFFFFFFFFFFFFFFFFFFF2A
:1016D000FFFFFFFFD71C7FFFFFFFFFFFFFFFFFFFA5
:1016E000FFFF8FDFB6FBFFFFFFFFFFFFFFFFFFFFE7
:1016F000FFFFF79E7FFFDEFBFFFFFFFFFFFFFFFF08
:10170000FFFFFFFFFFFFFFFFFFFFFFFFDEFBCF3C01
:10171000FFFFF79EDEFBDEFBDEFBDEFBDEFBDEFB20
:10172000DEFBDEFBDEFBDEFBDEFBE73CFFFFFFFF5D
:10173000FFFFB77DD69AFFDF671C07FF07FF07FF94
:1017400007FF07FF07FF07FF07FF07FF07FF07FF69
:1017500007FF07FF07FF07FF07FF07FF07FF07FF59
:1017600007FF07FF07FF07FF07FF27BEE73CE71C50
:10177000CF1CFFFFFFFFDEFBFFFFFFFFFFFFFFFFB1
:10178000FFFFFFFFFFFFFFFFFFFFFFFFFFFFFFFF69
:10179000E71CF7BEFFFFFFFFFFFFFFFFFFFFFFFF9D
:1017A000FFFFFFFFFFFFFFFFFFFF07FF279EEF7D0C
:1017B000FFFFFFFFFFFFFFFFFFFFFFFFFFFFFFFF39
:1017C000FFFFCF1C07FF07FFF7BEFFFFFFFFFFFF75
:1017D000E75D07FF07FFAEFBFFFFFFFFFFFFFFFF18
:1017E000FFFFEF5D07FFBE18FFFFFFFFFFFFFFFFDB
:1017F000FFFFFFFFFFFFFFFFFFFFF7BE07FF07FF32
:10180000FFFF6EDB07FF07FF07FF07FF07FF07FF6D
:1018100007FF07FF07FF07FF07FF07FF86BAFFFF66
:10182000FFFFE71CCE796EDB07FF07FF07FF07FF0F
:1018300007FF07FF07FF07FF07FF07FF07FF07FF78
:1018400007FF07FF07FF07FF07FF07FF07FF07FF68
:1018500007FF07FF07FF07FF07FF07FF17DFEF5D22
:10186000F79EFFFFE71C07FF86BAFFFFFFFFFFFFA2
:10187000FFFFFFFFFFFFFFFFFFFFFFFFFFFFE75D32
:1018800017DFB7FFFFFFFFFFFFFFFFFFFFFFFFFFB8
:10189000FFFFFFFFFFFFFFFFFFFF97DF07FF17DFE0
:1018A000D7FFFFFFFFFFFFFFFFFFFFFFFFFFFFFF70
:1018B000CF1C07FF07FFEFFFFFFFFFFFFFFFE77DE5
:1018C00007FF1FBE0FDF07FFF7BEFFFFFFFFFFFF92
:1018D000FFFFEF5D07FFBE18FFFFFFFFFFFFFFFFEA
:1018E000FFFFFFFFFFFFFFFFFFFFF7BE07FF07FF41
:1018F000FFFFEF5D2FFF2FFF2FFF2FFF2FFF2FFF8A
:101900002FFF2FFF2FFF2FFF2FFF1FBE07FFA6590F
:10191000FFFFE71C6EDB07FF1FBEA6BACE59CE59EC
:10192000CE59CE59CE59CE59CE599EBA07FF07FF90
:1019300007FF07FF07FF07FF2FFFCE59CE59CE59EC
:10194000CE59CE59CE59CE59CE591FFF07FF07FFAA
:10195000C7BEFFFFE71C07FF07FF8E9AFFFFFFFFD1
:10196000FFFFFFFFFFFFFFFFFFFFFFFFDF5D07FF41
:1019700007FFB7FFFFFFFFFFFFFFFFFFFFFFFFFFB7
:10198000FFFFFFFFFFFFFFFFFFFFFFFF869A07FF3D
:1019900007FF9679E73CFFFFFFFFFFFFFFFF475D73
:1019A00007FF07FFC638FFFFFFFFFFFFE73C07FF0A
:1019B00007FFD7FFD6BA07FF377DFFFFFFFFFFFF07
:1019C000FFFFEF5D07FFBE18FFFFFFFFFFFFFFFFF9
:1019D000FFFFFFFFFFFFFFFFFFFFF7BE07FF07FF50
:1019E000FFFFFFFFFFFFFFFFFFFFFFFFFFFFFFFF07
:1019F000FFFFFFFFFFFFFFFFFFFFC7FF07FFA65926
:101A0000FFFF66FB07FF1FBEFFDFFFFFFFFFFFFFBC
:101A10009E79C618FFFFFFFFFFFFFFFFAE3807FFED
:101A200007FF07FF07FF37FFFFFFFFFFFFFFFFFF76
:101A30008E9AC638FFFFFFFFFFFFEF5D07FF07FF2E
:101A40009E79FFFFE71C07FF07FF07FF8E9AFFFF46
:101A5000FFFFFFFFFFFFFFFFFFFFE73C07FF07FF61
:101A600007FFB7FFFFFFFFFFFFFFFFFFFFFFFFFFC6
:101A7000FFFFFFFFFFFFFFFFFFFFFFFFFFFFEF7D08
:101A80000FFF07FF07FF27BE27BE27BE07FF07FF81
:101A90004F3CF7BEFFFFFFFFFFFFFFFF7EFB07FF8F
:101AA000A659FFFFFFFF6EFB07FF379EFFDFFFFF1B
:101AB000FFFFEF5D07FF07FF07FF07FF07FF07FFB8
:101AC00007FF07FF07FF07FF07FF07FF07FF07FFE6
:101AD000FFFF86FB07FF07FF07FF07FF07FF07FF63
:101AE00007FF07FF07FF07FF07FF07FF07FFD7BE37
:101AF000DEFB07FF07FF1FBEFFDFFFFFFFFFEF5DFE
:101B000007FF07FFDFFFFFFFFFFFFFFFE7FF07FF05
:101B100007FF07FF07FFCE79FFFFFFFFFFFFE71C6F
:101B200007FF17DFFFDFFFFFFFFFFFFF9E5907FFE4
:101B300007FFAFDFE71C07FF17FF1FFF07FF7EFB55
:101B4000FFFFFFFFFFFFFFFFDEFB17DF07FFA659C9
:101B50001FBEB7FFFFFFFFFFFFFFFFFFFFFFFFFFFE
:101B6000FFFFFFFFFFFFFFFFFFFFFFFFFFFFFFFF85
:101B7000EF5DB7DF7EBA07FF07FF07FF7EBAD79E8C
:101B8000F7BEFFFFFFFFFFFFFFFF871C07FF2FDFF1
:101B9000FFFFFFFFFFFFF7BE5F1C07FFC6DBFFFF76
:101BA000FFFFEF5D07FF07FF7EBA7EBA7EBA7EBAFF
:101BB0007EBA7EBA7EBA7EBA7EBA7EBA07FF07FFC9
:101BC000FFFF6EDB07FF7EBA7EBA7EBA7EBA7EBAB0
:101BD0007EBA7EBA7EBA7EBA7EBA66FB07FFC6DBE5
:101BE000D6BA07FF07FF1FBEFFDFFFFFFFFFE73C7F
:101BF00007FF07FFD7FFFFFFFFFFFFFFE7FF07FF1D
:101C00008E9A67BE07FFCE79FFFFFFFFFFFFE71C3D
:101C100007FF17DFFFDFFFFFFFFFFFFF9E5907FFF3
:101C200007FF9FFFE71C07FF17FFFFFF8F1C07FF42
:101C3000771CFFFFFFFFDEFB1FBE07FF9EDBFFDF02
:101C40001FBEB7FFFFFFFFFFFFFFFFFFFFFFFFFF0D
:101C5000FFFFFFFFFFFFFFFFFFFFFFFFFFFFFFFF94
:101C6000FFFFFFFFFFFF9FFF07FFC618FFFFFFFFFC
:101C7000FFFFFFFFFFFFFFFFEF5D07FF27BEE73C12
:101C8000FFFFFFFFFFFFFFFFF7BE07FF07FFBF1CC0
:101C9000FFFFEF5D07FFBE18FFFFFFFFFFFFFFFF26
:101CA000FFFFFFFFFFFFFFFFFFFFF7BE07FF07FF7D
:101CB000FFFF6EDB07FFFFFFFFFFFFFFFFFFFFFFE1
:101CC000FFFFFFFFFFFFFFFFFFFFDFDF07FFA6595B
:101CD000FFFF2F7D07FF0FDFDF1CFFFFFFFFFFFF71
:101CE00077DF671CFFDFFFFFFFFFFFFF5F1C07FFC2
:101CF000A73CDEFB07FF7EFBFFFFFFFFFFFFF79E1A
:101D00005F1CC638FFFFFFFFFFFFF7BE07FF07FF9F
:101D100007FFE73CE71C07FF17FFFFFFFFFF3FFF41
:101D200007FF76FBE71C17DF07FF971CFFFFFFDFAE
:101D30001FBEB7FFFFFFFFFFFFFFFFFFFFFFFFFF1C
:101D4000FFFFFFFFFFFFFFFFFFFFFFFFFFFFFFFFA3
:101D5000FFFFFFFFFFFF9FFF07FFC618FFFFFFFF0B
:101D6000FFFFFFFFFFFFEF7D27BE07FFE73CFFFF01
:101D7000FFFFFFFFFFFFFFFFFFFFC6BA07FF07FFE1
:101D8000F7BEEF5D07FFBE18FFFFFFFFFFFFFFFF7E
:101D9000FFFFFFFFFFFFFFFFFFFFF7BE07FF07FF8C
:101DA000FFFF7F3C07FF869A869A869A869A869AD4
:101DB000869A869A869A869A869A66FB07FFB6DB8B
:101DC000FFFFFFFFA6DB07FF07FF869A869A869A2A
:101DD000869A869A869A869A869A5F1C07FF377D2E
:101DE000F7BEFFFF37FF07FF869A869A869A869A84
:101DF000869A869A869A869A869A07FF0FFFD6BA9F
:101E0000FFFFFFFFE71C07FF17FFFFFFFFFFFFFFBD
:101E1000279E07FF07FF07FF9EFBFFFFFFFFFFDF78
:101E20001FBEB7FFFFFFFFFFFFFFFFFFFFFFFFFF2B
:101E3000FFFFFFFFFFFFFFFFFFFFFFFFFFFFFFFFB2
:101E4000FFFFFFFFFFFFA7FF07FFCE59FFFFFFFFC9
:101E5000FFFFFFFFFFFFC63807FF9FDFFFFFFFFF0A
:101E6000FFFFFFFFFFFFFFFFFFFFFFFFCE7907FF31
:101E700097DFEF5D07FFBE18FFFFFFFFFFFFFFFFCC
:101E8000FFFFFFFFFFFFFFFFFFFFF7BE1FBE17DFD4
:101E9000FFFFEF5D1FBE07FF07FF07FF07FF07FFFD
:101EA00007FF07FF07FF07FF07FF07FF2FFFF7BE2B
:101EB000FFFFFFFFFFFFB6791FBE07FF07FF07FF0A
:101EC00007FF07FF07FF07FF07FF0FFF2F9EFFDF3B
:101ED000FFFFFFFFEF5DA69A1FBE07FF07FF07FF8B
:101EE00007FF07FF07FF07FF07FF1FBED69AFFFF89
:101EF000FFFFFFFFE73C07FFC638FFFFFFFFFFFFC5
:101F0000EF7D1FFF07FFA69AFFFFFFFFFFFFFFFF09
:101F10001FDFB7FFFFFFFFFFFFFFFFFFFFFFFFFF19
:101F2000FFFFFFFFFFFFFFFFFFFFFFFFFFFFFFFFC1
:101F3000FFFFFFFFFFFFFFFFF7FFFFFFFFFFFFFFB9
:101F4000FFFFFFFFFFFFFFFFF7FFFFFFFFFFFFFFA9
:101F5000FFFFFFFFFFFFFFFFFFFFFFFFFFFFFFFF91
:101F6000FFFFFFFFF7FFFFFFFFFFFFFFFFFFFFFF89
:101F7000FFFFFFFFFFFFFFFFFFFFFFFFFFFFFFFF71
:101F8000FFFFFFFFFFFFF7FFF7FFF7FFF7FFF7FF89
:101F9000F7FFF7FFF7FFF7FFF7FFFFFFFFFFFFFF79
:101FA000FFFFFFFFFFFFFFFFFFFFF7FFF7FFF7FF59
:101FB000F7FFF7FFF7FFF7FFF7FFFFFFFFFFFFFF59
:101FC000FFFFFFFFFFFFFFFFFFFFF7FFF7FFF7FF39
:101FD000F7FFF7FFF7FFF7FFF7FFFFFFFFFFFFFF39
:101FE000FFFFFFFFFFFFF7FFFFFFFFFFFFFFFFFF09
:101FF000FFFFFFFFF7FFFFFFFFFFFFFFFFFFFFFFF9
:10200000F7FFFFFFFFFFFFFFFFFFFFFFFFFFFFFFE8
:10201000FFFFFFFFFFFFFFFFFFFFFFFFFFFFFFFFD0
:10202000FFFFFFFFFFFFFFFFFFFFFFFFFFFFFFFFC0
:10203000FFFFFFFFFFFFFFFFFFFFFFFFFFFFFFFFB0
:10204000FFFFFFFFFFFFFFFFFFFFFFFFFFFFFFFFA0
:102A3000FFFFFFFFFFDFAE18AE18FFDFFFFFFFFF56
:102A4000FFFFFFFFFFFFFFFFFFFFFFFFFFFFFFFF96
:102A5000FFFFFFFFFFFFFFFFFFFFFFFFFFFFFFFF86
:102A6000FFFFFFFFFFFFFFFFFFFFFFFFFFFFFFFF76
:102A7000FFFFFFFFFFFFFFFFFFFFFFFFFFFFFFFF66
:102A8000FFFFFFFFEF7D36BA3F1CFFDFFFFFFFFFB9
:102A9000FFFFFFFFFFFFFFFFFFFFFFFFFFFFFFFF46
:102AA000FFFFFFFFFFFFFFFFFFFFFFFFFFFFFFFF36
:102AB000FFFFFFFFFFFFFFFFFFFFFFFFFFFFFFFF26
:102AC000FFFFFFFFFFFFFFFFFFFFFFFFFFFFFFFF16
:102AD000FFFFFFFFFFFFD69AD69AFFFFFFFFFFFF22
:102AE000FFFFFFFFFFFFFFFFFFFFFFFFFFFFFFFFF6
:102AF000FFFFFFFFFFFFFFFFFFFFFFFFFFFFFFFFE6
:102B0000FFFFFFFFFFFFFFFFFFFFFFFFFFFFFFFFD5
:102B1000FFFFFFFFFFFFFFFFFFFFFFFFFFFFFFFFC5
:102B2000FFFFFFFFFFFFD69AD69AFFFFFFFFFFFFD1
:102B3000FFFFFFFFFFFFFFFFFFFFFFFFFFFFFFFFA5
:102B4000FFFFFFFFFFFFFFFFFFFFFFFFFFFFFFFF95
:102B5000FFFFFFFFFFFFFFFFFFFFFFFFFFFFFFFF85
:102B6000FFFFFFFFFFFFFFFFFFFFFFFFEF7DEF7D99
:102B7000EF7DEF7DBFFF9EFB9EFBBFFFEF7DEF7DF7
:102B8000EF7DEF7DF79EFFFFFFFFFFFFFFFFFFFFE2
:102B9000FFFFFFFFFFFFFFFFFFFFFFFFFFFFFFFF45
:102BA000FFFFFFFFFFFFFFFFFFFFFFFFFFFFFFFF35
:102BB000FFFFFFFFFFFFDEFBD69A679E36BA349217
:102BC000377D377D07FF07FF07FF07FF377D377D1D
:102BD00034923492379EAEFBDEFBFFFFFFFFFFFF18
:102BE000FFFFFFFFFFFFFFFFFFFFFFFFFFFFFFFFF5
:102BF000FFFFFFFFEF7DFFDFFFFFFFFFFFFFFFFF97
:102C0000E79E9EFB6EFB07FF073C073C07FF07FFA5
:102C100007FF07FF07FF07FF07FF07FF07FF07FF84
:102C200007FF07FF073C073C07FF07FF9E38E79EAB
:102C3000F79EFFFFFFFFFFFFFFDFEF7DF79EFFFF28
:102C4000FFFFDEFB3555CFDFFFFFFFFFF79E679EDF
:102C5000257507FF07FF07FF07FF07FF07FF07FFB0
:102C600007FF07FF07FF07FF07FF07FF07FF07FF34
:102C700007FF07FF07FF07FF07FF07FF073C257553
:102C80005F3CF79EFFFFFFFFCFDF3555679EFFFFDD
:102C9000FFFFDEFB0DB6CFDFFFDFCFDF6EFB07FFF1
:102CA00007FF07FF07FF07FF07FF07FF07FF07FFF4
:102CB00007FF07FF07FF07FF07FF07FF07FF07FFE4
:102CC00007FF07FF07FF07FF07FF07FF07FF07FFD4
:102CD00007FF07FFAE18FFDFCFDF0DB6DEFBFFFFFC
:102CE000FFFFFFFF85B6FFDFAEDB0FDF07FF07FF4C
:102CF00007FF07FF07FF07FF07FF07FF07FF07FFA4
:102D000007FF07FF07FF07FF07FF07FF07FF07FF93
:102D100007FF07FF07FF07FF07FF07FF07FF07FF83
:102D200007FF07FF0E593F1CFFDFAEDBFFFFFFFF72
:102D3000FFFFFFFFCE79CFDF073C07FF07FF05D777
:102D400007FF05D7377D0FDF073C073C07FF07FF6D
:102D5000073C07FF07FF07FF07FF07FF07FF07FF06
:102D600007FF05D707FF07FF279E07FF0514073C4E
:102D700005D707FF073C05D7969AB638FFFFFFFF38
:102D8000FFFFFFFF9E790FDF073C6EFBBFFFBFFF1A
:102D9000BFFFBFFFEF7DCFDFBFFFBFFFBFFFBFFFA5
:102DA0006D75073C07FF07FF07FF07FF07FF6EFB77
:102DB000BFFFBFFFBFFFBFFFE79EBFFFBFFFBFFF5C
:102DC000BFFFBFFF6E3807FF073C26DBFFFFFFFF9B
:102DD000FFFFAEFB07FF07FF379EF79EFFFFFFFFDA
:102DE000FFFFF79E9596D6FBFFFFFFFFFFFFFFFF5C
:102DF000F79E357507FF07FF07FF07FF377DEF7D5C
:102E0000FFFFFFFFFFFFFFFFB75D9659FFFFFFFFCB
:102E1000FFFFFFFFF79E379E07FF07FFAEFBFFFF99
:102E2000F79E357507FF07FF47FFFFFFFFFFFFFF17
:102E3000FFFF679E06FB275DFFFFFFFFFFFFFFFF12
:102E4000FFFF47FF05D707FF07FF07FF3FDFFFDF54
:102E5000FFFFFFFFFFFFDEFB06FB06FBDEFBFFFFC6
:102E6000FFFFFFFFFFFFAEFB07FF07FF3575F79E74
:102E7000EF7D349207FF07FFAEFBFFFFFFFFFFFF71
:102E8000FFFF47FF073C073CFFFFFFFFFFFFFFFF80
:102E9000FFFF47FF073C279E279E07FF47FFFFFFD7
:102EA000FFFFFFFFFFFFD69A07FF07FFD69AFFFF3E
:102EB000FFFFFFFFFFFFD69A05D707FF377DEF7DA6
:102EC000EF7D349207FF07FF379EF79EFFFFFFFF5E
:102ED000FFFFAEFB05146E38FFFFFFFFFFFFFFFF94
:102EE000F79E379E073CB79EB79E05D7379EF79E45
:102EF000FFFFFFFFFFFFF79E073C0514D69AFFFF79
:102F0000FFFFFFFFFFFF679E07FF07FF3555EF7DC0
:102F1000FFFF77FF35550FDF279ED73CF79EFFFF5A
:102F2000FFFFFFFFD69AF79EFFFFFFFFFFFFF79E11
:102F30008FFF07FF0DB6CFDFEF7D355507FF8FFF02
:102F4000F79EFFFFFFFFFFFFAEFBAEFBFFFFFFFFA4
:102F5000FFFFF79ED73C279E0F1C349277FFFFFFA1
:102F6000FFFFFFFFEF7DAEDB05D7279E357547FFDF
:102F700047FF47FF47FF47FF47FF47FF47FF3575BD
:102F800007FF05D7AEDBFFDFFFDFAEDB05D707FFAF
:102F9000357547FF47FF47FF47FF47FF47FF47FF9D
:102FA00047FF379E257507FFAEDBEF7DFFFFFFFF75
:102FB000FFFFFFFFFFFFFFFFAEDB3555073C0514AA
:102FC00005140514051405140514051405D705D7B3
:102FD000377DAEDBFFFFFFFFFFFFFFFFAEDB377D7F
:102FE0000514051405140514051405140514051419
:102FF00005140514377DAEDBFFFFFFFFFFFFFFFF6A
:10300000FFFFFFFFFFFFFFFFFFDFEF7DBFFFBFFF02
:10301000BFFFBFFFBFFFBFFFBFFFBFFFBFFFBFFFC0
:10302000EF7DFFDFFFFFFFFFFFFFFFFFFFDFEF7D14
:10303000BFFFBFFFBFFFBFFFBFFFBFFFBFFFBFFFA0
:10304000BFFFBFFFEF7DFFDFFFFFFFFFFFFFFFFFC2
:10305000FFFFFFFFFFFFFFFFFFFFFFFFFFFFFFFF80
:10306000FFFFFFFFFFFFFFFFFFFFFFFFFFFFFFFF70
:10307000FFFFFFFFFFFFFFFFFFFFFFFFFFFFFFFF60
:10308000FFFFFFFFFFFFFFFFFFFFFFFFFFFFFFFF50
:10340000FFFFFFFFFFFFFFFFFFFFFFFFF79ED69AC3
:1034100030340008000000202000000028010008CF
:103420005034000820000020280700004401000854
:1034300000A24A0400000000000000000102030492
:10344000060708090000000000000000000000005E
:04000005080000ED02
:00000001FF
