:020000040000FA
:10000000002320209D010000A1010000A3010000A9
:1000100000000000000000000000000000000000E0
:10002000000000000000000000000000A50100002A
:100030000000000000000000A7010000A90100006E
:10004000AB0100006D0E0000AB010000AB01000031
:100050009507000095070000AB010000AB01000010
:10006000AB010000AB010000AB010000AB010000E0
:10007000AB010000AB010000AB0100002D2A000025
:10008000AB01000015290000AB010000D5280000DD
:10009000AB010000AB010000AB010000AB010000B0
:1000A000AB010000AB010000AB010000AB010000A0
:1000B000AB010000AB010000AB010000AB01000090
:1000C00000F002F800F05AF812A030C808382418DE
:1000D0002D18AC4201D100F051F80FCCA246AB462E
:1000E0000CA730CF2D1B083F3F197C427F1E544484
:1000F0002D090426F441641EAC4201D300F03EF801
:100100000126334200D0FB1A3343984754465D46DC
:10011000DFE70000246600004466000000000000E5
:10012000103A02D378C878C1FAD8520701D330C840
:1001300030C101D504680C60704700000000000069
:100140007047000000000000002300240025002666
:10015000103A01D378C1FBD8520700D330C100D583
:100160000B60704710B5642902D100F03BF810BD58
:10017000002010BD1FB51FBD10B510BD00F0E2FA84
:100180001146FFF7F7FF02F055FD00F0FAFA03B44D
:10019000FFF7F2FF03BC02F07BFC000006480047BB
:1001A000FEE7FEE7FEE7FEE7FEE7FEE70348044959
:1001B000024A044B70470000C100000000032020E9
:1001C00000232020000320200FB4054910B503AA06
:1001D000029800F087FA10BC08BC04B01847000071
:1001E000CC002020F7B5002575291068009914A6C9
:1001F00011D0C046C046002802DA404211A608E0ED
:10020000009909688A0701D50FA602E0490704D5BD
:100210000EA6012501E0C046C046009F00242437F9
:1002200004E000F073FA30313955641C0028F8D12D
:100230002B4632462146009800F0E3F9FEBD00004F
:10024000000000002D0000002B0000002000000036
:10025000F3B50446002081B020622046E16888475B
:10026000002872D0252802D06268A168ABE0594FFF
:1002700000267F442046E16888472028054608DBA1
:10028000312D06D2781920380078002801D0064395
:10029000F0E7B00701D5042086430020E06107465F
:1002A000A0612A2D0AD0284602F0C9FF002827D0D5
:1002B000B8000019303D0090856119E00298BA003D
:1002C000121902C8916102902046E1688847012F07
:1002D000054617D1E06900281FDA202086431CE07C
:1002E00000980A2180694843009940193038886194
:1002F0002046E1688847054602F0A1FF0028EFD1BB
:10030000012F0AD02E2D08D12046E16888470546E6
:10031000202006437F1C022FC3DBA069002803DADC
:100320004042A06101200643F00701D0102086431F
:100330006C2D0BD0682D09D04C2D3CD06A2D38D0B7
:10034000742D38D07A2D36D016E040E0E1682F4683
:1003500020468847B842054609D16C2F29D0012094
:100360008002E168064320468847054604E06C2F7A
:100370001DD0FF2001300643002D28D028464138EB
:10038000192803D80120C0020643203520462660E4
:100390002946029A1646FFF7E5FE002810D00128EC
:1003A0000BD0F61DF008C0000830029055E7402041
:1003B000E1E78020D5E70020D3E7361D02964CE721
:1003C00062682846A1689047206A401C44E7206A7A
:1003D000FEBD0000D62F000010B5044603E002F079
:1003E00069FB401C08D020780549641C0028F6D120
:1003F0000A2002F05FFB10BD0020C04310BD0000CA
:10040000CC002020002203098B4273D3030A8B42C5
:1004100058D3030B8B423CD3030C8B4221D312E005
:1004200003460B437FD4002243088B4274D3030955
:100430008B425FD3030A8B4244D3030B8B4228D3F6
:10044000030C8B420DD30902FF2212BA030C8B421C
:1004500002D31212090265D0030B8B4219D300E0BC
:10046000090AC30B8B4201D3CB03C01A5241830B41
:100470008B4201D38B03C01A5241430B8B4201D3F1
:100480004B03C01A5241030B8B4201D30B03C01A1A
:100490005241C30A8B4201D3CB02C01A5241830A94
:1004A0008B4201D38B02C01A5241430A8B4201D3C3
:1004B0004B02C01A5241030A8B4201D30B02C01AED
:1004C0005241CDD2C3098B4201D3CB01C01A524154
:1004D00083098B4201D38B01C01A524143098B42DD
:1004E00001D34B01C01A524103098B4201D30B01C6
:1004F000C01A5241C3088B4201D3CB00C01A5241EB
:1005000083088B4201D38B00C01A524143088B42AF
:1005100001D34B00C01A5241411A00D20146524148
:10052000104670475DE0CA0F00D04942031000D367
:10053000404253409C46002203098B422DD3030ABC
:100540008B4212D38901FC2212BA030A8B420CD3CC
:10055000890192118B4208D3890192118B4204D3F5
:1005600089013AD0921100E08909C3098B4201D375
:10057000CB01C01A524183098B4201D38B01C01AAF
:10058000524143098B4201D34B01C01A5241030926
:100590008B4201D30B01C01A5241C3088B4201D3D5
:1005A000CB00C01A524183088B4201D38B00C01A82
:1005B0005241D9D243088B4201D34B00C01A524159
:1005C000411A00D201465241104663465B1001D3E6
:1005D0004042002B00D54942704763465B1000D370
:1005E000404201B50449002802DC491C084000E0F3
:1005F0000846C046C04602BDFFFFFF7F70477047F8
:100600007047FFB504460D4681B024300090216844
:10061000880604D51022E0699143216000E00120A2
:10062000A84201DD471B00E000270498A1697A1960
:100630001018081AA0612078C00602D42046C046CF
:10064000C046002608E003986268A168805D904774
:10065000206A401C761C206204988642F3DB2078D6
:10066000C0060AD52046C046C04606E06268A168BA
:1006700030209047206A401C206238467F1E0028A8
:10068000F4DC07E000986268A168405D9047206A4A
:10069000401C206228466D1E0028F3DC2046C04620
:1006A000C0462078000602D5022005B0F0BD01202A
:1006B000FBE7000001694A1C02610878704700B539
:1006C0008FB002910021059105490193794403916E
:1006D000114604906846FFF7BBFD0FB000BD000057
:1006E000E5FFFFFF084B70B50D467B44FFF7E7FFC2
:1006F0000446284600F01EF8002802D00020C0431F
:1007000070BD204670BD0000C72300000146800870
:10071000081A02091018020A1018020C1018C00852
:10072000820012185200891A01E0401C0A390A2975
:10073000FBD27047C068802108407047004870476E
:10074000500020207546FFF7F9FFAE4605006946C8
:100750005346C008C000854618B020B5FFF726FDF7
:1007600060BCB64600260027C0C5C0C5C0C5C0C510
:10077000C0C5C0C5C0C5C0C5403D490849008D467B
:10078000704710B50446C046C0462046FFF7FFFC40
:1007900010BD000004480068C0B20C2802D1034814
:1007A000012101707047C046201000403001202018
:1007B00010B5044601F09CFBA02001F025FB01F0E0
:1007C000A9F9204601F020FB01F0A4F901F090FB0B
:1007D000A12001F019FB01F09DF901F01BFA04467C
:1007E000012001F0ADFA01F001FC204610BD00002F
:1007F000B0B50A78032313400B4A84580B4D2540AB
:10080000EB18A92424061B198350072212064B68F3
:1008100013401124240205599543EA180251001986
:1008200049780161B0BDC04608080000FCFFFF0028
:10083000811E091F00BFFCD27047000070B58A6896
:1008400011231B02C458184D25408C881443174AA5
:1008500022405219C250C2180B681469144D254029
:100860008C891C438B7B2343124C1C4063191361FE
:100870000B694C698922520185580F4E2E40CD7B61
:100880001D4325430B8B2B430C4C1C40A319835059
:100890008B7E898B19430A4B0B4080180169094AEA
:1008A0000A40D118016170BDFFFEFEFF000101008A
:1008B000FCFCFFFE03030001FEFCFCFE0103030140
:1008C000010F0000FEF0FFFF12490A6812480260A3
:1008D0004A6842608A688260CA68C2600A690261C6
:1008E0004A6942618A698261CA69C2610A6A0262AE
:1008F0004A6A42628A6A8262CA6AC2620A6B026396
:100900004A6B42638A6B8263C96B854A0264C16326
:100910007047C0460000C4410000202070B50A782E
:100920000C231A400124240305196E689E43B21853
:100930006A604978072211400359934359180151BD
:1009400070BD0000B0B51122120283580C4C1C403F
:100950000B894D881D438B792B430A4D1D4063192C
:100960008350CB798C881C43097821435D239B00FD
:100970001940801842689A4351184160B0BDC04682
:1009800080CCFFFF7F33000010B5012212038318D3
:100990000C785C604978815010BD0000F0B585B0DE
:1009A000044601252902394E30680491884330609D
:1009B0005A480068006C5A49884201D0FFF784FF0A
:1009C000A9036C4802680A4208D102680A4205D1AC
:1009D00002680A4202D102680A42F3D0617E2940CD
:1009E000B269AA435118B1612021615C0322114010
:1009F000F36993435918F16125490A6805230B608F
:100A0000636A1F6837625B687362072313400B6079
:100A1000E1697F221202F36993434906490C591890
:100A2000F161276803956568A1680091E368216911
:100A3000019161690291B269164911403A07120B9E
:100A40002D03ADB2AA181A43009B1B071B0D1343BD
:100A5000019A1343029A1343227E1A430E4B13400A
:100A60005918B1613168049A114331600399490200
:100A700002680A4208D102680A4205D102680A42A5
:100A800002D102680A42F3D005B0F0BD08010B4064
:100A9000001340408D00F0FF72FF0F00F0B581B0F1
:100AA00014460D4606461D480068006C1C498842E5
:100AB00001D0FFF709FF1B480246083A13680121DD
:100AC0008B43136003231B031E4007689F43BB191E
:100AD00003600368FF26B343EDB25B19036013683C
:100AE0000B4313600268002C12D00B071A430260FC
:100AF000080220490A68024208D10A68024205D168
:100B00000A68024202D10A680242F3D001B0F0BD85
:100B100009078A43026001B0F0BDC04644002020AE
:100B2000FECAFECA10010B4010B5114988600122AF
:100B30005305104804681C4208D104681C4205D1C2
:100B400004681C4202D104681C42F3D012040B68F2
:100B500013430B600168C90608D40168C90605D4AF
:100B60000168C90602D40168C906F3D510BDC046A4
:100B700004010B4004020B40F0B582B0804E8A4A5B
:100B800085188F4A821801923B4A83180A794C795A
:100B90003A4F012C26D1202A04D00524E401002A52
:100BA00003D003E0364C002A00D188249E683E40E2
:100BB00026439E60DE683E402643DE60AC68724E8F
:100BC0003440AC60EC683440EC600024019EB460BA
:100BD000F4608F24E4439E6926409E61DE692640CE
:100BE000DE61674E80198E790C68202A009208D049
:100BF000191D002A15D1641E44601A683A408824E1
:100C000015E0611E4160196839401D4A11431960A1
:100C1000596839401143596001214C07194F014669
:100C200007E0620842601A683A400524E401224362
:100C30001A600A683A4022430A602968524A114001
:100C400029606968114069600021019A1160516052
:100C50008F21C9431A690A401A615A690A405A61C8
:100C600000990E43BD2131400268074B1340C9185B
:100C7000891C016002B0F0BD7018000024493E00DC
:100C800001040000FFFFFFCF4000FFCF70B53C4ADA
:100C900082184B685360444BC3180878222857D8F1
:100CA000840001A52C59A746470D0000510D0000F6
:100CB000470D0000510D0000510D0000510D0000C6
:100CC000510D0000510D0000510D0000510D0000AC
:100CD000510D0000510D0000510D0000510D00009C
:100CE000510D0000510D0000350D0000510D0000A8
:100CF000350D0000510D0000510D0000510D000098
:100D0000510D0000510D0000510D0000510D00006B
:100D1000510D0000510D0000510D0000510D00005B
:100D2000510D0000510D0000350D0000510D000067
:100D3000350D0000032424071568A543012464072A
:100D40002C19146004E0032424071568A5431560DA
:100D50000C69D460CC680B4D25401C680A4E2640B7
:100D600074191C601368094C1C401460097A014313
:100D70003F200140136883435818106070BDC0467F
:100D800004180000777702008888FDFF7F00FFFFCE
:100D900010B507239B04194092008018024A84581A
:100DA0009C436118815010BD3018000010B5029CA2
:100DB000A400001911431943014A815010BDC046D7
:100DC0005018000092008018014A81507047C046B8
:100DD0001018000010B50122120383180C789C60D3
:100DE0004B7883508978014A815010BD0C11000066
:100DF000B0B51122120283580124A34383508B788B
:100E00000C881C438B882343094C1C408358094D94
:100E10001D402B1983508B79CC791C43097A2143CF
:100E20007E231940801842689A4351184160B0BD32
:100E300018670000E798FDFF10B501221203831820
:100E40000C789C604978815010BD0A784B78134328
:100E50004A881A4392B211231B02C250C0188A88D2
:100E6000C988090489188160704700000748006834
:100E7000002800D470470120400405490860054857
:100E800001784A424A4102707047C04638300A40F1
:100E9000B0120A40F0022020F0B581B00093012684
:100EA0003302884D2B6176022E61874F2A243C63E2
:100EB0003C68E40608D53C68E40605D53C68E406D1
:100EC00002D53C68E406F3D42E602B602E6114300A
:100ED00084B2240A3C633C68E40608D53C68E40616
:100EE00005D53C68E40602D53C68E406F3D42E60E0
:100EF0002E61C0B238633868C00608D53868C006AD
:100F000005D53868C00602D53868C006F3D42E600F
:100F10002E61143290B2000A38633868C00608D5D2
:100F20003868C00605D53868C00602D53868C006DE
:100F3000F3D42E602E61D0B238633868C00608D56D
:100F40003868C00605D53868C00602D53868C006BE
:100F5000F3D42E602B612E612B2038633868C006D5
:100F600008D53868C00605D53868C00602D5386887
:100F7000C006F3D42E602B602E61080A38633868EF
:100F8000C00608D53868C00605D53868C00602D541
:100F90003868C006F3D42E602E61C8B23863386852
:100FA000C00608D53868C00605D53868C00602D521
:100FB0003868C006F3D42E602E610099080A3863A1
:100FC0003868C00608D53868C00605D53868C00638
:100FD00002D53868C006F3D42E602E61C8B23863DB
:100FE0003868C00608D53868C00605D53868C00618
:100FF00002D53868C006F3D42E602B612E612C20F8
:1010000038633868C00608D53868C00605D5386822
:10101000C00602D53868C006F3D42E602B6001B03C
:10102000F0BDC046F0B583B01C4615460E46511EB5
:101030008AB2591E8BB202903146FFF72DFF019400
:10104000A64212D2089C04E0761CB0B201998842F4
:101050000BD20298A842F7D2029F204600F022FD50
:101060007F1CB8B2A842F8D3EEE703B0F0BD000091
:10107000F0B589B00127FC05114E3460642528467F
:1010800001F010FD3461284601F00CFD346034613C
:10109000284601F007FD3460284601F003FD38467C
:1010A00001F000FD284601F0FDFC3D02054E3561D2
:1010B00007977F023761044C1120206306E0C04689
:1010C00090320A4090520A40109146402068C00673
:1010D00008D52068C00605D52068C00602D520685E
:1010E000C006F3D437603560782001F0DBFC356151
:1010F0003761362020632068C00608D52068C00606
:1011000005D52068C00602D52068C006F3D4376034
:1011100035603761702020632068C00608D52068DC
:10112000C00605D52068C00602D52068C006F3D4E5
:101130003760356137613A2020632068C00608D5E2
:101140002068C00605D52068C00602D52068C00604
:10115000F3D4376035603761052222632068C0060A
:1011600008D52068C00605D52068C00602D52068CD
:10117000C006F3D4376035613761B2202063206840
:10118000C00608D52068C00605D52068C00602D56F
:101190002068C006F3D43760356037610C202063C7
:1011A0002168C90608D52168C90605D52168C90680
:1011B00002D52168C906F3D43760376120632068FF
:1011C000C00608D52068C00605D52068C00602D52F
:1011D0002068C006F3D437603761002020632068A0
:1011E000C00608D52068C00605D52068C00602D50F
:1011F0002068C006F3D4376037613320089020633D
:101200002068C00608D52068C00605D52068C0063D
:1012100002D52068C006F3D4376037610898206390
:101220002068C00608D52068C00605D52068C0061D
:1012300002D52068C006F3D4376035613761B72026
:1012400020632068C00608D52068C00605D5206840
:10125000C00602D52068C006F3D437603560376118
:10126000352020632068C00608D52068C00605D553
:101270002068C00602D52068C006F3D43760356107
:101280003761BB2020632068C00608D52068C006EF
:1012900005D52068C00602D52068C006F3D43760A3
:1012A00035603761322020632068C00608D5206889
:1012B000C00605D52068C00602D52068C006F3D454
:1012C000376035613761C22020632068C00608D5C9
:1012D0002068C00605D52068C00602D52068C00673
:1012E000F3D4376035603761079820632068C00603
:1012F00008D52068C00605D52068C00602D520683C
:10130000C006F3D4376035613761C320206320689D
:10131000C00608D52068C00605D52068C00602D5DD
:101320002068C006F3D43760356037611520079018
:1013300020632068C00608D52068C00605D520684F
:10134000C00602D52068C006F3D437603561376126
:10135000C42020632068C00608D52068C00605D5D3
:101360002068C00602D52068C006F3D43760356017
:101370003761202020632068C00608D52068C00699
:1013800005D52068C00602D52068C006F3D43760B2
:1013900035613761C62020632068C00608D5206803
:1013A000C00605D52068C00602D52068C006F3D463
:1013B0003760356037610F2020632068C00608D58C
:1013C0002068C00605D52068C00602D52068C00682
:1013D000F3D4376035613761D02323632068C006BA
:1013E00008D52068C00605D52068C00602D520684B
:1013F000C006F3D4376035603761A42020632068CD
:10140000C00608D52068C00605D52068C00602D5EC
:101410002068C006F3D437603761A12020632068BC
:10142000C00608D52068C00605D52068C00602D5CC
:101430002068C006F3D4376035613761E02020634F
:101440002068C00608D52068C00605D52068C006FB
:1014500002D52068C006F3D4376035603761236356
:101460002068C00608D52068C00605D52068C006DB
:1014700002D52068C006F3D4376037610820069093
:1014800020632068C00608D52068C00605D52068FE
:10149000C00602D52068C006F3D4376037610E203D
:1014A000059020632068C00608D52068C00605D5D1
:1014B0002068C00602D52068C006F3D437603761C3
:1014C000092020632168C90608D52168C90605D509
:1014D0002168C90602D52168C906F3D4376037618F
:1014E00020632168C90608D52168C90605D5216889
:1014F000C90602D52168C906F3D437603761226373
:101500002168C90608D52168C90605D52168C9061C
:1015100002D52168C906F3D43760376131222263CE
:101520002168C90608D52168C90605D52168C906FC
:1015300002D52168C906F3D4376037610899216361
:101540002168C90608D52168C90605D52168C906DC
:1015500002D52168C906F3D4376037614821049168
:1015600021632168C90608D52168C90605D5216807
:10157000C90602D52168C906F3D43760376117213F
:10158000039121632168C90608D52168C90605D5DC
:101590002168C90602D52168C906F3D437603761CE
:1015A0001421029121632168C90608D52168C90662
:1015B00005D52168C90602D52168C906F3D437606C
:1015C0003761079921632168C90608D52168C906D2
:1015D00005D52168C90602D52168C906F3D437604C
:1015E000376122632168C90608D52168C90605D577
:1015F0002168C90602D52168C906F3D4376037616E
:101600003421019121632168C90608D52168C906E2
:1016100005D52168C90602D52168C906F3D437600B
:1016200035613761E12121632168C90608D5216848
:10163000C90605D52168C90602D52168C906F3D4B3
:1016400037603560376123632168C90608D5216892
:10165000C90605D52168C90602D52168C906F3D493
:1016600037603761069921632168C90608D521686A
:10167000C90605D52168C90602D52168C906F3D473
:1016800037603761059921632168C90608D521684B
:10169000C90605D52168C90602D52168C906F3D453
:1016A0003760376120632168C90608D52168C906FB
:1016B00005D52168C90602D52168C906F3D437606B
:1016C000376120632068C00608D52068C00605D5AC
:1016D0002068C00602D52068C006F3D437603761A1
:1016E000079820632068C00608D52068C00605D585
:1016F0002068C00602D52068C006F3D43760376181
:1017000022632068C00608D52068C00605D5206879
:10171000C00602D52068C006F3D437603761089848
:1017200020632068C00608D52068C00605D520685B
:10173000C00602D52068C006F3D43760376104982C
:1017400020632068C00608D52068C00605D520683B
:10175000C00602D52068C006F3D43760376103980D
:1017600020632068C00608D52068C00605D520681B
:10177000C00602D52068C006F3D4376037610298EE
:1017800020632068C00608D52068C00605D52068FB
:10179000C00602D52068C006F3D4376037610798C9
:1017A00020632068C00608D52068C00605D52068DB
:1017B000C00602D52068C006F3D4376037612263C3
:1017C0002068C00608D52068C00605D52068C00678
:1017D00002D52068C006F3D43760376101982063D2
:1017E0002068C00608D52068C00605D52068C00658
:1017F00002D52068C006F3D43760356137612120F7
:1018000020632068C00608D52068C00605D520687A
:10181000C00602D52068C006F3D437603560356154
:101820003761292020632068C00608D52068C006DB
:1018300005D52068C00602D52068C006F3D43760FD
:10184000356009B0F0BD0000F0B58BB006931646C8
:10185000119C0A19521E93B265084219521E92B287
:1018600007900591FFF718FB0A95680722090028E1
:1018700000D0521C62436ED00C3CA001E1B289083A
:101880004018C3B2052B66D80120099098402B213F
:10189000084260D01298089010980490203EF0B250
:1018A00000900024079F26460292019309E00598C4
:1018B000401C0590079F039C641C02988442019B76
:1018C00049D0032B03940CD0012B06D0002B0DD153
:1018D0000C200099484323490BE00098000120495F
:1018E00007E03020009948431C4902E0009880013D
:1018F0001D4908180019057800240BE000F0D2F803
:10190000761CF0B20A99FEF77DFD002921D0641CF7
:10191000082CD0D00998A04028400899002913D05D
:10192000002809D0B8B2059989B202460B46FFF7E4
:10193000B3FA069800F0B6F87F1CB8B20799401ABF
:101940000A998842E3D1B2E700280498D6D00698D5
:10195000D4E70026AFE70BB0F0BDC046C13C0000A5
:10196000D13600005D320000914E0000F0B58FB01E
:101970000BAC07C4002B6BD01C4616981599099127
:1019800014990891991E04910A9040080790581ED6
:10199000069000272F4D0E97059316E001200E901C
:1019A0000020099A00920A9A019202903020014385
:1019B000CAB2079847430B98C01980B20C99089B8C
:1019C000FFF742FFA642374642D07E1CF0B2844267
:1019D00001D1012120E0F84320180499C91BC9B2A4
:1019E000032901D2012108E0FC2202400023012149
:1019F00069431B1DDCB29442FAD103221040059CBE
:101A00000AD0012801D10A2005E0022802D07D2059
:101A1000C00000E0642041430D9801F015FB0A214D
:101A2000FEF7F0FC0E980028BAD10698B842B7DD50
:101A30000029B3D10021099800900A9801900E91D5
:101A40000291079847430B98C01980B22022B5E74E
:101A50000FB0F0BD10270000F0B587B01478002C4F
:101A60001ED00F4606460E9806900D980C9D0495C4
:101A7000551C05904008039004980090059801902B
:101A800006980290B0B2E2B239461C46FFF7DCFE7F
:101A9000234603983618681C2C78002C0546EBD199
:101AA00007B0F0BD10B501214902114A1161040AC5
:101AB000104B1C631C68E40608D51C68E40605D5B9
:101AC0001C68E40602D51C68E406F3D411601161B9
:101AD000C0B218631868C00608D51868C00605D5D6
:101AE0001868C00602D51868C006F3D4116010BD8E
:101AF00090520A4010914640C14881214160C14A3C
:101B0000022313601364016001201060106403203D
:101B100010607047F0B581B0F34D81202860F34923
:101B200001260E600E6428600E600E640E60502464
:101B30002046FEF77DFE2046FEF77AFE2046FEF7A1
:101B400077FE2046FEF774FE2046FEF771FE204623
:101B5000FEF76EFE2046FEF76BFE2046FEF768FE9F
:101B60000227E24807602046FEF762FE2046FEF7A5
:101B70005FFE2046FEF75CFE2046FEF759FE20463B
:101B8000FEF756FE2046FEF753FE2046FEF750FEB7
:101B90002046FEF74DFE68482860296829602860C5
:101BA00028682860654805682046FEF741FE204603
:101BB000FEF73EFE2046FEF73BFE2046FEF738FECF
:101BC0002046FEF735FE2046FEF732FE2046FEF7A1
:101BD0002FFE2046FEF72CFEC44807612046FEF784
:101BE00027FE2046FEF724FE2046FEF721FE204673
:101BF000FEF71EFE2046FEF71BFE2046FEF718FEEF
:101C00002046FEF715FE2046FEF712FE3540284618
:101C100001B0F0BDF0B583B0F24981200860F24A0E
:101C2000012313601364086013601364019313604D
:101C300050242046FEF7FCFD2046FEF7F9FD204625
:101C4000FEF7F6FD2046FEF7F3FD2046FEF7F0FD19
:101C50002046FEF7EDFD2046FEF7EAFD2046FEF7A2
:101C6000E7FD00263746DF4D3348286028682860A6
:101C700002210291DC48016050242046FEF7D8FD85
:101C80002046FEF7D5FD2046FEF7D2FD2046FEF7A2
:101C9000CFFD2046FEF7CCFD2046FEF7C9FD2046CD
:101CA000FEF7C6FD2046FEF7C3FD234828602868DE
:101CB0002860224805682046FEF7BAFD2046FEF758
:101CC000B7FD2046FEF7B4FD2046FEF7B1FD2046E5
:101CD000FEF7AEFD2046FEF7ABFD2046FEF7A8FD61
:101CE0002046FEF7A5FDF248029901612046FEF765
:101CF0009FFD2046FEF79CFD2046FEF799FD2046FD
:101D0000FEF796FD2046FEF793FD2046FEF790FD78
:101D10002046FEF78DFD2046FEF78AFD8020F0402C
:101D200001990D40694201400F43761C082E9AD15B
:101D3000F8B203B0F0BDC04681000E0080130A4027
:101D400070B5DA4A81231360D94D012129602964D5
:101D5000136029602964002801D0284601E0284644
:101D60001030016050242046FEF762FD2046FEF749
:101D70005FFD2046FEF75CFD2046FEF759FD20463C
:101D8000FEF756FD2046FEF753FD2046FEF750FDB8
:101D90002046FEF74DFD02262E602046FEF748FD48
:101DA0002046FEF745FD2046FEF742FD2046FEF7A1
:101DB0003FFD2046FEF73CFD2046FEF739FD20465C
:101DC000FEF736FD2046FEF733FD2E612046FEF776
:101DD0002FFD2046FEF72CFD2046FEF729FD20466C
:101DE000FEF726FD2046FEF723FD2046FEF720FDE8
:101DF0002046FEF71DFD2046FEF71AFD70BDC046C9
:101E00000480424090120A40F0B583B00290A74887
:101E1000812101910160A64C0122226022640027E9
:101E2000009254E0226050252846FEF701FD284626
:101E3000FEF7FEFC2846FEF7FBFC2846FEF7F8FC02
:101E40002846FEF7F5FC2846FEF7F2FC2846FEF78A
:101E5000EFFC2846FEF7ECFC0226954C266028464F
:101E6000FEF7E6FC2846FEF7E3FC2846FEF7E0FC1A
:101E70002846FEF7DDFC2846FEF7DAFC2846FEF78A
:101E8000D7FC2846FEF7D4FC2846FEF7D1FC2846AE
:101E9000FEF7CEFC26612846FEF7CAFC2846FEF770
:101EA000C7FC2846FEF7C4FC2846FEF7C1FC2846BE
:101EB000FEF7BEFC2846FEF7BBFC2846FEF7B8FC42
:101EC0002846FEF7B5FC009A7F1C082F0AD07748F9
:101ED00001990160226022640298B8400006A1D4F2
:101EE00010349FE703B0F0BD0480424090120A40D6
:101EF000F0B581B0F948812707606D4D01262E604D
:101F00002E6407602E602E642E6050242046FEF75B
:101F10008FFC2046FEF78CFC2046FEF789FC20460D
:101F2000FEF786FC2046FEF783FC2046FEF780FC89
:101F30002046FEF77DFC2046FEF77AFC022000904A
:101F400028602046FEF774FC2046FEF771FC204610
:101F5000FEF76EFC2046FEF76BFC2046FEF768FCA1
:101F60002046FEF765FC2046FEF762FC2046FEF7A1
:101F70005FFCDA4807602E602E642E612046FEF773
:101F800057FC2046FEF754FC2046FEF751FC204645
:101F9000FEF74EFC2046FEF74BFC2046FEF748FCC1
:101FA0002046FEF745FC2046FEF742FC00982861DB
:101FB0002046FEF73DFC2046FEF73AFC2046FEF7A1
:101FC00037FC2046FEF734FC2046FEF731FC204665
:101FD000FEF72EFC2046FEF72BFC2046FEF728FCE1
:101FE00001B0F0BD0480424090120A40F0B581B0CB
:101FF000BA48812707602E4E012535603564076099
:1020000035603564356150242046FEF711FC2046CA
:10201000FEF70EFC2046FEF70BFC2046FEF708FC00
:102020002046FEF705FC2046FEF702FC2046FEF7A0
:10203000FFFB2046FEF7FCFB022030602046FEF747
:10204000F7FB2046FEF7F4FB2046FEF7F1FB2046A7
:10205000FEF7EEFB2046FEF7EBFB2046FEF7E8FB23
:102060002046FEF7E5FB2046FEF7E2FB9B480760B3
:102070003560356435602046FEF7DAFB2046FEF712
:10208000D7FB2046FEF7D4FB2046FEF7D1FB2046C7
:10209000FEF7CEFB2046FEF7CBFB2046FEF7C8FB43
:1020A0002046FEF7C5FB01B0F0BDC04604804240AB
:1020B00090120A4010B50124A0071349FEF798FBBF
:1020C00012484168284A0A40210451184160816839
:1020D000264A0A4003210B06D218826022020C4BCA
:1020E0001A605C6002229A60D9607D210902416118
:1020F000E102084A136A0B43136213680B4313602F
:1021000001682143016010BD6466000000110040B9
:10211000801100402810004080B510481049FEF79B
:1021200067FB10484168104A0A4001210B04D2188D
:10213000426082680D4B1340032212069A18826097
:102140000B4A04231360052353600623936008237E
:10215000D36002680A43026080BDC0460020004090
:102160006C66000000310040FEFFECFFF8FFE0E08D
:102170008031004080B506480649FEF75FFB0648FF
:10218000064901600648016801220A43026080BDD9
:1021900000800140746600000092014013060000B8
:1021A00000910140F0B54D4B0020586298628920A3
:1021B000D860012251074A4C2160186190072060C5
:1021C0008620D862474C226018630221216046496C
:1021D000891C19601D681D60596059685960510655
:1021E0001D680D431D605D680D435D6082211965AA
:1021F0003E4E5E6519645E649866301DD8668B201D
:10220000D86398633A4D28463C3883210160D967EA
:10221000701C9867374E3849316030683060374FEE
:102220001F675F67284630380760284624380760F4
:102230006F6230460C380760304608380760301F40
:1022400007603764812070649F65DF651F665F6685
:1022500029602C682C6029612C692C6129622C6A08
:102260002C62A962A96AA962EF60B764F7641E4C88
:102270005C63596B59639C64996C9964D864294672
:1022800038390860294634390860294628390860F9
:10229000291F0860A860124B1846303818490160A1
:1022A0001846403891030160164818600D4B1846D7
:1022B0003038154901601960D00714490A68024393
:1022C0000A6013490A6A02430A620A6802430A6002
:1022D0000F2080010F4908600863F0BD0480424070
:1022E000D0120A40D0320A4081000C008200040063
:1022F000C08042401081424081000E0081000200F7
:102300000032430000724300C033C074A0330A405F
:1023100028300A40A0520A4010B511481149FEF772
:10232000FDFA0120020210490B46283B1C68944329
:102330001C600A46143A002313600A1F042313602A
:102340000A690724A2430A6122020C6994430C61C2
:102350000A689A430A600A6802430A6010BDC046D0
:1023600000000F409466000028120F4010B50D4C7D
:102370000D492046FEF708FB0C492046FEF7E2FA1D
:102380000B4841681D4A0A40111D416081681222B4
:102390000A432D218A438260016801220A430260B8
:1023A00010BDC0460080464096660000986600005A
:1023B0000491464010B50D4C0D492046FEF7E4FA55
:1023C0000C492046FEF7BEFA0B4841680B4A0A400A
:1023D000C7324260816812220A432D218A438260FB
:1023E000016801220A43026010BDC04600A04640B9
:1023F000A2660000A466000004B1464000FCFFFF96
:10240000F0B581B01F48002404600F2630021E4D35
:10241000296881430127780200900818286003206A
:10242000C1432A1F13680B4013606968B943696090
:1024300039026A688A436A6000030A212246FEF76D
:102440002DFB1248FEF7AAFA29681020014320222A
:102450009143296031036A6B8A43092109035118AA
:10246000696339032A680A432A60A96B0143A96397
:10247000686B0099084368632046FEF755FB01B07E
:10248000F0BDC04608030B4004010B40B0660000DD
:1024900010B50E4807220261036803210B43036055
:1024A0000B4B1C68640708D41C68640705D41C68BF
:1024B000640702D41C686407F3D504249C611202EB
:1024C0000368934309025918016010BD005144404C
:1024D0003050444010B5094C09492046FEF77AFCBB
:1024E00008492046FEF7D2FB0748016802220A434A
:1024F000026006480121016010BDC04600208640F0
:10250000D8660000DC66000028308640083186402E
:10251000F0B581B01D4C1E492046FEF75BFC1D49FD
:102520002046FEF729FB1C480168414A0A40026028
:10253000002500952026204631462A462B46FEF7E8
:1025400035FC204629462A46FEF722FC7D20C7009E
:10255000204639462A46FEF735FC012400940B48F4
:1025600031462A462B46FEF721FC084806462946F6
:102570002246FEF70DFC304639462246FEF722FC85
:10258000064884600321016001B0F0BD00400840AE
:10259000F0660000F466000004580840005108404E
:1025A00070B582B01E4C1F492046FEF713FC1E4931
:1025B0002046FEF7E1FA1D4801681D4A0A40026004
:1025C00000250095204629462A462B46FEF7EEFBBD
:1025D000204629462A46FEF7DBFB322120462A46C2
:1025E000FEF7F0FB01260096204629462A462B4698
:1025F000FEF7DCFB204629463246FEF7C9FB5F2189
:1026000020463246FEF7DEFB0A4886600A490A6821
:10261000022313430B600321016002B070BDC0466A
:1026200000808640FC660000006700000498864039
:102630007F00FFFF009186402890864010B5154C22
:1026400015492046FEF7F8FB14492046FEF7D0FB5B
:102650000320C103124802688A4302600169424AAA
:102660000A400A320261416936220A4309218A433B
:102670004261416801221140436893435918416007
:102680009102084B1C680C431C60016811430160F7
:1026900010BDC04600801040086700000A670000B7
:1026A000009110402890104010B5134C134920465B
:1026B000FEF7C2FB12492046FEF79AFB0320C10336
:1026C000104802688A4302600169274A0A40412192
:1026D00089005118016141691B220A4324218A4360
:1026E0004261416801221140436893435918416097
:1026F00001681143016010BD000010401467000024
:10270000166700000011104010B5134C1349204605
:10271000FEF792FB12492046FEF76AFB0320C10335
:10272000104802688A43026001690F4A0A40412149
:10273000C90051180161416935220A430A218A43BF
:102740004261416801221140436893435918416036
:1027500001681143016010BD002050402067000057
:1027600022670000003150400000FFFF80B50248A2
:102770000249FEF76AFB80BD000003402C670000A1
:1027800080B500F039F8FFF70DFDFFF739FEFFF7D0
:1027900007FFFFF7BDFEFFF79DFEFFF7BDFDFFF74B
:1027A0004DFFFFF781FFFFF7AFFFFFF7DFFDFFF7FB
:1027B00001FEFFF77FFCFFF7AFFCFFF7D7FFFFF746
:1027C00067FEFFF7D7FCB820064900220A549C2078
:1027D00005490A54242005490A5405490A54054864
:1027E000027380BD9401202050022020340120205B
:1027F0005C01202084012020F0B581B02248234ACA
:102800004260234842602348426023484260234894
:102810004260234842602348426023484260234884
:1028200042602348426023484260234E7260234D39
:102830006A60234C6260901E224B586022494860B7
:1028400022484260224A104F3A60114F3A60114FBD
:102850003A60114F3A60114F3A60114F3A60114F90
:102860003A60114F3A60114F3A60114F3A60114F80
:102870003A6032602A6022601A600A6002601020AA
:10288000FDF7D6FF01B0F0BD00080A40030000B11B
:1028900000280A4000480A40008886400048084056
:1028A0000028864000080F400088104000081040B3
:1028B000002850400088464000A8464000080040DC
:1028C00000280040000803400048444000880140C0
:1028D000010000260A480068C0B202280AD109484F
:1028E0000168491C0160084848430321C841074961
:1028F000884200D97047012080030549086070476D
:1029000020308640F4022020917EFB3A711B0D009E
:10291000B0120A4010B53C4C20681A2800DB70E069
:10292000401E182820D8C0467844007940008744CB
:102930000C3D313725464F3A582B5522284C1F3431
:102940001C40525E43495B612E00304863210022E7
:10295000FEF738FA64202060012040042C4908600A
:10296000BFF34F8FBFF36F8F10BD2A48017A43E04A
:102970002848817A40E02748417B3DE02548017D99
:102980003AE02448017B37E02248C17B34E021480B
:10299000017831E01F48817D2EE01E48417A2BE00E
:1029A0001C48417D28E01B48417C25E01948C17D39
:1029B00022E01848C1791FE0164801791CE015484B
:1029C000C17C19E01348C17816E01248C17A13E0BF
:1029D0001048817C10E00F4881790DE00D48817B23
:1029E0000AE00C48017C07E00A48817804E00948C5
:1029F000417901E00748417804480022FEF7E2F9F6
:102A00002068401E206010BD4800202000808640C5
:102A100080E100E0B40020200120C00402490860E9
:102A2000834908607047C04680E200E080B505A099
:102A3000FDF7D2FC04480068C0B20B2801D103485E
:102A4000006880BD6F6B0D002090104024911040F5
:102A5000F0B581B001204603E64F3E61902000F0C2
:102A6000B3FA0024204600F0AFFA204600F0ACFA9A
:102A7000204600F0A9FAFF24204600F0A5FA0546FA
:102A8000204600F0A1FA3E602902081801B0F0BD0E
:102A90007047000066481021016024480021017041
:102AA0007047C04680B502494843FDF7C1FE80BD6E
:102AB00080380100C2B207498A610A68D20708D08B
:102AC0000A68D20705D00A68D20702D00A68D2077E
:102AD000F3D1704708911040B0B501210B02124AA2
:102AE00054681C435460114B1C78002C08D11C788E
:102AF000002C05D11C78002C02D11C78002CF3D0BE
:102B00000B4C2568ADB205606568ADB24560A5683F
:102B1000ADB28560E46800251D70A3B2C360106883
:102B200008431060B0BDC0460011004030012020B5
:102B300080625540F0B581B000210325324E02E09D
:102B40006D1C10282BD00C4601CE304B1861AF1EE7
:102B5000B807000F2C4A10581860E81E02214140A7
:102B6000880010581860A807000F1058186005203A
:102B7000FDF75EFE26490868C00200D527460868B2
:102B8000C00100D4AF1C0868800100D4AF1D2846E6
:102B90000A30096809010146D2D53946D0E70C460A
:102BA000481E09280DD8C046784400794000874463
:102BB000041118081B1F08080D15192000014230C8
:102BC00017E0192000010021642214E019200001FF
:102BD000BB300EE019200001E6300AE00D48563007
:102BE00007E00C48B63004E0192000017B3000E01B
:102BF000084832210A4600F0BDF907A02018401EFF
:102C0000007801B0F0BDC0465466000090320A4022
:102C100080330A40BA0200003134372A3235383066
:102C20003336392341424344FD4802210160704755
:102C300000E100E08AB0FFF7A3FDE120400200F0D0
:102C4000F1F900F0E1F9FFF7EFFFFEF711FA0021CB
:102C500000912320C200F02308460C46FEF7E2F95B
:102C60000121102500940894019502910F461F2020
:102C7000C302069314264FA2304631460996FEF74A
:102C8000EBFE00A8B0C0282105914DA23046069E5B
:102C90003346FEF7E1FE079500A8B0C03C46039717
:102CA0003C214BA2099F38463346FEF7D5FE0898D3
:102CB000009001950294502147A238463346FEF712
:102CC000CBFE089C00940195039D0295642104911C
:102CD00044A2384637463346FEF7BEFE0F21204653
:102CE0000A4600F0A5F842A0FDF76EFAFFF794FE41
:102CF000FFF7D0FE28033F4908600860049D28467E
:102D0000FFF7D0FEFFF7A4FE01463B4E30803BA00C
:102D1000FDF75AFA328800970194079E0296052320
:102D200028460999FEF722FEFEF7E6FE2220FDF76F
:102D30003FFD0146344D288034A0FDF745FA2A882E
:102D4000009701940296732003230599FEF70EFE67
:102D5000089E069D314C2046FFF7BEFE216830A03C
:102D6000FDF732FAFFF7E6FE0246304802700096A1
:102D7000079C019402966427502138462B46FEF7A3
:102D800063FD264802880095019602943C210523A4
:102D900009933846FEF7EAFD20480289009501961E
:102DA00002946E203946099BFEF7E0FD3846FFF796
:102DB00079FECFE7666C6173685F69643A00000072
:102DC000656570726F6D5F307832323A00000000D6
:102DD0006164635F61313A006B6579626F6172644F
:102DE0003A0000006461635F6164635F61333A00CD
:102DF0006F6B000090320A40F80220207732357164
:102E000036343A25640D0A00B00020204154323493
:102E10004330323A25640D0A0000000020012020D2
:102E2000616463302D303A25640D0A00F1022020E0
:102E300010B54E4B4E4C1C605C609C60DC601C61AD
:102E40005C6144B2002C3AD444063CD484063ED49F
:102E5000C40640D4040742D4440744D4840746D46B
:102E6000C00701D03220D87148B2002844D44806A7
:102E700046D4880648D4C8064AD408074CD4480724
:102E80004ED4880750D4C80701D03220D87350B22E
:102E900000284ED4500650D4900652D4D00654D4B4
:102EA000100756D4500758D490075AD4D00701D0F1
:102EB0003220D875012040046249086010BD3224D8
:102EC0001C704406C2D532245C708406C0D53224FE
:102ED0009C70C406BED53224DC700407BCD53224F5
:102EE0001C714407BAD532245C718407B8D53224EA
:102EF0009C71C007B6D1B7E7322018724806B8D522
:102F0000322058728806B6D532209872C806B4D5D9
:102F10003220D8720807B2D5322018734807B0D5CE
:102F2000322058738807AED532209873C807ACD1C9
:102F3000ADE7322018745006AED532205874900692
:102F4000ACD532209874D006AAD53220D874100798
:102F5000A8D5322018755007A6D53220587590078D
:102F6000A4D532209875D007A2D1A3E7B4002020C1
:102F70004B4B4B4BF0B581B014460F4601460F4802
:102F800000F062F805460E4805606F436426384637
:102F9000314600F059F801460A4F00223846FDF745
:102FA00011FF6C432046314600F04EF801460122E5
:102FB0003846FDF707FF01B0F0BDC04650C3000022
:102FC00008580840004008400E4908630868C006D9
:102FD00008D50868C00605D50868C00602D5086887
:102FE000C006F3D4086A0A68D20608D50A68D20671
:102FF00005D50A68D20602D50A68D206F3D4C0B253
:103000007047C04610B14640044801680122114390
:10301000016050040B4908607047C0460498864020
:1030200000E100E005480168012211430160D0037E
:1030300003490860034908607047C046009110408A
:1030400080E200E000E100E043088B421AD3002256
:1030500003098B4279D3030A8B425ED3030B8B4265
:1030600042D3030C8B4227D30902FF2212BA030C6E
:103070008B4202D31212090203D0030B8B4233D3CB
:103080001AE0D3E0411A8041401C704703460B43CD
:1030900071D443088B42F5D3002203098B4254D3E9
:1030A000030A8B4239D3030B8B421DD3030C8B4293
:1030B00002D394466EE0090AC30B8B4201D3CB03C3
:1030C000C01A5241830B8B4201D38B03C01A524169
:1030D000430B8B4201D34B03C01A5241030B8B426B
:1030E00001D30B03C01A5241C30A8B4201D3CB0256
:1030F000C01A5241830A8B4201D38B02C01A52413B
:10310000430A8B4201D34B02C01A5241030A8B423D
:1031100001D30B02C01A5241CDD2C3098B4201D355
:10312000CB01C01A524183098B4201D38B01C01AD3
:10313000524143098B4201D34B01C01A524103094A
:103140008B4201D30B01C01A5241C3088B4201D3F9
:10315000CB00C01A524183088B4201D38B00C01AA6
:10316000524143088B4201D34B00C01A5241411ACD
:10317000524110007047CA0F00D04942031000D3DB
:103180004042534000229C4603098B422DD3030A40
:103190008B4212D38901FC2212BA030A8B420CD350
:1031A000890192118B4208D3890192118B4204D379
:1031B000890137D0921100E08909C3098B4201D3FC
:1031C000CB01C01A524183098B4201D38B01C01A33
:1031D000524143098B4201D34B01C01A52410309AA
:1031E0008B4201D30B01C01A5241C3088B4201D359
:1031F000CB00C01A524183088B4201D38B00C01A06
:103200005241D9D243088B4201D34B00C01A5241DC
:10321000411A00D201465241104663465B1000D36A
:103220004042704763465B1000D3404201B5002125
:10323000004201D0C9430846C046C04602BD3038EE
:103240000A2801D2012070470020704704000008BE
:10325000000000000000000200010000100000005B
:10326000000000000000000000000004040404044A
:10327000000004000014140A000000000000000018
:103280000000000A0A1F0A0A1F0A0A000000040EB2
:103290001505060C14150E0400000012150D152E50
:1032A0002C2A1200000000040A0A361515291600FF
:1032B00000020201000000000000000000100808E9
:1032C00004040404040808100002040408080808A0
:1032D000080404020000000004150E0E150400008E
:1032E0000000000008083E08080000000000000080
:1032F00000000000000202010000000000003F008A
:1033000000000000000000000000000000000200BB
:103310000000201010080804040202010000000E42
:103320001111111111110E00000000040604040413
:1033300004040E000000000E1111080402011F0019
:103340000000000E11100C1010110E0000000008FB
:103350000C0C0A091F081C000000001F01010F11BE
:1033600010110E000000000C12010D1311110E00BF
:103370000000001E10080804040404000000000EF1
:1033800011110E1111110E000000000E111119166D
:103390001009060000000000000400000000040006
:1033A0000000000000000400000004040000001001
:1033B000080402020408100000000000003F003F63
:1033C00000000000000000020408101008040200C1
:1033D0000000000E11110804040004000000001C8D
:1033E00022292D2D1D221C0000000004040C0A0AB5
:1033F0001E1233000000000F12120E1212120F00E4
:103400000000001E1101010101110E000000000F5B
:103410001212121212120F000000001F120A0E0ADE
:1034200002121F000000001F120A0E0A020207000B
:103430000000001C1201013911120C0000000033C1
:1034400012121E12121233000000001F04040404A2
:1034500004041F000000003E0808080808080809C6
:1034600007000037120A060A121237000000000790
:103470000202020202223F000000003B1B1B1B1540
:10348000151535000000003B1216161A1A12170007
:103490000000000E1111111111110E000000000F9B
:1034A00012120E02020207000000000E111111118B
:1034B00017190E180000000F12120E0A1212370010
:1034C0000000001E1101060810110F000000001F6F
:1034D0001504040404040E0000000033121212123A
:1034E00012120C000000003312120A0A0C0404002D
:1034F000000000151515150E0A0A0A000000001B31
:103500000A0A04040A0A1B000000001B0A0A0A0433
:1035100004040E000000001F0908040402121F002A
:10352000001C0404040404040404041C000002023B
:103530000404040808081010000E08080808080809
:103540000808080E00040A00000000000000000047
:103550000000000000000000000000003F02040026
:1035600000000000000000000000000000000C123D
:103570001C123C000000030202020E1212120E0086
:103580000000000000001C1202120C0000001810C5
:1035900010101C1212123C000000000000000C125F
:1035A0001E021C000000182404041E0404041E0053
:1035B0000000000000003C120C021C221C00030250
:1035C00002020E121212370000000404000006046A
:1035D00004040E000000080800000C080808080891
:1035E0000700030202021A0A060A13000000070479
:1035F0000404040404041F000000000000000F1570
:10360000151515000000000000000F1212123700FF
:103610000000000000000C1212120C00000000005C
:1036200000000F1212120E020700000000001C1210
:1036300012121C103800000000001B0602020700D6
:103640000000000000001E020C101E000000000020
:1036500004041E0404041C000000000000001B12EF
:1036600012123C000000000000001B0A0A040400C3
:1036700000000000000015150E0A0A0000000000FE
:1036800000001B0A040A1B000000000000003312A7
:10369000120C08040300000000001E0804041E00B1
:1036A0000018080808080C08080808180008080886
:1036B00008080808080808080806040404040804A0
:1036C00004040406001609000000000000000000C9
:1036D00000000000000000000000000000000000EA
:1036E0000000000008080808080808000018180072
:1036F0000000486C241200000000000000000000E0
:10370000000000002424247F1212127F12121200E3
:10371000000000081C2A2A0A0C1828282A2A1C083B
:103720000800000022251515152A5854545422006B
:10373000000000000C1212120A76252911916E0069
:103740000000060604030000000000000000000066
:103750000000402010100808080808081010204039
:1037600000000204080810101010101008080402CD
:10377000000000000008086B1C1C6B08080000001B
:103780000000000000080808087F0808080800007A
:103790000000000000000000000000000006060419
:1037A000030000000000000000FE00000000000018
:1037B00000000000000000000000000000060600FD
:1037C000000000804040202010100808040402027D
:1037D00000000000182442424242424242241800A3
:1037E00000000000080E08080808080808083E0045
:1037F000000000003C4242422020100804427E00AB
:10380000000000003C4242201820404042221C00A0
:1038100000000000203028242422227E202078006E
:10382000000000007E0202021A26404042221C00D4
:1038300000000000382402021A26424242241800E6
:10384000000000007E222210100808080808080066
:10385000000000003C4242422418244242423C0004
:1038600000000000182442424264584040241C00DA
:1038700000000000000000181800000000181800E8
:103880000000000000000000080000000000080820
:10389000040000004020100804020408102040002A
:1038A000000000000000007F0000007F000000001A
:1038B000000000000204081020402010080402004C
:1038C000000000003C424246402010100018180042
:1038D000000000001C225A555555552D42221C004F
:1038E000000000000808181414243C224242E7009B
:1038F000000000001F2222221E22424242221F00FC
:10390000000000007C4242010101010142221C0032
:10391000000000001F2242424242424242221F0057
:10392000000000003F4212121E12120242423F00EB
:10393000000000003F4212121E1212020202070093
:10394000000000003C2222010101712122221C0002
:1039500000000000E7424242427E42424242E7000B
:10396000000000003E0808080808080808083E0093
:10397000000000007C10101010101010101010111A
:103980000F0000007722120A0E0A1212222277007C
:1039900000000000070202020202020202427F004F
:1039A0000000000077363636362A2A2A2A2A6B008B
:1039B00000000000E346464A4A5252526262470003
:1039C000000000001C2241414141414141221C00B4
:1039D000000000003F424242423E02020202070053
:1039E000000000001C2241414141414D53321C6006
:1039F000000000003F4242423E1212222242C70013
:103A0000000000007C4242020418204042423E0076
:103A1000000000007F4908080808080808081C0082
:103A200000000000E74242424242424242423C0021
:103A300000000000E7424222242414141808080061
:103A4000000000006B4949494955553622222200A1
:103A500000000000E7422424181818242442E7003C
:103A600000000000772222141408080808081C002F
:103A7000000000007E2120101008040442423F0094
:103A800000007808080808080808080808080878E6
:103A90000000000202040408080810102020204042
:103AA00040001E1010101010101010101010101EDA
:103AB000000038440000000000000000000000008A
:103AC00000000000000000000000000000000000F6
:103AD000FF000608000000000000000000000000D9
:103AE00000000000000000003C4278444242FC001C
:103AF00000000000030202021A26424242261A0077
:103B000000000000000000003844020202443800B7
:103B10000000000060404040784442424264D800C7
:103B200000000000000000003C427E0202423C0017
:103B300000000000F08808087E08080808083E0019
:103B400000000000000000007C22221C023C4242D7
:103B50003C000000030202023A4642424242E700B1
:103B6000000000000C0C00000E08080808083E00C9
:103B700000000000303000003820202020202022CB
:103B80001E0000000302020272120A1612227700BF
:103B9000000000000E0808080808080808083E0091
:103BA00000000000000000007F9292929292B70005
:103BB00000000000000000003B4642424242E70095
:103BC00000000000000000003C42424242423C0033
:103BD00000000000000000001B26424242221E029C
:103BE0000700000000000000784442424244784050
:103BF000E000000000000000774C040404041F00F3
:103C000000000000000000007C42023C40423E00F8
:103C100000000000000008083E08080808083000FE
:103C20000000000000000000634242424262DC00EB
:103C30000000000000000000E742242414080800EF
:103C40000000000000000000EB4949555522220009
:103C500000000000000000007624181818246E00F0
:103C60000000000000000000E742242414180808A7
:103C700007000000000000007E22100808447E00BB
:103C80000000C0202020202010202020202020C044
:103C90000010101010101010101010101010101034
:103CA0001000060808080808100808080808080690
:103CB000000C32C200000000000000000000000004
:103CC00000000000000000000000000000000000F4
:103CD00000000000000000000000000000000000E4
:103CE00000000000000000000000000000000000D4
:103CF0000000000000000000006000600060006044
:103D000000600060006000400020002000200000F3
:103D10000000000000600060006000000000000083
:103D2000000000000060066006300398018800442F
:103D30000000000000000000000000000000000083
:103D40000000000000000000000000000000000073
:103D5000000000000000000000100210021002101D
:103D600002FE07FE0708020801080108010801FE1B
:103D700007FE070401040104010401000000000023
:103D80000000000000000040004000F00158034C1B
:103D900003CC034C0058007000E000C001C001409B
:103DA000034C035C034C034801F00040004000005A
:103DB0000000000000000000000E010A01910091C7
:103DC000009100510051003A00AE03A0025004508F
:103DD00004480448044804840284030000000000EE
:103DE00000000000000000000038006C006C006C57
:103DF000006C006C002C0098071C011A0133013381
:103E0000016301E300C308C6093C0700000000008D
:103E100000000000000C001C00100010000800044E
:103E20000000000000000000000000000000000092
:103E30000000000000000000000000000000000082
:103E4000000000000000040002000180008000402B
:103E50000040002000200020002000200020002042
:103E600000400040008000800000010002000400CB
:103E700000000000000200040008001000100020F4
:103E80000020004000400040004000400040004052
:103E900000200020001000100008000400020000B4
:103EA000000000000000000000000000004000C012
:103EB000004000460C4E0FD001F0015E0F460C4052
:103EC0000040004000000000000000000000000072
:103ED00000000000000000000000000000000040A2
:103EE000004000400040004000FE0F400040004005
:103EF0000040004000000000000000000000000042
:103F000000000000000000000000000000000000B1
:103F100000000000000000000000000000000000A1
:103F200000000000000C001C00100010000800043D
:103F30000000000000000000000000000000000081
:103F4000000000000000000000FE0700000000006C
:103F50000000000000000000000000000000000061
:103F60000000000000000000000000000000000051
:103F70000000000000000000000000000000000041
:103F800000000000001C001C001C000000000000DD
:103F90000000000000000400060002000300010011
:103FA00001800080004000400060002000200010E0
:103FB000001000080008000C0004000600020000C9
:103FC0000000000000000000000000F00098010C5C
:103FD000030C030606060606060606060606060681
:103FE0000606060C030C039801F000000000000018
:103FF000000000000000000000000040007C0060A5
:1040000000600060006000600060006000600060B0
:10401000006000600060006000FC03000000000021
:104020000000000000000000000000F80084010211
:104030000306030603000300018001C000600020A6
:10404000001000080204020602FE03000000000047
:1040500000000000000000000000007800C600869C
:1040600001860180018001C0007000800100010014
:10407000030003060306038601F8000000000000A9
:10408000000000000000000000000080018001C06E
:1040900001A001A00190018801880184018201FE34
:1040A0000F8001800180018001E007000000000016
:1040B0000000000000000000000000FC03040004F9
:1040C00000040004000400F4008C01040300030059
:1040D000030603060382018401F8000000000000CB
:1040E0000000000000000000000000E00118030CC8
:1040F000030C0004000600E60116030E0606060681
:1041000006060604060C021803F00000000000007A
:104110000000000000000000000000F8070C06048A
:1041200002040100010001800080004000400040C6
:10413000006000600060006000600000000000009F
:104140000000000000000000000000F8010C030661
:1041500006060606060C021C03F000C8010C030646
:10416000060606060606060C03F001000000000025
:104170000000000000000000000000F0000C010C36
:1041800003060206060606060606078C06780600E3
:1041900006000300030C018C017800000000000001
:1041A000000000000000000000000000000000000F
:1041B0000000000000E000E000E00000000000005F
:1041C0000000000000E000E000E00000000000004F
:1041D00000000000000000000000000000000000DF
:1041E000000000000060006000000000000000000F
:1041F000000000000000006000600040002000207F
:104200000000000000000000000004000200018027
:1042100000400020001000080004000800100020EA
:1042200000400080000001000200040000000000C7
:10423000000000000000000000000000000000007E
:104240000000000000FE07000000000000FE070064
:10425000000000000000000000000000000000005E
:104260000000000000000000000400080010002012
:1042700000400080000001000200040002000180F4
:1042800000400020001000080004000000000000B2
:104290000000000000000000000000E00318060419
:1042A0000C040C0C0C0C0C0007800140004000407A
:1042B0000000000000E000E000E00000000000005E
:1042C000000000000000000000E00018030C02CC19
:1042D0000564056605A605B604B604B604B604B6BC
:1042E00002E4010C040C021803F0000000000000BE
:1042F00000000000000000000000006000600050AE
:1043000000D00090009000880088010801F80104A6
:104310000304030402020202060F0F000000000063
:104320000000000000000000000000FE008C030CF4
:10433000030C030C030C038C01FC000C030C020C9B
:10434000060C060C060C060C03FE01000000000023
:104350000000000000000000000000E00318030C53
:10436000060C04040406000600060006000600060B
:104370000006040C040C021803F00000000000000A
:1043800000000000000000000000007F008C010C15
:10439000030C030C060C060C060C060C060C060C93
:1043A000060C060C030C038C017F000000000000CB
:1043B0000000000000000000000000FF03060306EC
:1043C000040604060086008600FE0086008600863D
:1043D000000600060406040602FF030000000000B9
:1043E0000000000000000000000000FF03060306BC
:1043F000040604060086008600FE0086008600860D
:104400000006000600060006001F00000000000075
:104410000000000000000000000000F00018010C87
:10442000020C0204020600060006000600C60F0683
:104430000306030C030C031803F000000000000047
:1044400000000000000000000000000F0F0606063C
:10445000060606060606060606FE07060606060603
:104460000606060606060606060F0F0000000000F8
:104470000000000000000000000000FC036000607D
:10448000006000600060006000600060006000602C
:10449000006000600060006000FC0300000000009D
:1044A0000000000000000000000000F807C000C08D
:1044B00000C000C000C000C000C000C000C000C0FC
:1044C00000C000C000C000C000C000C60066003CC4
:1044D0000000000000000000000000CF038601C6BD
:1044E0000046002600160036002E006E004600C66C
:1044F0000086008601060106038F07000000000009
:1045000000000000000000000000001F0006000680
:10451000000600060006000600060006000600066B
:10452000000600060406040602FF03000000000067
:10453000000000000000000000000007078603865E
:10454000038E038E034E034E034A035A035A033A63
:104550000332033203320312038707000000000016
:1045600000000000000000000000008E0F0C021C84
:10457000021C0234023402640264024402C4028453
:104580000284038403040304031F020000000000EC
:104590000000000000000000000000F00098010C86
:1045A000030C0206060606060606060606060606AC
:1045B0000606060C020C039801F000000000000043
:1045C0000000000000000000000000FF00060306DD
:1045D0000606060606060606068603FE0006000612
:1045E0000006000600060006001F00000000000094
:1045F0000000000000000000000000F00098010C26
:10460000030C02060606060606060606060606064B
:104610000676064C02CC039801F0008007000300E8
:104620000000000000000000000000FF010603067B
:10463000060606060606060603FE004600C60086B7
:104640000086010603060306060F0E0000000000A8
:104650000000000000000000000000F8020C03064B
:1046600002060206000E003C00F800E00380030092
:10467000070206020606060C03F001000000000017
:104680000000000000000000000000FE076204615E
:104690000861086000600060006000600060006009
:1046A000006000600060006000F801000000000091
:1046B00000000000000000000000001E070C020CBB
:1046C000020C020C020C020C020C020C020C020C7A
:1046D000020C020C020C021801F0000000000000A5
:1046E00000000000000000000000000F07060204A8
:1046F0000104010C010C018800880098009800500A
:104700000050007000300020002000000000000079
:104710000000000000000000000000F70E620442EC
:10472000044604460464026402E402E4029C029C1F
:1047300001980198018801880088000000000000AD
:1047400000000000000000000000009E070C0108AF
:104750000118019000B0006000200060006000D0EF
:104760000090008801080104038E0700000000008B
:1047700000000000000000000000000F0F0604040D
:10478000020C0208011801B800B00070006000605F
:10479000006000600060006000F8010000000000A0
:1047A0000000000000000000000000FC070C0206F2
:1047B0000302018001800040004000200020001022
:1047C00000180008040C040402FE030000000000AE
:1047D0000000000000E00320002000200020002056
:1047E00000200020002000200020002000200020C9
:1047F00000200020002000200020002000E0030016
:104800000000000000000000000400040008000890
:10481000001000100010002000200040004000C0E8
:104820000080008000000100010002000200020080
:1048300004000000007C00400040004000400040B8
:104840000040004000400040004000400040004068
:10485000004000400040004000400040007C00005C
:10486000000000600090000801000000000000004F
:104870000000000000000000000000000000000038
:104880000000000000000000000000000000000028
:104890000000000000000000000000000000000018
:1048A0000000000000000000000000000000000008
:1048B000000000000000000000000000000000FFF9
:1048C0000F00000000180060000000000000000061
:1048D00000000000000000000000000000000000D8
:1048E00000000000000000000000000000000000C8
:1048F00000000000000000000000000000000000B8
:104900000000000000F0010C030C030003E0031C96
:10491000030E03060306038E0B7C0E00000000004E
:1049200000000000000000000008000E000C000C59
:10493000000C000C00CC013C031C060C060C060C01
:10494000060C060C060C021C03E40100000000002B
:104950000000000000000000000000000000000057
:104960000000000000F0008C018C018601060006AA
:1049700000060006020C020C01F00000000000001E
:104980000000000000000000000002C0030003005F
:10499000030003000378038C030C030603060306DD
:1049A000030603060304038C0778010000000000DF
:1049B00000000000000000000000000000000000F7
:1049C0000000000000E001180308020C060C06FCC1
:1049D000070C000C0018041802E0010000000000A1
:1049E0000000000000000000000000C0036006306E
:1049F0000630003000FE0130003000300030003062
:104A0000003000300030003000FC010000000000E9
:104A10000000000000000000000000000000000096
:104A20000000000000F007D8068C018C018C019872
:104A300001F8000C00FC00CC03060306038E03F80B
:104A400000000000000000000008000E000C000C38
:104A5000000C000C00EC011C030C030C030C030CF9
:104A6000030C030C030C030C039E07000000000062
:104A70000000000000000000000000600060000076
:104A800000000040007C006000600060006000608A
:104A9000006000600060006000FC03000000000097
:104AA0000000000000000000000000C001C0010084
:104AB0000000000001F00180018001800180018080
:104AC00001800180018001800180018001CC007C97
:104AD00000000000000000000008000E000C000CA8
:104AE000000C000C008C038C008C004C006C005CF3
:104AF000008C008C010C010C039E070000000000DC
:104B000000000000000000000040007C0060006029
:104B10000060006000600060006000600060006095
:104B2000006000600060006000FC03000000000006
:104B30000000000000000000000000000000000075
:104B400000000000003707EE066606660666066689
:104B5000066606660666066606FF0F000000000091
:104B60000000000000000000000000000000000045
:104B70000000000000EE011C030C030C030C030CEE
:104B8000030C030C030C030C039E07000000000041
:104B90000000000000000000000000000000000015
:104BA0000000000000F00098010C0306060606064F
:104BB00006060606060C030C03F0000000000000C9
:104BC00000000000000000000000000000000000E5
:104BD0000000000000EE011C030C060C060C060C85
:104BE000060C060C060C031C03EC010C000C003E2A
:104BF00000000000000000000000000000000000B5
:104C0000000000000078028C030C03060306030674
:104C1000030603060304038C03780300030003C0A8
:104C2000070000000000000000000000000000007D
:104C300000000000009F03580638061800180018EE
:104C4000001800180018001800FF00000000000005
:104C50000000000000000000000000000000000054
:104C60000000000000F0031C030C020C023800F0EE
:104C700000C003040304038C03FC010000000000D7
:104C800000000000000000000000000000200020E4
:104C90000030003000FE01300030003000300030C5
:104CA000003000300030023002E00100000000005F
:104CB00000000000000000000000000000000000F4
:104CC00000000008028E030C030C030C030C030C01
:104CD000030C030C030C039C077801000000000088
:104CE00000000000000000000000000000000000C4
:104CF00000000000001E070C0208010801180190C6
:104D000000B000B000600060002000000000000063
:104D10000000000000000000000000000000000093
:104D20000000000000F70E6204460464026402EC16
:104D3000029C019801980198010800000000000001
:104D40000000000000000000000000000000000063
:104D50000000000000BC0718011001B000600060F6
:104D600000E0009000080108039E0700000000001A
:104D70000000000000000000000000000000000033
:104D800000000000009E0708010801080190009043
:104D900000B0006000600060002000200024001CC3
:104DA0000000000000000000000000000000000003
:104DB0000000000000FC018401C4004400600020E9
:104DC000003000180208020C03FC01000000000083
:104DD0000000000000000380008000800080008050
:104DE00000800080008000400020004000800080A3
:104DF00000800080008000800080008000000300B0
:104E000000400040004000400040004000400040A2
:104E10000040004000400040004000400040004092
:104E20000040004000400040004000400040004082
:104E300000000000000C0010001000100010001016
:104E40000010001000100020004000200010001092
:104E5000001000100010001000100010000C0000E6
:104E60000000001C002204C20480030000000000B7
:104E70000000000000000000000000000000000032
:104E80000000000000000000000000000000000022
:104E90000000000000000000000000000000000012
:104EA0000000000000000000000000000000000002
:104EB00000000000000000000000000000000000F2
:104EC00000000000000000000000000000000000E2
:104ED0000000000000000000000000C001C001C090
:104EE00001C001C001C001C00180008000800080BD
:104EF00000800080008000000000000000000080B2
:104F000001C003C003800100000000000000000099
:104F100000000000000000E01CE01CF01E700E38D5
:104F200007180308018400000000000000000000D2
:104F30000000000000000000000000000000000071
:104F40000000000000000000000000000000000061
:104F50000000000000000000000000000020102001
:104F600010201020102010FE7FFE7F100810081067
:104F7000081008100810081008FE7FFE7F080408BB
:104F800004080408040804000000000000000000F9
:104F900000000000000000000000010001C00760E8
:104FA00019103118311839183938017001E001C071
:104FB000038007000F001D003900311C311C310C2B
:104FC000310C11180DE00700010001000100000084
:104FD000000000000000000000000000001C10366F
:104FE000186308630C63046304630263026301369D
:104FF0001D9C3780228063406340632063206330C0
:105000006310221836081C00000000000000000099
:1050100000000000000000000000000000F0009808
:10502000018C018C018C018C018C00CC0078001863
:105030003E1C083608320863046304C304C30383B8
:105040004306438E26781C0000000000000000008C
:10505000000000000000001C003C003C003000305C
:105060000010000C0006000000000000000000001E
:105070000000000000000000000000000000000030
:105080000000000000000000000000000000000020
:105090000000000000000000400020001000080098
:1050A0000C0004000600030003000380018001805F
:1050B0000180018001800180018001000300030064
:1050C0000300060006000C0008001000200040004D
:1050D0000000000000000002000400080010003082
:1050E0000020006000C000C000C00080018001807E
:1050F0000180018001800180018001C000C000C0EA
:105100000060006000300010000800040002000091
:10511000000000000000000000000000000000008F
:105120000000018003800300011C713C79783DC0C0
:10513000070001C007783D3C791C710001800380A5
:1051400003800100000000000000000000000000DB
:10515000000000000000000000000000000000004F
:105160000000000001000100010001000100010039
:1051700001FC7F00010001000100010001000100AD
:10518000010000000000000000000000000000001E
:10519000000000000000000000000000000000000F
:1051A00000000000000000000000000000000000FF
:1051B00000000000000000000000000000000000EF
:1051C000001C003C003C003000300010000C0006C9
:1051D00000000000000000000000000000000000CF
:1051E00000000000000000000000000000000000BF
:1051F00000FE7F0000000000000000000000000032
:10520000000000000000000000000000000000009E
:10521000000000000000000000000000000000008E
:10522000000000000000000000000000000000007E
:105230000000000000000000000000000000001856
:10524000003C003C001800000000000000000000CE
:10525000000000000000000040006000200030005E
:105260001000180008000C000400060002000300F3
:105270000180018000C0004000600020003000106C
:1052800000180008000C00040006000200000000E6
:1052900000000000000000000000000000C00760E7
:1052A0000C30181830183018200C600C600C600C92
:1052B000600C600C600C600C600C601820183018DA
:1052C000303018600CC00700000000000000000033
:1052D000000000000000000000000000000001804D
:1052E00001F801800180018001800180018001803E
:1052F00001800180018001800180018001800180A6
:10530000018001C003F81F00000000000000000041
:1053100000000000000000000000000000E0071096
:105320001C0818043004300C300C30003000180019
:105330000800040002000180004000202010200826
:10534000200430FC1FFC1F000000000000000000D3
:1053500000000000000000000000000000E0031852
:105360000E0C0C0C180C180C180018000C0006C0C1
:1053700003000E00180010003000300C300C300C10
:10538000100C18180CE003000000000000000000E2
:1053900000000000000000000000000000000C0001
:1053A0000E000E000F800E800E400E600E200E10BC
:1053B0000E100E080E040E040EFE7F000E000E00EE
:1053C0000E000E000E000EC07F0000000000000066
:1053D00000000000000000000000000000F03FF0AE
:1053E0003F10001000100008000800C807280C1823
:1053F00018081000300030003000300C300C300441
:10540000180418080CF00300000000000000000061
:1054100000000000000000000000000000800FC03D
:1054200010203010301800180008000C008C0F6C91
:10543000183C301C600C600C600C600C601860182C
:105440002030306018C0070000000000000000009D
:1054500000000000000000000000000000F83FF81D
:105460003F1C100C080408040400040002000200A1
:105470000100010001800080008000C000C000C069
:1054800000C000C000C000000000000000000000DC
:1054900000000000000000000000000000E00730F5
:1054A0000C18180C300C300C301C3038187008E018
:1054B00007B007180E0C1C063806300630063006FA
:1054C000300C18180CE00300000000000000000081
:1054D00000000000000000000000000000E00318D1
:1054E000040C080C1806100630063006300630068C
:1054F000380C3C1836F03100300018001800180C39
:105500000C0C060C03F0010000000000000000007D
:10551000000000000000000000000000000000008B
:1055200000000000000000000000008001C003C077
:105530000380010000000000000000000000008067
:1055400001C003C003800100000000000000000053
:10555000000000000000000000000000000000004B
:105560000000000000000000000000C000C00000BB
:10557000000000000000000000000000000000002B
:10558000000000C000C0008000800040004000001B
:1055900000000000000000000000000020001000DB
:1055A000080004000600038001C0006000300018FD
:1055B000000C00180030006000C0008001000300F3
:1055C0000600040008001000200000000000000099
:1055D00000000000000000000000000000000000CB
:1055E0000000000000000000000000FE7F0000003E
:1055F00000000000000000FE7F000000000000002E
:10560000000000000000000000000000000000009A
:10561000000000000000000000000004000800106E
:105620000020006000C000800100030006000C00A4
:105630001800300018000C000600038001C0006054
:10564000002000100008000400000000000000001E
:105650000000000000000000000000C00730180833
:105660003008600C601C601C601C600030001C0076
:1056700006000180008000800080000000000080A3
:1056800001C003C003800100000000000000000012
:1056900000000000000000000000000000C00760E3
:1056A00018103018200C2F8C4D864CC64CC64C66FA
:1056B0004C66446644662666266615CC1C0C40087B
:1056C0002018303018C00700000000000000000063
:1056D00000000000000000000000000001C001C048
:1056E00001C00140016003200320032003300610A5
:1056F0000610061006F80F080C080C080C0C0C0419
:1057000018041806181F7C000000000000000000AC
:1057100000000000000000000000000000FE07186C
:105720001C183818301830183018301818180CF8A1
:1057300007181818301820186018601860186018BA
:105740006018301818FE0F00000000000000000074
:1057500000000000000000000000000000C0276002
:1057600038103018200C400C4004000600060006DB
:1057700000060006000600060006000C400C400C67
:105780002018303018C007000000000000000000A2
:1057900000000000000000000000000000FE0318F0
:1057A0000E18181830183018301860186018601863
:1057B0006018601860186018601860183018301889
:1057C000101818180EFE0300000000000000000072
:1057D00000000000000000000000000000FE3F1874
:1057E00030182018601840180018081808180CF80D
:1057F0000F180C180818081800180018001840187E
:105800004018201830FE3F0000000000000000009B
:1058100000000000000000000000000000FE7F18F3
:1058200070184018C018801800181018101818F8B0
:105830001F18181810181018001800180018001851
:1058400000180018007E00000000000000000000AA
:1058500000000000000000000000000000C0137005
:105860001C101018100C200C200400060006000666
:10587000000600060006FC063006300C300C30181E
:105880003018303008C007000000000000000000A1
:10589000000000000000000000000000003F7E0C3F
:1058A000180C180C180C180C180C180C180C180CD8
:1058B00018FC1F0C180C180C180C180C180C180CD1
:1058C000180C180C183F7E000000000000000000BB
:1058D00000000000000000000000000000F81F8031
:1058E00001800180018001800180018001800180B0
:1058F00001800180018001800180018001800180A0
:105900000180018001F81F0000000000000000007D
:1059100000000000000000000000000000E07F0028
:105920000600060006000600060006000600060047
:105930000600060006000600060006000600060037
:105940000600060006000600060E060E038E01FC89
:10595000000000000000000000000000007E7C1835
:10596000181808180418061802180198019801D888
:1059700001B803380318071806180E180C181C185D
:1059800018183018307EFC000000000000000000F5
:10599000000000000000000000000000007E001871
:1059A0000018001800180018001800180018001837
:1059B00000180018001800180018001800184018E7
:1059C0004018201830FE3F000000000000000000DA
:1059D000000000000000000000000000001FF81C94
:1059E000381C381C381C3C34343434343434367469
:1059F000326432643264326431C431C431C431C47B
:105A000030C43084309FFC00000000000000000023
:105A1000000000000000000000000000001F7C1CCF
:105A2000103C103410341074106410E410C410C40E
:105A30001184118413041304170416041E041C0497
:105A40001C041C04181F18000000000000000000C7
:105A500000000000000000000000000000C0033053
:105A60000C181808100C300C300660066006600632
:105A700060066006600660066006600C200C300858
:105A8000101818300CC003000000000000000000D7
:105A900000000000000000000000000000FE0F18E1
:105AA00018183018601860186018601860183018DE
:105AB00018F80F180018001800180018001800181F
:105AC00000180018007E0000000000000000000028
:105AD00000000000000000000000000000C00330D3
