:020000040000FA
:10000000A80120208D010000910100009301000053
:1000100000000000000000000000000000000000E0
:10002000000000000000000000000000950100003A
:10003000000000000000000097010000990100008E
:100040009B0100009B0100009B0100009B01000040
:100050009B0100009B0100009B0100009B01000030
:100060009B0100009B0100009B0100009B01000020
:100070009B0100009B0100009B0100009B01000010
:100080009B0100009B0100009B0100009B01000000
:100090009B0100009B0100009B0100009B010000F0
:1000A0009B0100009B0100009B0100009B010000E0
:1000B0009B0100009B0100009B0100009B010000D0
:1000C00000F002F800F052F812A030C808382418E6
:1000D0002D18AC4201D100F049F80FCCA246AB4636
:1000E0000CA730CF2D1B083F3F197C427F1E544484
:1000F0002D090426F441641EAC4201D300F036F809
:100100000126334200D0FB1A3343984754465D46DC
:10011000DFE700005C0400007C0400000000000039
:10012000103A02D378C878C1FAD8520701D330C840
:1001300030C101D504680C60704700000000000069
:100140007047000000000000002300240025002666
:10015000103A01D378C1FBD8520700D330C100D583
:100160000B6070471FB51FBD10B510BD00F027F81C
:100170001146FFF7F7FF00F0E3F900F03FF803B492
:10018000FFF7F2FF03BC00F045F800000648004707
:10019000FEE7FEE7FEE7FEE7FEE7FEE70348044969
:1001A000024A044B70470000C1000000A800202054
:1001B000A8012020A800202070477047704775468E
:1001C00000F024F8AE46050069465346C008C0005A
:1001D000854618B020B5FFF7E1FF60BCB6460026A3
:1001E0000027C0C5C0C5C0C5C0C5C0C5C0C5C0C545
:1001F000C0C5403D490849008D46704710B50446CA
:10020000C046C0462046FFF7BAFF10BD0048704701
:100210004800202001491820ABBEFEE7260002005E
:100220007047811E091F00BFFCD2704712490A683F
:10023000124802604A6842608A688260CA68C26086
:100240000A6902614A6942618A698261CA69C26156
:100250000A6A02624A6A42628A6A8262CA6AC2623E
:100260000A6B02634A6B42638A6B8263C96B654A9D
:100270000264C1637047C0460000C44100002020F2
:10028000F0B585B0044601252902394E3068049145
:10029000884330605A480068006C5A49884201D04F
:1002A000FFF7C4FFA9036B4802680A4208D102683D
:1002B0000A4205D102680A4202D102680A42F3D01A
:1002C000617E2940B269AA435118B1612021615C65
:1002D00003221140F36993435918F16125490A68D3
:1002E00005230B60636A1F6837625B6873620723CC
:1002F00013400B60E1697F221202F36993434906C0
:10030000490C5918F161276803956568A168009147
:10031000E3682169019161690291B269164911404E
:100320003A07120B2D03ADB2AA181A43009B1B0704
:100330001B0D1343019A1343029A1343227E1A435F
:100340000E4B13405918B1613168049A1143316062
:100350000399490202680A4208D102680A4205D19B
:1003600002680A4202D102680A42F3D005B0F0BD29
:1003700008010B40001340408D00F0FF72FF0F009A
:10038000F0B581B014460D4606461D480068006C65
:100390001C49884201D0FFF749FF1B480246083A32
:1003A000136801218B43136003231B031E4007685E
:1003B0009F43BB1903600368FF26B343EDB25B198B
:1003C000036013680B4313600268002C12D00B0704
:1003D0001A43026008021F490A68024208D10A68EB
:1003E000024205D10A68024202D10A680242F3D0F1
:1003F00001B0F0BD09078A43026001B0F0BDC046FC
:1004000044002020FECAFECA10010B4010B5394935
:100410008860012253050F4804681C4208D1046813
:100420001C4205D104681C4202D104681C42F3D06E
:1004300012040B6813430B600168C90608D40168F5
:10044000C90605D40168C90602D40168C906F3D5F6
:1004500010BDC04604020B40034800218160C1600A
:10046000016041607047C04620804240F0B581B0D5
:100470001F48002404600F2738021E4E3168814354
:10048000012568020090081830600320C143321F24
:1004900013680B4013607168A94371602902726888
:1004A0008A437260000329462246FFF769FF12481B
:1004B000FFF7E6FE316810200143202291433160AE
:1004C0003903726B8A4309210903511871632903A7
:1004D00032680A433260B16B0143B163706B0099BB
:1004E000084370632046FFF791FF01B0F0BDC0469E
:1004F00008030B4004010B404805000080B500F0E4
:1005000005F8FFF7A9FFFFF7B1FF80BD80B50748E9
:1005100007494160074A5160074B5960074901602C
:10052000116019601020FFF77CFE80BD00080A40B2
:10053000030000B100280A4000480A4001000026DC
:10054000FFF7DCFFFEE700000100000000000000F4
:10055000000000000000000000000000100000008B
:100560000001000003000000000000003400C4414E
:10057000900500000000202048000000200100003D
:10058000D80500004800202060010000480100005C
:10059000000000000000000000000000000000005B
:1005A000000000000000000000000000000000004B
:1005B000000000000000000000000000000000003B
:1005C000000000000000000000000000000000002B
:0805D0000000000000002020E3
:04000005000000C136
:00000001FF
