:020000040000FA
:10000000602220206D0100007101000073010000DA
:1000100000000000000000000000000000000000E0
:10002000000000000000000000000000750100005A
:1000300000000000000000007701000079010000CE
:100040007B0100007B0100007B0100007B010000C0
:100050007B0100007B0100007B0100007B010000B0
:100060007B0100007B0100007B0100007B010000A0
:100070007B0100007B0100007B0100007B01000090
:100080007B0100007B0100007B0100007B01000080
:100090007B0100007B0100007B0100007B01000070
:1000A0007B0100007B0100007B0100007B01000060
:1000B0007B0100007B0100007B0100007B01000050
:1000C00000F002F800F042F812A030C808382418F6
:1000D0002D18AC4201D100F039F80FCCA246AB4646
:1000E0000CA730CF2D1B083F3F197C427F1E544484
:1000F0002D090426F441641EAC4201D300F026F819
:100100000126334200D0FB1A3343984754465D46DC
:10011000DFE70000041800002418000000000000C1
:100120007047000000000000002300240025002686
:10013000103A01D378C1FBD8520700D330C100D5A3
:100140000B6070471FB51FBD10B510BD00F0DDF886
:100150001146FFF7F7FF01F069F800F0F5F803B476
:10016000FFF7F2FF03BC00F0FBF800000648004771
:10017000FEE7FEE7FEE7FEE7FEE7FEE70348044989
:10018000024A044B70470000C100000060022020BA
:100190006022202060022020002203098B422CD301
:1001A000030A8B4211D300239C464EE003460B43C7
:1001B0003CD4002243088B4231D303098B421CD329
:1001C000030A8B4201D394463FE0C3098B4201D31B
:1001D000CB01C01A524183098B4201D38B01C01A53
:1001E000524143098B4201D34B01C01A52410309CA
:1001F0008B4201D30B01C01A5241C3088B4201D379
:10020000CB00C01A524183088B4201D38B00C01A25
:10021000524143088B4201D34B00C01A5241411A4C
:1002200000D201465241104670475DE0CA0F00D02F
:100230004942031000D3404253409C460022030928
:100240008B422DD3030A8B4212D38901FC2212BAAE
:10025000030A8B420CD3890192118B4208D3890186
:1002600092118B4204D389013AD0921100E089099E
:10027000C3098B4201D3CB01C01A524183098B427F
:1002800001D38B01C01A524143098B4201D34B0168
:10029000C01A524103098B4201D30B01C01A5241CB
:1002A000C3088B4201D3CB00C01A524183088B4252
:1002B00001D38B00C01A5241D9D243088B4201D3DB
:1002C0004B00C01A5241411A00D201465241104619
:1002D00063465B1001D34042002B00D54942704772
:1002E00063465B1000D3404201B50549002802DC9B
:1002F000491C084000E00846C046C04602BD00BF99
:10030000FFFFFF7F704770477047754600F024F885
:10031000AE46050069465346C008C000854618B081
:1003200020B5FFF72BFF60BCB64600260027C0C5EE
:10033000C0C5C0C5C0C5C0C5C0C5C0C5C0C5403D9D
:10034000490849008D46704710B50446C046C0466E
:100350002046FFF704FF10BD00487047C801202069
:1003600001491820ABBEFEE726000200704730B5F9
:100370008C180278401C13071B0F01D10378401C16
:10038000120906D10278401C03E00578401C0D706C
:10039000491C5B1EF9D101E00B70491C521EFBD1B8
:1003A000A142E6D3002030BD83B0029001910092BB
:1003B000029801990843009908430549086003B071
:1003C0007047C04602480068072108407047C04691
:1003D0000013404082B001900199881E001F00BFA9
:1003E000FCD2009002B0704784B003900291019259
:1003F0000398006800900098019988430090009845
:100400000299019A114008430399086004B07047AB
:1004100084B00390029101920398006800900098C4
:1004200001998843009000980299019A114008436D
:100430000399086004B0704784B003900291019260
:1004400003980068009000980199884300900098F4
:100450000299019A114008430399086004B070475B
:100460001948006819490860194800684860194827
:100470000068886018480068C8601848006808610B
:100480001748006848611748006888611648006886
:10049000C861164800680862154800684862154837
:1004A0000068886214480068C862144800680863DD
:1004B000134800684863134800688863124800685E
:1004C000C8631248086470470000C441000020203F
:1004D0000400C4410800C4410C00C4411000C441E0
:1004E0001400C4411800C4411C00C4412000C44190
:1004F0002400C4412800C4412C00C4413000C44140
:100500003400C4413800C4413C00C441FECAFECAA4
:1005100003480068006C0349401841424841704755
:10052000440020200235013582B0019000910098EE
:10053000019995225201885002B0704782B0019013
:1005400000910098019995225201885002B070479D
:1005500082B00190009100980199024A885002B03F
:100560007047C046D012000081B000900099012071
:10057000C2022748885001B07047C04681B0009041
:10058000009881000D4A8120885001B07047C04614
:1005900081B0009000988100084A0020885001B086
:1005A0007047C04682B001900091009880210843B6
:1005B00001998900014A885002B070470480424086
:1005C00081B000900099294A2948885001B07047AD
:1005D00082B00190009100980199024A885002B0BF
:1005E0007047C0469012000081B0009000991A4AEE
:1005F000885801231843885001B0704781B000909B
:1006000000990120C2020248885001B07047C046DC
:100610000100002680B582B001900091019811215F
:1006200009024018009A118953881943927911439D
:10063000084AFFF7EDFE019807494018009A918893
:10064000D3791943127811435D229200FFF7E0FE3F
:1006500002B080BD7F3300000411000081B0009023
:100660000099024A0248885001B07047040800000F
:10067000030000B180B582B0019000910198044957
:1006800040180099034AFFF7AFFE02B080BDC04694
:1006900008110000FF03000082B001900091009853
:1006A00000780199044A8850009840780199012205
:1006B0001203885002B070470410000080B584B067
:1006C00000920A4601460098039102A90A7001AA05
:1006D00010700398044BC0180978127811433F2218
:1006E000FFF782FE04B080BD0C11000082B00190C3
:1006F000684601700078019945229201885002B045
:100700007047000080B586B0059000F093F8FFF7C1
:10071000FFFE002803D1FFE7FFF7A2FEFFE7FFE798
:1007200000F0A8F8012189030840884201D0FFE7C2
:10073000F6E70598417E2B48029001220392FFF7CD
:100740007BFE05982021415C274801900322FFF79A
:1007500073FEFFF737FE014603980491002104223F
:10076000FFF722FE01980599496A09681F4A11603E
:100770000599496A49681E4A116004991D4A116029
:100780000599C9694906490C7F221202FFF754FEF8
:100790000298059A11680907090B53681B039BB25D
:1007A000C91893681B071B0DC918D368194313692F
:1007B000194353691943127E11430F4AFFF73CFE58
:1007C000039A5E490868120210430860FFE700F0D0
:1007D00051F8012149020840884201D0FFE7F6E7BD
:1007E00006B080BD20010B4024010B4028010B40C6
:1007F0002C010B400013404072FF0F005C49086859
:1008000001221207904308607047C0464B490868B0
:1008100001229043086070474849086801229043CC
:100820000860704745490868012212029043086039
:100830007047C0464149086801221202904308608F
:100840007047C0464A4908680122120710430860F1
:100850007047C046744908680122120310430860BB
:100860007047C0460249086810221043086070476C
:100870003C010B40014800687047C04604020B4031
:1008800081B001466846017000780249086001B0F5
:100890007047C04608030B4080B582B0014601A8EE
:1008A000018001880F2002025F48FFF79DFD02B022
:1008B00080BDC04680B582B0014601A801700078B5
:1008C00001030F2002033848FFF78EFD02B080BD00
:1008D00080B584B003AB1880029101A80270FFF7C5
:1008E00017FE002803D1FFE7FFF7BAFDFFE7FFF788
:1008F00093FF03A8008800F023F8029800F02EF878
:100900000E49086801221043086001A80078C0075A
:1009100000280DD0FFE7FFF795FFFFE7FFF7AAFFDD
:10092000012109020840884201D0FFE7F6E702E012
:10093000FFF764FFFFE704B080BDC04608010B402D
:1009400080B582B0014601A801800188032002031E
:100950000748FFF771FD02B080BDC04680B582B088
:10096000019001990248FF22FFF766FD02B080BDA9
:1009700010010B4081B001466846017000780249C1
:10098000086001B07047C0460C010B4080B582B0D2
:10099000014601A801800188012042020248FFF7B8
:1009A00023FD02B080BDC04638010B4080B582B047
:1009B000014601A80170017802480322FFF714FDE7
:1009C00002B080BD00010B4080B582B0014601A895
:1009D0000170017814483022FFF706FD02B080BD97
:1009E00080B582B0014601A801700078FFF7C2FF10
:1009F000FFE7FFF73FFF012149050840884201D08A
:100A0000FFE7F6E70849086801221204104308606E
:100A1000FFE7FFF72FFF10210840102801D0FFE764
:100A2000F7E702B080BDC04604010B4082B00190E0
:100A3000009100980199024A885002B07047C04660
:100A40004810000081B0009000990120C2020248C5
:100A5000885001B07047C0460100002681B0009068
:100A600000980349405804210840800801B07047AD
:100A70003010000081B000900099024A024888506E
:100A800001B0704704080000010000B180B584B0D7
:100A9000019101460198039102A90870039811225F
:100AA0001202801809780322FFF79EFC04B080BD73
:100AB00082B001906846017000780199014A88501F
:100AC00002B070471011000080B584B0019101465A
:100AD0000198039102A9087003981122120280184C
:100AE0000978090207221202FFF77EFC04B080BDDC
:100AF00080B584B003A900200870FFE703A8007840
:100B0000072828DCFFE70398B030C0B2002101912C
:100B100000F03EFA0199022000F03AFA0199102003
:100B200000F036FA019802A90870FFE702A80078E1
:100B30007F280ADCFFE70020012100F029FAFFE707
:100B40000298401C02A90870F0E7FFE70398401CD8
:100B500003A90870D2E704B080BD80B582B08D20B3
:100B60000021019100F014FA0199142000F010FA0C
:100B70000199AF2000F00CFA02B080BD80B586B0BC
:100B800000F038FA4248FFF725FCAE20002105911D
:100B900000F0FEF905990220029000F0F9F905999C
:100BA000102000F0F5F905994020019000F0F0F9CF
:100BB0000599812000F0ECF90599CF2000F0E8F9C3
:100BC0000599A12000F0E4F90599C82000F0E0F9AA
:100BD0000599A620039000F0DBF90599A82000F004
:100BE000D7F905993F2000F0D3F90599D32000F0FB
:100BF000CFF90599084600F0CBF90599D52000F00A
:100C0000C7F90599802000F0C3F90599D92000F0B3
:100C1000BFF90599F12000F0BBF90599DA2000F041
:100C2000B7F90599122000F0B3F90599DB2000F01F
:100C3000AFF90198059900F0ABF90599202000F073
:100C4000A7F90298059900F0A3F905998D2000F005
:100C50009FF90599142000F09BF90599A42000F054
:100C600097F90398059900F093F90599AF2004903E
:100C700000F08EF90498059900F08AF9FFF738FF23
:100C8000FFF76BFF0599084600F004F806B080BD39
:100C900000127A0080B584B003AA0092107002A8F6
:100CA00001700298B030C0B20021019100F070F9DB
:100CB0000098019900780009103000F069F9019955
:100CC0000398012210430F22104000F061F904B094
:100CD00080BD000080B586B00B46014605A80170B6
:100CE00004A90B7003AB1A7001AB002200921A70BA
:100CF00000780978FFF7CEFF009802A90870FFE797
:100D000002A800780F2815DCFFE703A8007881010E
:100D10001D48401802A90978405C012100F038F90B
:100D20000198401C01A90870FFE70298401C02A925
:100D30000870E5E705A800780499491CC9B2FFF7D7
:100D4000A9FF02A900200870FFE702A800780F2879
:100D500017DCFFE703A8007881010B48401802A9BF
:100D6000097840182021405C012100F011F9019818
:100D7000401C01A90870FFE70298401C02A90870F6
:100D8000E3E706B080BDC0464800202080B586B0AD
:100D9000034605A8037004AB197003A90A7002AAE0
:100DA0000021117001AB197003992039117000787E
:100DB000802808DBFFE705A9002008700498801C44
:100DC00004A90870FFE705A8007804A90978FFF7CF
:100DD00061FF01A900200870FFE701A8007807283B
:100DE00011DCFFE702A80078000101A90978411889
:100DF0001748405C012100F0CBF8FFE70198401C48
:100E000001A90870E9E705A800780499491CC9B24E
:100E1000FFF740FF01A900200870FFE701A8007854
:100E2000072812DCFFE702A80078000101A9097871
:100E3000401807494018007A012100F0A9F8FFE79F
:100E40000198401C01A90870E8E706B080BDC046C3
:100E5000E4120000B0B58AB004460E9809AD2C70BB
:100E600008AC2170079206A90B7005A9087002A9A9
:100E70000020087004A90870FFE704A8007806A9FC
:100E8000097888424EDAFFE707980090069904989F
:100E9000C0434018C1B20A20019000F00BFA01468D
:100EA0000098FFF779F90199FFF776F903A8017027
:100EB00002A80078002820D1FFE704A8007806A93E
:100EC0000978491E884218DAFFE703A8007800284D
:100ED0000ED1FFE7099805A909784A0804995143FA
:100EE000401808A90978C0B22022FFF74FFF14E08C
:100EF00002A901200870FFE7FFE7099805A9097812
:100F00004A0804995143401808A90978039A3032D5
:100F1000C0B2D2B2FFF73AFFFFE70498401C04A921
:100F20000870AAE70AB0B0BD80B586B005AB1870EE
:100F300004A80170039202A900200870FFE703983B
:100F400002A90978405C002820D0FFE705A801909D
:100F5000007804A90978039A02AB1B78D25CFFF7EA
:100F600015FF01980599083101700078792808DB90
:100F7000FFE705A9002008700498801C04A90870E8
:100F8000FFE70298401C02A90870D8E706B080BDB0
:100F900080B586B005AA107004A8017000780028FA
:100FA00006D0FFE7012001029248FFF711FB05E0A0
:100FB000012001028F48FFF7B7FAFFE701200190F7
:100FC000410200918B480290FFF7AEFA05A8017824
:100FD0008948FFF78BFB1E20FFF7FCF90099029868
:100FE000FFF7F6FA019902980902FFF7F1FA06B045
:100FF00080BDC04680B584B06420019000F000F947
:101000000120C10503917A480290FFF7E1FA0198A7
:1010100000F0F6F802980399FFF786FA019800F0BD
:10102000EFF802980399FFF7D3FA04B080BDC046E9
:1010300080B586B00920FFF7ABFA0A20FFF7A8FABF
:101040000F200B210191FFF7ADFA01990E20FFF758
:10105000A9FA3220FFF792FA5520FFF78FFA5620AF
:10106000FFF78CFA0120C105039161480290FFF758
:1010700065FA02980399FFF76BFA032001020591C4
:101080005C480490FFF75AFA04980599FFF760FA54
:1010900006B080BD80B582B00B4957480190FFF77C
:1010A000FBFA01980949FFF7B5FA01980121FFF70A
:1010B000E1FA019810210222FFF700FB0198FFF7E7
:1010C00093FA02B080BDC046D4180000D6180000C4
:1010D00080B582B000200190FFF7D2FB01204002D2
:1010E0000090FFF7D9FB0198FFF760FCFFF78EFB3C
:1010F000FFF798FB019A032000030A21FFF7E8FBA2
:101100000A48FFF7FFFA1020FFF75EFC0920FFF7FF
:10111000D1FBFFF79FFBFFF7A5FB0098FFF736FC1D
:101120000198FFF75DFC02B080BDC046E0180000EA
:1011300080B582B0314801900721FFF7B9FC0198D2
:101140000321FFF7A3FCFFE72C48FFF787FC0028EB
:1011500001D1FFE7F8E7294800900421FFF766FC7A
:1011600000980321FFF7B0FC02B080BD80B500F00D
:1011700013F8FFF75DFFFFF7ABFFFFF78BFFFFF7FC
:10118000D7FF03492422002088540249087380BDF8
:10119000280220205002202080B586B013480190FC
:1011A000FFF70EFA12480290FFF70AFA114803906F
:1011B000FFF706FA10480490FFF750FA0F48059021
:1011C000FFF758FC0198FFF7CFF90298FFF7CCF929
:1011D0000398FFF7C9F90498FFF710FA0598FFF78D
:1011E00031FC1020FFF7F6F806B080BD00000A4081
:1011F00000200A4000400A40008046400040444031
:1012000080B582B0019001997D20C000484300F074
:1012100002F802B080BD80B582B0019001995020E3
:101220004843FFF7D7F802B080BD000080B586B014
:10123000002001900590FFF799FFFFF79FFCFFF753
:1012400057FC0199194A0846FFF76EFE01980221E2
:1012500003914122FFF79AFD03991020029000901C
:101260001420134A04230493FFF7F4FD019A049910
:101270001046FFF72FFD029804990122FFF72AFD7F
:10128000039A04992020FFF725FD049930200322BA
:10129000FFF720FD049A40201146FFF71BFD04993B
:1012A00050200522FFF716FDFFE7FEE708190000B2
:1012B000D204000083B002AA107001A801700120BE
:1012C0000090FFE701AA1078411E1170002806D097
:1012D000FFE702A80078009948430090F2E70098E1
:1012E00003B0704700000000000000000000000094
:1012F00000000000000000F80000000000000033C3
:101300003000000000100C06100C06000000000069
:101310000000000040C07840C0784000043F040452
:101320003F040400007088FC08300000001820FF13
:10133000211E0000F008F000E018000000211C034E
:101340001E211E0000F00888700000001E212324CA
:101350001927211010160E000000000000000000E8
:1013600000000000000000E0180402000000000778
:101370001820400000020418E0000000004020187F
:1013800007000000404080F0804040000202010F52
:1013900001020200000000F0000000000101011F36
:1013A00001010100000000000000000080B070009A
:1013B000000000000000000000000000000101012A
:1013C00001010101000000000000000000303000B9
:1013D0000000000000000000806018040060180693
:1013E0000100000000E010080810E000000F1020CD
:1013F00020100F00001010F8000000000020203F17
:1014000020200000007008080888700000302824A0
:101410002221300000300888884830000018202041
:1014200020110E000000C02010F800000007042466
:10143000243F240000F808888808080000192120AB
:1014400020110E0000E0108888180000000F112005
:1014500020110E0000380808C83808000000003FBE
:10146000000000000070880808887000001C22211D
:1014700021221C0000E010080810E00000003122CA
:1014800022110F00000000C0C0000000000000306A
:1014900030000000000000800000000000008060BC
:1014A000000000000000804020100800000102043D
:1014B0000810200040404040404040000404040424
:1014C00004040400000810204080000000201008E0
:1014D00004020100007048080808F0000000003015
:1014E00036010000C030C828E810E00007182724A3
:1014F00023140B000000C038E0000000203C230251
:101500000227382008F8888888700000203F2020B3
:1015100020110E00C03008080808380007182020E5
:101520002010080008F808080810E000203F2020DC
:1015300020100F0008F88888E8081000203F2020BD
:101540002320180008F88888E8081000203F2000B1
:1015500003000000C03008080838000007182020E9
:10156000221E020008F808000008F808203F2101A8
:1015700001213F20000808F8080800000020203F53
:101580002020000000000808F8080800C0808080C3
:101590007F00000008F888C028180800203F2001BC
:1015A0002638200008F8080000000000203F202016
:1015B0002020300008F8F800F8F80800203F003F2D
:1015C000003F200008F830C00008F808203F200045
:1015D00007183F00E01008080810E0000F10202056
:1015E00020100F0008F808080808F000203F21012B
:1015F00001010000E01008080810E0000F18242482
:1016000038504F0008F8888888887000203F2000F4
:10161000030C3020007088080808380000382021AA
:1016200021221C00180808F8080818000000203FB4
:101630002000000008F808000008F808001F20201B
:1016400020201F000878880000C8380800000738EC
:101650000E010000F80800F80008F800033C07003D
:10166000073C0300081868808068180820302C03A5
:10167000032C30200838C800C83808000000203F7C
:101680002000000010080808C8380800203826216B
:1016900020201800000000FE020202000000007F6F
:1016A00040404000000C30C000000000000000017D
:1016B0000638C00000020202FE0000000040404068
:1016C0007F0000000000040202020400000000008D
:1016D000000000000000000000000000808080800A
:1016E00080808080000202040000000000000000F2
:1016F000000000000000808080800000001924228B
:1017000022223F2008F8008080000000003F1120C6
:1017100020110E000000008080800000000E1120CB
:1017200020201100000000808088F800000E1120A9
:1017300020103F200000808080800000001F2222B7
:1017400022221300008080F0888888180020203F23
:10175000202000000000808080808000006B949436
:101760009493600008F8008080800000203F2100F2
:1017700000203F2000809898000000000020203FBB
:1017800020200000000000809898000000C08080A9
:10179000807F000008F8000080808000203F240245
:1017A0002D302000000808F8000000000020203F35
:1017B000202000008080808080808000203F2000EA
:1017C0003F20003F8080008080800000203F21007B
:1017D00000203F200000808080800000001F20202B
:1017E00020201F00808000808000000080FFA1205A
:1017F00020110E000000008080808000000E11206B
:1018000020A0FF80808080008080800020203F21F9
:1018100020000100000080808080800000332424AC
:1018200024241900008080E0808000000000001F58
:10183000202000008080000000808000001F202009
:1018400020103F20808080000080808000010E30CA
:101850000806010080800080008080800F300C032B
:101860000C300F0000808000808080000020312E2E
:101870000E312000808080000080808080818E700A
:101880001806010000808080808080000021302CBC
:101890002221300000000000807C020200000000D5
:1018A000003F404000000000FF000000000000007A
:1018B000FF0000000002027C800000000040403F6A
:1018C00000000000FFFFFFFFFFFFFFFFFFFFFFFF24
:1018D000FFFFFFFF080004000001000007100000E8
:1018E00001000000000000000000000000000000F7
:1018F00000000000100000000001000003000000D4
:10190000000000003400C44148656C6C6F204F4CEF
:10191000454421000000000038190000000020208C
:10192000C80100006E030000001A0000C80120205A
:1019300098200000280100000147001212202020FA
:1019400020242424A4242420FF20222C2020001042
:101950001240C07E40403F222220030C102040F85D
:101960000E141060020CC0021EE2020202E21E000F
:10197000101504047C0380804020130C1320408049
:10198000800C13FC4444444546444444447C0F16B4
:101990004020180700FC44444444444444FC0A15D5
:1019A0007F494949494949497F0010128141211D18
:1019B000214181FF898989898981813A2424A4FE72
:1019C000A3220022CC0215FF25080601FF0B1201FD
:1019D0000404040404FF020202001012101010FF9D
:1019E000109008888888FF888888080010120444AE
:1019F000827F01808040432C1028468180000000B7
:04000005000000C136
:00000001FF
