:020000040800F2
:10000000B8F901203D1000084510000865C200083D
:10001000491000084B1000084D10000800000000B7
:100020000000000000000000000000004F10000869
:10003000511000080000000075030008DDB201083F
:10004000571000085710000857100008D18D0108FC
:1000500057100008571000085710000857100008E4
:1000600057100008571000085710000857100008D4
:100070005710000857100008419E0008799E00089C
:1000800057100008571000085710000857100008B4
:1000900057100008571000085710000857100008A4
:1000A000571000083DB501085710000871B4010849
:1000B0005710000821B60108C5B6010857100008FE
:1000C0005710000857100008571000085710000874
:1000D00057100008C1C90108571000082DCA0108AF
:1000E000571000082D880108571000085710000805
:1000F0005710000857100008571000085710000844
:1001000057100008BD99010801B7010857100008F1
:10011000571000085710000899B7010825B80108C2
:1001200057100008B19E000857100008571000082B
:100130005710000825AB000857100008571000089A
:10014000571000085710000857100008797C010864
:1001500057100008571000085710000857100008E3
:1001600057100008571000085710000857100008D3
:1001700057100008571000087D9D00085710000810
:10018000571000085710000800F002F800F0B2F80D
:100190000AA090E8000C82448344AAF10107DA45E2
:1001A00001D100F0A7F8AFF2090EBAE80F0013F082
:1001B000010F18BFFB1A43F00103184730FA08007B
:1001C00050FA08000A444FF0000C10F8013B13F0FD
:1001D000070408BF10F8014B1D1108BF10F8015BA0
:1001E000641E05D010F8016B641E01F8016BF9D193
:1001F00013F0080F1EBF10F8014BAD1C0C1B09D1EA
:100200006D1E58BF01F801CBFAD505E014F8016B5B
:1002100001F8016B6D1EF9D59142D6D370470000ED
:100220000023002400250026103A28BF78C1FBD8FF
:10023000520728BF30C148BF0B6070476E2902F0DB
:100240007D86702902F0638766292CF054A1652908
:100250002CF051A167292CF04EA16129AFF3008049
:1002600003681B0A28BF41F08001692902F02A8631
:10027000642902F02786752902F024866F2902F08E
:10028000F086782902F02F87E92903F0B186E42966
:1002900003F0AE86F52903F0AB86EF2902F0ED8678
:1002A000F82902F02E870368DB0928BF41F080019E
:1002B000632903F06886732903F06D86E32903F050
:1002C0008B86F32903F09086002070471FB56CF0F1
:1002D000FCF804F003F80400002000216BF0ACF8F7
:1002E000401C6060002000216BF090F8E0601FBDB2
:1002F00010B510BD04F004FB1146FFF7E7FF49F00D
:1003000035F904F09FFD03B4FFF7F2FF03BC24F0BE
:100310002BFD000030BF72B6704762B6704780F3A5
:1003200008887047EFF3108072B6704780F310882A
:100330007047264C4FF6FF7525604FF0000484F39C
:100340000988234C4FF001052570224C4FF0805551
:10035000256062B6FEE730B41E4C4FF08055256034
:1003600030BC704730B41B4C4FF08055256030BC1A
:10037000704700BF72B6EFF3098050B11EF0100F46
:1003800008BF20ED108A203880E8F00F1249096874
:10039000086000B5114880475DF804EB104811492A
:1003A0000A7802700C4810490A680260106890E8E8
:1003B000F00F20301EF0100F08BFB0EC108A80F351
:1003C00009884EF0040E62B6704700BF22ED00E0CF
:1003D0007F04002004ED00E09804002071760108FD
:1003E0007C0400207D040020A004002081FB00206C
:1003F000704701464FF0000081EAE170A0EBE17028
:10040000704700002DE9F04F82B001904FF000746A
:100410004FF000784FF000054FF0000952F804CB80
:1004200052F804EB0868CB6DC0FB0C45D1F8800096
:10043000CEF1000EC3FB0E45D1F8DC30C0FB0C89B9
:10044000C3FB0E8952F804CB52F804EB48688B6D5D
:10045000C0FB0C45D1F88400CEF1000EC3FB0E4565
:10046000D1F8D830C0FB0C89C3FB0E8952F804CBFD
:1004700052F804EB88684B6DC0FB0C45D1F888003E
:10048000CEF1000EC3FB0E45D1F8D430C0FB0C8971
:10049000C3FB0E8952F804CB52F804EBC8680B6D0D
:1004A000C0FB0C45D1F88C00CEF1000EC3FB0E450D
:1004B000D1F8D030C0FB0C89C3FB0E8952F804CBB5
:1004C00052F804EB0869CB6CC0FB0C45D1F89000E6
:1004D000CEF1000EC3FB0E45D1F8CC30C0FB0C8929
:1004E000C3FB0E8952F804CB52F804EB48698B6CBD
:1004F000C0FB0C45D1F89400CEF1000EC3FB0E45B5
:10050000D1F8C830C0FB0C89C3FB0E8952F804CB6C
:1005100052F804EB88694B6CC0FB0C45D1F898008D
:10052000CEF1000EC3FB0E45D1F8C430C0FB0C89E0
:10053000C3FB0E8952F804CB52F804EBC8690B6C6C
:10054000C0FB0C45D1F89C00CEF1000EC3FB0E455C
:10055000D1F8C030C0FB0C89C3FB0E8901984FF461
:10056000FE4E4EF0FF0E4FEA946444EA85144FEAC3
:10057000E47CBCEBE43F18BF8CEA0E044FEA9868B9
:1005800048EA89184FEAE87CBCEBE83F18BF8CEAE0
:100590000E080480A0F8028002F5707201F5805107
:1005A0004FF000744FF000784FF000054FF0000955
:1005B00052F804CB0868D1F88030C0FB0C45C3FB6F
:1005C0000C8952F804CB4868D1F88430C0FB0C4544
:1005D000C3FB0C8952F804CB8868D1F88830C0FB83
:1005E0000C45C3FB0C8952F804CBC868D1F88C3099
:1005F000C0FB0C45C3FB0C8952F804CB0869D1F849
:100600009030C0FB0C45C3FB0C8952F804CB486901
:10061000D1F89430C0FB0C45C3FB0C8952F804CBD5
:100620008869D1F89830C0FB0C45C3FB0C8952F89F
:1006300004CBC869D1F89C30C0FB0C45C3FB0C89C6
:1006400001984FF4FE4E4EF0FF0E4FEA946444EAD8
:1006500085144FEAE47CBCEBE43F18BF8CEA0E043F
:100660004FEA986848EA89184FEAE87CBCEBE83F13
:1006700018BF8CEA0E08A0F84040A0F84280A2F50E
:100680007872A1F570614FF00F0C00F10400CDF805
:1006900000C001904FF000744FF000784FF00076EA
:1006A0004FF0007A4FF000054FF000094FF00007BF
:1006B0004FF0000B52F804CB52F804EB0868CB6DF6
:1006C000C0FB0C45C0FB0E67CEF1000EC3FB0C67F0
:1006D000C3FB0E45D1F8DC30D1F88000C3FB0E8996
:1006E000C3FB0CABCEF1000EC0FB0C89C0FB0EAB04
:1006F00052F804CB52F804EB48688B6DC0FB0C45F4
:10070000C0FB0E67CEF1000EC3FB0C67C3FB0E45AA
:10071000D1F8D830D1F88400C3FB0E89C3FB0CABF1
:10072000CEF1000EC0FB0C89C0FB0EAB52F804CB1F
:1007300052F804EB88684B6DC0FB0C45C0FB0E679C
:10074000CEF1000EC3FB0C67C3FB0E45D1F8D430CD
:10075000D1F88800C3FB0E89C3FB0CABCEF1000EB1
:10076000C0FB0C89C0FB0EAB52F804CB52F804EB73
:10077000C8680B6DC0FB0C45C0FB0E67CEF1000EC8
:10078000C3FB0C67C3FB0E45D1F8D030D1F88C0009
:10079000C3FB0E89C3FB0CABCEF1000EC0FB0C8972
:1007A000C0FB0EAB52F804CB52F804EB0869CB6CDB
:1007B000C0FB0C45C0FB0E67CEF1000EC3FB0C67FF
:1007C000C3FB0E45D1F8CC30D1F89000C3FB0E89A5
:1007D000C3FB0CABCEF1000EC0FB0C89C0FB0EAB13
:1007E00052F804CB52F804EB48698B6CC0FB0C4503
:1007F000C0FB0E67CEF1000EC3FB0C67C3FB0E45BA
:10080000D1F8C830D1F89400C3FB0E89C3FB0CAB00
:10081000CEF1000EC0FB0C89C0FB0EAB52F804CB2E
:1008200052F804EB88694B6CC0FB0C45C0FB0E67AB
:10083000CEF1000EC3FB0C67C3FB0E45D1F8C430EC
:10084000D1F89800C3FB0E89C3FB0CABCEF1000EB0
:10085000C0FB0C89C0FB0EAB52F804CB52F804EB82
:10086000C8690B6CC0FB0C45C0FB0E67CEF1000ED7
:10087000C3FB0C67C3FB0E45D1F8C030D1F89C0018
:10088000C3FB0E89C3FB0CABCEF1000EC0FB0C8981
:10089000C0FB0EAB01F5807101984FF4FE4E4EF097
:1008A000FF0E4FEA946444EA85144FEAE47CBCEB03
:1008B000E43F18BF8CEA0E044FEA986848EA8918AA
:1008C0004FEAE87CBCEBE83F18BF8CEA0E084FEA21
:1008D000966646EA87164FEAE67CBCEBE63F18BF11
:1008E0008CEA0E064FEA9A6A4AEA8B1A4FEAEA7CC9
:1008F000BCEBEA3F18BF8CEA0E0ADDF800C000EB43
:10090000CC0E2EF8026B2EF802AB20F8024B20F82A
:10091000028BBCF1010C7FF4BAAE02B0BDE8F08FDF
:100920002DE9F04F82B001904FF000744FF00005B8
:1009300052F804CB52F804EB0868CB6DCEF1000EF0
:10094000C0FB0C45C3FB0E4552F804CB52F804EB38
:1009500048688B6DCEF1000EC0FB0C45C3FB0E4505
:1009600052F804CB52F804EB88684B6DCEF1000EC0
:10097000C0FB0C45C3FB0E4552F804CB52F804EB08
:10098000C8680B6DCEF1000EC0FB0C45C3FB0E45D5
:1009900052F804CB52F804EB0869CB6CCEF1000E90
:1009A000C0FB0C45C3FB0E4552F804CB52F804EBD8
:1009B00048698B6CCEF1000EC0FB0C45C3FB0E45A5
:1009C00052F804CB52F804EB88694B6CCEF1000E60
:1009D000C0FB0C45C3FB0E4552F804CB52F804EBA8
:1009E000C8690B6CCEF1000EC0FB0C45C3FB0E4575
:1009F00001984FF4FE4E4EF0FF0E4FEA946444EA25
:100A000085144FEAE47CBCEBE43F18BF8CEA0E048B
:100A1000048002F5707201F580514FF000744FF0C0
:100A2000000552F804CB0868C0FB0C4552F804CB13
:100A30004868C0FB0C4552F804CB8868C0FB0C45E5
:100A400052F804CBC868C0FB0C4552F804CB0869C7
:100A5000C0FB0C4552F804CB4869C0FB0C4552F86A
:100A600004CB8869C0FB0C4552F804CBC869C0FBB5
:100A70000C4501984FF4FE4E4EF0FF0E4FEA946481
:100A800044EA85144FEAE47CBCEBE43F18BF8CEAEF
:100A90000E040484A2F57872A1F570614FF00F0C7A
:100AA00000F10200CDF800C001904FF000744FF04B
:100AB00000764FF000054FF0000752F804CB52F8D3
:100AC00004EB0868CB6DC0FB0C45C0FB0E67CEF194
:100AD000000EC3FB0E45C3FB0C6752F804CB52F863
:100AE00004EB48688B6DC0FB0C45C0FB0E67CEF174
:100AF000000EC3FB0E45C3FB0C6752F804CB52F843
:100B000004EB88684B6DC0FB0C45C0FB0E67CEF153
:100B1000000EC3FB0E45C3FB0C6752F804CB52F822
:100B200004EBC8680B6DC0FB0C45C0FB0E67CEF133
:100B3000000EC3FB0E45C3FB0C6752F804CB52F802
:100B400004EB0869CB6CC0FB0C45C0FB0E67CEF113
:100B5000000EC3FB0E45C3FB0C6752F804CB52F8E2
:100B600004EB48698B6CC0FB0C45C0FB0E67CEF1F3
:100B7000000EC3FB0E45C3FB0C6752F804CB52F8C2
:100B800004EB88694B6CC0FB0C45C0FB0E67CEF1D3
:100B9000000EC3FB0E45C3FB0C6752F804CB52F8A2
:100BA00004EBC8690B6CC0FB0C45C0FB0E67CEF1B3
:100BB000000EC3FB0E45C3FB0C6701F58071019865
:100BC0004FF4FE4E4EF0FF0E4FEA946444EA851453
:100BD0004FEAE47CBCEBE43F18BF8CEA0E044FEA1A
:100BE000966646EA87164FEAE67CBCEBE63F18BFFE
:100BF0008CEA0E06DDF800C000EB8C0E2EF8026BBE
:100C000020F8024BBCF1010C7FF44CAF02B0BDE800
:100C1000F08F00002DE9FE4F8446D0F800E0DCF8AC
:100C200004B00EF1BC0292E80C040CF11C0696E82C
:100C3000C003BBEB0A0ACEF8C4A0CEF8C8B00BFBC9
:100C400006F00AFB070003FB080002FB0900C8BF0F
:100C50006FF0000AB8BF4FF0010ABBF1000FC8BF28
:100C60006FF0000BB8BF4FF0010BCEF844A0CEF8E8
:100C700048B0DCF80C60DCF810700EF1980292E8D5
:100C80001C04C6EB4616A7EB661BCCF80C700CF1E7
:100C90003C0595E8E003BBEB0A0ACEF8A4A0CEF829
:100CA000A8B00BFB05F10AFB061104FB071103FBBF
:100CB000081102FB0911C8BF6FF0000AB8BF4FF05E
:100CC000010ABBF1000FC8BF6FF0000BB8BF4FF0B7
:100CD000010BCEF824A0CEF828B0009A00EB6100FA
:100CE000DCF818401368C4EB441403EBA021CCF8E3
:100CF000041001EB6411CCF8181042F8041B0092A8
:100D0000002B39D00EF118021CCA1EDBA5EB0B0517
:100D1000A6EB0A06A9EB0209A8EB0308A7EB040758
:100D20000CF13C0080E8E0030CF11C0191E83C0070
:100D30000EF13C0696E8C003A5EB0605A4EB0704FC
:100D4000A3EB0803A2EB090214E05D44564491446E
:100D5000984427440CF13C0080E8E0030CF11C01AE
:100D600091E83C000EF13C0696E8C00335443C4453
:100D700043444A4481E83C00DCF808B00EF17C02B0
:100D800092E80C040CF12C0696E8C003BBEB0A0AAF
:100D9000CEF884A0CEF888B00BFB06F00AFB070063
:100DA00003FB080002FB0900C8BF6FF0000AB8BFD0
:100DB0004FF0010ABBF1000FC8BF6FF0000BB8BFC6
:100DC0004FF0010BCEF834A0CEF838B0DCF8146048
:100DD000DCF818700EF1580292E81C04C6EB4616B7
:100DE000A7EB661BCCF814700CF1500595E8E003F6
:100DF000BBEB0A0ACEF864A0CEF868B00BFB05F195
:100E00000AFB061104FB071103FB081102FB091181
:100E1000C8BF6FF0000AB8BF4FF0010ABBF1000F66
:100E2000C8BF6FF0000BB8BF4FF0010BCEF810A099
:100E3000CEF814B0019A00EB6100DCF810401368A2
:100E4000C4EB441403EBA021CCF8081001EB6411AF
:100E5000CCF8101042F8041B0192002B39D00EF18F
:100E600004021CCA1EDBA5EB0B05A6EB0A06A9EBC8
:100E70000209A8EB0308A7EB04070CF1500080E877
:100E8000E0030CF12C0191E83C000EF12C0696E8F1
:100E9000C003A5EB0605A4EB0704A3EB0803A2EB34
:100EA000090214E05D4456449144984427440CF1EF
:100EB000500080E8E0030CF12C0191E83C000EF1B9
:100EC0002C0696E8C00335443C4443444A4481E838
:100ED0003C000EF1040E0CF1640BAEF5006A0298B2
:100EE000DA4509D0401E18BF02907FF498AECCF8C6
:100EF00000E003B0BDE8F08FBEE8FF03ABE8FF03FE
:100F0000BEE8FF03ABE8FF03BEE8FF03ABE8FF0367
:100F1000BEE8FF03ABE8FF03BEE8FF03ABE8FF0357
:100F200002980CF1640E401E18BF02907FF477AE59
:100F3000DDE72DE9F64F8446D0F800E0DCF804B098
:100F40000EF1BC0292E80C040CF11C0595E8C003FC
:100F5000BBEB0A0ACEF8C4A0CEF8C8B00BFB06F073
:100F60000AFB070003FB080002FB0900C8BF6FF083
:100F7000000AB8BF4FF0010ABBF1000FC8BF6FF005
:100F8000000BB8BF4FF0010BCEF844A0CEF848B02C
:100F9000009ADCF818401368C4EB441403EBA0215A
:100FA000CCF8041001EB6411CCF8181042F8041BC3
:100FB0000092002B13D0DEF83C20DEF8403008DB36
:100FC000A6EB0B06A7EB0A07A9EB0209A8EB03089F
:100FD00003E05E4457449144984485E8C0030EF111
:100FE000040E0CF1640BAEF5006A0198DA4508D0E6
:100FF000401E18BF0190A1D1CCF800E002B0BDE8BE
:10100000F08FBEE8FF03ABE8FF03BEE8FF03ABE8E9
:10101000FF03BEE8FF03ABE8FF03BEE8FF03ABE856
:10102000FF03BEE8FF03ABE8FF0301980CF1640E79
:10103000401E18BF019081D1DEE7000009488047BB
:1010400009480047FEE7FEE7FEE7FEE7FEE7FEE7AA
:10105000FEE7FEE7FEE7FEE704480549034A054BC5
:10106000704700000DB3010889010008B8F50120A0
:10107000B8F90120B8F5012010B5FF48006824F048
:10108000ABF8FE48006824F0A7F8FD48006824F09B
:10109000A3F8FC48006824F09FF8FB48006824F09F
:1010A0009BF8FA48006824F097F8F948006824F0A3
:1010B00093F810BD10B500244FF4007024F090F8A0
:1010C000ED4908600846006800B901244FF400703B
:1010D00024F086F8E94908600846006800B9012450
:1010E0004FF4007024F07CF8E54908600846006879
:1010F00000B90124A02024F073F8E24908600846F2
:10110000006800B90124402024F06AF8DE49086034
:101110000846006800B90124402024F061F8DB494A
:1011200008600846006800B901244FF4F87024F004
:1011300057F8D74908600846006800B901240CB187
:10114000FFF79AFF204610BD2DE9F04704460D46F3
:101150001646701B00EBD07105EB610954F839702D
:1011600004EBC90148686BF03AF9804654F8350041
:1011700044F8390004EBC500406804EBC90148603D
:10118000A94605F1010A1DE054F83A0039466BF012
:1011900035F915D854F83A0044F8390004EBCA0080
:1011A000406804EBC901486009F1010954F83900AD
:1011B00044F83A0004EBC900406804EBCA014860F7
:1011C0000AF1010AB245DFDDA9EB0500012805DDC2
:1011D000A9F1010229462046FFF7B6FFA6EB090058
:1011E000012805DD324609F101012046FFF7ACFF79
:1011F00044F8397040466BF0F9F804EBC9014860D7
:10120000BDE8F0872DE9F84F04460D4616461F4607
:101210004FF0000828E04FF0000920E04FF0000BED
:10122000DA4612E00B9A0AFB029255F822100A9A4B
:1012300008FB02A254F822006BF0F8F8594600901F
:101240006BF0AFF883460AF1010A0A988245E9DBA0
:101250000B9808FB009046F820B009F101090B98A3
:101260008145DBDB08F10108B845D4DBBDE8F88F28
:10127000024612B909B900207047002A02DD09B9F7
:101280000020F9E7002903DD8A4201DD0120F3E7B0
:10129000002A03DD914201D10220EDE7002A03DD9F
:1012A0008A4201DA0320E7E71AB9002901DD0420A8
:1012B000E2E7002A08DA101E01DB034600E04342A1
:1012C0008B4201DA0520D7E7002A08DA101E01DB7D
:1012D000034600E043428B4201D10620CCE7002ABE
:1012E0000ADA101E01DB034600E043428B4203DDB5
:1012F000002901DD0720BFE719B9002A01DA08201B
:10130000BAE7002903DA914201DD0920B4E7002A97
:1013100003DA914201D10A20AEE7002A03DA9142B2
:1013200001DA0B20A8E71AB9002901DA0C20A3E79B
:1013300000290ADA081E01DB034600E0434293421B
:1013400003DD002A01DD0D2096E7002908DA081EDA
:1013500001DB034600E04342934201D10E208BE7BC
:10136000002908DA081E01DB034600E043429342ED
:1013700001DA0F2080E700207EE730B5034601B197
:101380000AB9002030BD412901D0412A01D10020F5
:10139000F8E7491E521E03EBC20000EBE10004789F
:1013A00001F007050120A840044201D00120E9E72F
:1013B0000020E7E72DE9FE4F04460D4616461F467E
:1013C00000200190781C82000021324823F00CFF9D
:1013D000781C82000021304823F006FF4FF00008FF
:1013E00019E04FF0000912E004EBC80000EBE9003F
:1013F000017809F0070201209040014205D04FF02A
:101400007E5101986AF0CDFF019009F10109B145C3
:10141000EADB08F10108A845E3DB38466AF0E6FF9D
:101420008246014601986AF0D1FF019001200290A6
:1014300049E04FF0000AD0463AE04FF0000912E0D0
:1014400004EBC90000EBE800017808F00702012076
:101450009040014205D04FF07E5150466AF0A1FF06
:10146000824609F10109A945EADB02986AF0BEFF4C
:101470000090019912E000009008002094080020DC
:10148000980800209C080020A0080020A408002044
:10149000A808002030F5012044F501206AF0C6FFBD
:1014A000834651466AF0AAFF00D804E008F101081B
:1014B000701E4045C1DC00BFFD48029940F8218004
:1014C0000298401C0290781C02998142B1DB0120F5
:1014D000029035E04FF0000AD14626E04FF00008B8
:1014E00012E004EBC90000EBE800017808F0070205
:1014F00001209040014205D04FF07E5150466AF0E5
:1015000050FF824608F10108B045EADB02986AF014
:101510006DFF009001996AF089FF834651466AF099
:101520006DFF00D804E009F10109681E4845D5DCCB
:1015300000BFE049029841F820900298401C0290B8
:10154000781C02998142C5DB0020029032E00299AA
:1015500091FBF7F1D74A52F82120029991FBF7F15C
:10156000491CD44B53F82110501800EBD07149108E
:10157000D14A1268029B42F82310029991FBF7F2BC
:1015800007FB1211CA4A52F82120029991FBF7F386
:1015900007FB1311491CC64B53F82110501800EBE0
:1015A000D0714910C54A1268029B42F82310029874
:1015B000401C029007FB07F002998842C7DCBDE897
:1015C000FE8F2DE9F34F8FB0402440200A90102564
:1015D000AA000021B948006823F006FEAA000021F5
:1015E000B548006823F000FE042321460A9A0F98AC
:1015F000FFF7E0FEE2000021B148006823F0F4FDAF
:1016000000200B9060E3AC4801680B9851F8200073
:101610000290AA4801680B9851F8200001900298A6
:101620000830402801DD402001E002980830089091
:1016300001980830402801DD402001E00198083081
:1016400006900298083801D5002001E00298083879
:1016500009900198083801D5002001E00198083868
:10166000079009980E9027E307980D901CE3DDE999
:101670000D120F98FFF781FE8146DDE90D12491C1E
:101680000F98FFF77AFE022101FB0099DDE90D12A8
:10169000891C0F98FFF771FE81440E9A921C0D99D8
:1016A0000F98FFF76AFEA9EB00090E9A921C0D999C
:1016B000491C0F98FFF761FE022101FB10990E9A59
:1016C000921C0D99891C0F98FFF757FEA9EB00009B
:1016D00007B2DDE90D12891C0F98FFF74EFE814617
:1016E0000E9A521C0D99891C0F98FFF746FE022195
:1016F00001FB00990E9A921C0D99891C0F98FFF717
:101700003CFE8144DDE90D120F98FFF736FEA9EB90
:1017100000090E9A521C0D990F98FFF72EFE022118
:1017200001FB10990E9A921C0D990F98FFF725FE58
:10173000A9EB00000FFA80F8002F02DBB8F1000FD0
:1017400000DA00BF41463846FFF792FD0390039848
:1017500041100B9801FB05060398401C40100B99A3
:1017600000FB0510059002990E98401A083000EB16
:101770000010019A0D99891A08440830514951F80E
:1017800020000490039810281CD2DFE800F0081C09
:101790004A629FB3F2F0EFEEEDECEBEAE9E838468F
:1017A0006AF024FE824604996AF040FE814644486D
:1017B000006850F8261048466AF0F3FD4049096871
:1017C00041F826006CE2A7EB08006AF00FFE8246A3
:1017D00004996AF02BFE81463948006850F82610BB
:1017E00048466AF0DEFD3649096841F82600404661
:1017F0006AF0FCFD834634496AF018FE824604997B
:101800006AF014FE81462E480268059852F82010AE
:1018100048466AF0C6FD2A490968059A41F822003F
:101820003EE240466AF0E2FD834627496AF0FEFD4B
:10183000824604996AF0FAFD81462148006850F812
:10184000261048466AF0ADFD1D49096841F826009A
:1018500026E238466AF0CAFD83461B496AF0E6FD77
:10186000824604996AF0E2FD81461548006850F806
:10187000261048466AF095FD1149096841F826008E
:10188000A8EB07006AF0B2FD824604996AF0CEFD2B
:1018900081460B480268059852F8201048466AF0C5
:1018A00080FD07490A68059942F82100F8E1000027
:1018B00030F5012044F50120A4080020A0080020F4
:1018C00094080020880E0808F704B53F40466AF0E7
:1018D0008DFD824604996AF0A9FD8146FE480068A4
:1018E00050F8261048466AF05CFDFB49096841F84B
:1018F0002600D5E107EB08006AF078FD82460499DE
:101900006AF094FD8146F448006850F82610484675
:101910006AF047FDF049096841F82600B7F100096F
:1019200001DB494601E0C9F1000108466AF05EFDAD
:10193000EA4900906AF07AFD834604996AF076FDE0
:101940008246E5480068059A50F8221050466AF031
:1019500028FDE1490968059A41F82200A0E166E105
:101960004DE111E1F5E0BFE09FE069E04DE018E0F6
:10197000FFE740466AF03AFD8346D8496AF056FDD3
:10198000824604996AF052FD8146D348006850F8B7
:10199000261048466AF005FDCF49096841F826003F
:1019A0007EE140466AF022FD8346CC496AF03EFD66
:1019B000824604996AF03AFD8146C748006850F8AB
:1019C000261048466AF0EDFCC349096841F8260034
:1019D00017EB080901D4494601E0C9F100010846A6
:1019E0006AF004FD834604996AF020FD8246BA48F5
:1019F0000068059A50F8221050466AF0D2FCB649A9
:101A00000968059A41F822004AE1B7F1000901DBB3
:101A1000494601E0C9F1000108466AF0E7FC834647
:101A200004996AF003FD8246AB48006850F826101E
:101A300050466AF0B6FCA849096841F826002FE133
:101A4000A8EB07006AF0D2FC824604996AF0EEFC2B
:101A50008146A148006850F8261048466AF0A1FC6B
:101A60009D49096841F82600B8F1000901DB4946A3
:101A700001E0C9F1000108466AF0B8FC97490090FE
:101A80006AF0D4FC834604996AF0D0FC82469248FE
:101A90000068059A50F8221050466AF082FC8E4980
:101AA0000A68059942F82100FAE0B8F1000901DB63
:101AB000494601E0C9F1000108466AF097FC8749F0
:101AC00000906AF0B3FC834604996AF0AFFC82464A
:101AD0008148006850F8261050466AF062FC7E4942
:101AE000096841F82600DBE0B7F1000901DB49464F
:101AF00001E0C9F1000108466AF078FC77490090DE
:101B00006AF094FC834604996AF090FC824672481D
:101B1000006850F8261050466AF043FC6E49096888
:101B200041F82600A7EB08006AF060FC82460499A1
:101B30006AF07CFC814668480268059852F82010DB
:101B400048466AF02EFC64490A68059942F821006B
:101B5000A6E0B8F1000901DB494601E0C9F1000146
:101B600008466AF043FC834604996AF05FFC8246AB
:101B70005948006850F8261050466AF012FC564941
:101B8000096841F826008BE017EB080901D44946A3
:101B900001E0C9F1000108466AF028FC8346049977
:101BA0006AF044FC82464C48006850F826105046C3
:101BB0006AF0F7FB4849096841F82600B7F10009C7
:101BC00001DB494601E0C9F1000108466AF00EFC5C
:101BD000424900906AF02AFC834604996AF026FC88
:101BE00082463D480068059A50F8221050466AF037
:101BF000D8FB39490A68059942F8210050E0384677
:101C00006AF0F4FB834635496AF010FC8246049979
:101C10006AF00CFC81463048006850F826104846AF
:101C20006AF0BFFB2C49096841F8260038E0B8F19A
:101C3000000901DB494601E0C9F1000108466AF0EC
:101C4000D5FB264900906AF0F1FB834604996AF0BF
:101C5000EDFB82462048006850F8261050466AF096
:101C6000A0FB1D49096841F8260017EB080901D4BB
:101C7000494601E0C9F1000108466AF0B7FB834616
:101C800004996AF0D3FB82461348006850F8261086
:101C900050466AF086FB1049096841F8260000BFEB
:101CA00000BF0D98401C0D9006990D9888427FF753
:101CB000DEAC0E98401C0E9008990E9888427FF773
:101CC000D3AC0B98401C0B900B98A8427FF49BACB4
:101CD00000200B901FE0000094080020F704B53F9F
:101CE00000200C9011E0DDE90B0101FB0506FF4926
:101CF000096851F82600FE4952F02DFCFD4909689B
:101D000041F826000C98401C0C900C980828EADB3F
:101D10000B98401C0B900B981028E1DB11B0BDE82C
:101D2000F08F2DE9FF4F8BB004460D461E46199FDC
:101D30000020079090E2079805EB80000088ADF83E
:101D40002800079805EB80004088ADF82A00079826
:101D5000401C05EB80000088ADF824000798401C6B
:101D600005EB80004088ADF82600BDF92800BDF9DC
:101D70002410884272D1BDF92A00089067E0002E35
:101D800041D04FF0FF383AE04FF0FF30069031E09D
:101D9000089810EB08002AD4089800EB080118985E
:101DA000814224DABDF92800069940181FD4BDF9F4
:101DB000281006980844B84219DABDF92810069888
:101DC000084405900898404404EBC000059900EBD6
:101DD000E100007801F007020121914008430899D1
:101DE000414404EBC101059A01EBE2010870069839
:101DF000401C069006980228CAD108F10108B8F1E3
:101E0000020FC1D116E0BDF928000590089804EB37
:101E1000C001059801EBE0000078059901F0070288
:101E2000012191400843089904EBC102059902EB96
:101E3000E1010870BDF92600BDF92A10884203DDD2
:101E40000898401C089002E00898401E0890BDF9D0
:101E500026100898814292D1FBE1FFE7BDF92A00E4
:101E6000BDF92610884275D1BDF9280008906AE0B6
:101E7000002E42D04FF0FF383BE04FF0FF3006908D
:101E800032E00699089840182BD40699089808441F
:101E90001899884225DABDF92A0010EB080020D4F1
:101EA000BDF92A004044B8421BDA06990898084454
:101EB0000590BDF92A00404404EBC001059801EBF0
:101EC000E0000078059901F00702012191400843E4
:101ED000BDF92A10414404EBC102059902EBE1016E
:101EE00008700698401C069006980228C9D108F18F
:101EF0000108B8F1020FC0D118E008980590BDF9AB
:101F00002A0004EBC001059801EBE0000178059878
:101F100000F00702012090400143C8B2BDF92A1029
:101F200004EBC101059A01EBE2010870BDF9240040
:101F3000BDF92810884203DD0898401C089002E093
:101F40000898401E0890BDF92410089881428FD14E
:101F50007FE1FFE7BDF92410BDF92820881A6AF057
:101F600045FA8246BDF92610BDF92A20881A6AF082
:101F70003DFA834651466AF029FA81466AF0E6F94D
:101F8000CDE9020121F00041CDE900015AA00CC8C1
:101F9000009869F0A9FE13D2BDF92410BDF92820DC
:101FA000881A6AF023FA8146BDF92610BDF92A2065
:101FB000881A6AF01BFA824649466AF007FA12E06C
:101FC000BDF92610BDF92A20881A6AF00FFA814659
:101FD000BDF92410BDF92820881A6AF007FA824654
:101FE00049466AF0F3F90490BDF92420BDF9283080
:101FF000D01ABDF92620BDF92A30D11A01D40B46DA
:1020000000E04B42002801DB024600E042429342DE
:102010006BDA002008907EE008986AF0E7F90390F8
:1020200004996AF003FA83466AF0D9F9BDF92A10D7
:1020300000EB0109BDF92800089900EB010A002E08
:102040003CD04FF0FF3835E04FF0FF3006902CE0E9
:1020500019EB080026D409EB08001899884221DA08
:1020600006981AEB00001DD406985044B84219DABD
:102070000AF10100059009EB080004EBC000059986
:1020800000EBE1000178059800F007020120904084
:102090000143C8B209EB080104EBC101059A01EB49
:1020A000E20108700698401C069006980228CFD1DD
:1020B00008F10108B8F1020FC6D113E0CDF814A061
:1020C00004EBC900DDF814A000EBEA0001780AF087
:1020D0000702012090400143C8B204EBC90101EBA3
:1020E000EA010870BDF924000AE01EE0940800200F
:1020F00085EBD13E98080020000000000000F03F72
:10210000BDF92810884203DD0898401C089002E0C1
:102110000898401E0890BDF92400BDF92810401A07
:10212000089988427FF478AF92E0BDF92420BDF988
:102130002830D01ABDF92620BDF92A30D11A01D491
:102140000B4600E04B42002801DB024600E0424221
:1021500093427DDB0020089072E0BDF92A100898B8
:1021600001EB000908986AF041F9039004996AF0BC
:102170005DF983466AF033F9BDF9281000EB010AD6
:10218000002E3CD04FF0FF3835E04FF0FF30069086
:102190002CE019EB080026D409EB080118988142BD
:1021A00021DA06981AEB00001DD406985044B84274
:1021B00019DA06985044059009EB080004EBC000BA
:1021C000059900EBE1000178059800F00702012075
:1021D00090400143C8B209EB080104EBC101059A24
:1021E00001EBE20108700698401C06900698022850
:1021F000CFD108F10108B8F1020FC6D113E0CDF834
:1022000014A004EBC900DDF814A000EBEA0001788B
:102210000AF00702012090400143C8B204EBC90153
:1022200001EBEA010870BDF92600BDF92A108842C9
:1022300003DD0898401C089002E00898401E0890B2
:10224000BDF92600BDF92A10411A0898814284D1AF
:1022500000BF0798401C07900D98411E07988142C7
:102260007FF469AD0FB0BDE8F08F2DE9F04F099C08
:1022700015464FF0FF360F46B4464FF0000935E0E3
:1022800000EB890ABAF902A0BA4504DA00EB890A20
:10229000BAF902A000E0BA46574600EB890ABAF93B
:1022A00000A0AA4504DA00EB890ABAF900A000E010
:1022B000AA46554600EB890ABAF902A0E24504DDB8
:1022C00000EB890ABAF902A000E0E246D44600EB2E
:1022D000890ABAF900A0B24504DD00EB890ABAF90F
:1022E00000A000E0B246564609F10109DDF828A039
:1022F000D145C5DBACEB070A0AF1010A93FBFAFAF8
:102300000AF1010EA6EB050A0AF1010A94FBFAFA9A
:102310000AF101084FF000092BE000EB890ABAF935
:1023200002A0AAEB070A0AFB03FAACEB070B0BF1BE
:10233000010B9AFBFBFAF2440FFA8AFA00EB890BC5
:10234000ABF802A000EB890ABAF900A0AAEB050AD3
:102350000AFB04FAA6EB050B0BF1010B9AFBFBFA47
:10236000C2440FFA8AFA00EB890BABF800A009F11E
:102370000109DDF828A0D145CFDBBDE8F08F2DE9BC
:10238000FF4784B014461D46BDF91000BDF9141076
:10239000884223D1002619E0BDF81000296804EB1B
:1023A00081010880BDF81200304400B2296804EBB6
:1023B000810148802868401C2860BDF91600BDF9DD
:1023C0001210884201DD761C00E0761EBDF9160071
:1023D000BDF91210401AB042DED1E9E0BDF9120099
:1023E000BDF91610884223D1002619E0BDF812006D
:1023F000296804EB81014880BDF81000304400B228
:10240000296804EB810108802868401C2860BDF918
:102410001400BDF91010884201DD761C00E0761E24
:10242000BDF91400BDF91010401AB042DED1BFE072
:10243000BDF91410BDF91020881A69F0D7FF814644
:10244000BDF91610BDF91220881A69F0CFFF824637
:10245000494669F0BBFF804669F078FFCDE902018B
:1024600021F00041CDE90001AFF274300CC80098B2
:1024700069F03AFC13D2BDF91410BDF91020881A86
:1024800069F0B4FF8046BDF91610BDF91220881A14
:1024900069F0ACFF8146414669F098FF12E0BDF952
:1024A0001610BDF91220881A69F0A0FF8046BDF908
:1024B0001410BDF91020881A69F098FF8146414632
:1024C00069F084FF0746BDF91420BDF91030D01A19
:1024D000BDF91620BDF91230D11A01D40B4600E027
:1024E0004B42002801DB024600E0424293422FDCCF
:1024F000002625E0BDF81000304400B2296804EB46
:1025000081010880304669F071FF8146394669F0E3
:102510008DFF804669F063FFBDF81210084400B2D9
:10252000296804EB810148802868401C2860BDF9B7
:102530001400BDF91010884201DD761C00E0761E03
:10254000BDF91400BDF91010401AB042D2D12EE0EE
:10255000002625E0BDF81200304400B2296804EBE3
:1025600081014880304669F041FF8146394669F073
:102570005DFF804669F033FFBDF81010084400B2DB
:10258000296804EB810108802868401C2860BDF997
:102590001600BDF91210884201DD761C00E0761E9F
:1025A000BDF91600BDF91210401AB042D2D100BFD9
:1025B00008B0BDE8F0872DE9F84F04460D461646F1
:1025C000701E00EBD0714FEA6109A5EB0900009085
:1025D000CA46A80022F004FE8346AA0021465846B7
:1025E00001F087F8B54205DB06EBD6714910B6EB72
:1025F000410101D1BDE8F88F4F463CE0002004EBDB
:102600008701088004EB87014880CAF100081BE0BD
:1026100004EB8700008807EB08010BEB81010988B8
:10262000084400B204EB8701088004EB870040886F
:1026300007EB08010BEB81014988084400B204EB69
:102640008701488008F10108D045E1DD04EB8700EF
:10265000B0F9000090FBF6F000B204EB87010880AF
:1026600004EB8700B0F9020090FBF6F000B204EB37
:10267000870148807F1C00988742BFDB584622F0C4
:10268000ABFDB7E72DE9FF4F91B004460D461E9E06
:102690000327802010900F9040200E900D90002076
:1026A0000B900A90814680200990052004902946CD
:1026B0002046049AFFF77FFF4FF0010A29E004EB60
:1026C0008A01B1F90010AAF1010204EB8202B2F909
:1026D0000020881A01D4014600E04142089104EB31
:1026E0008A01B1F90210AAF1010204EB8202B2F9E7
:1026F0000220881A01D4014600E041420791DDE939
:102700000710884201DB089800E0079881440AF12D
:10271000010AAA45D3DB4FEA890022F061FD804619
:102720004FEA89020021404622F05EFD4FF0000A88
:1027300015E00AF1010004EB8001042203A800F077
:10274000D8FF04EB8A01042202A800F0D2FF0AABF2
:102750004246DDE90201FFF712FE0AF1010A681E96
:102760005045E6D14FEA8900B0FBF7F0039022F024
:1027700037FD0C904FEA8900B0FBF7F002460021CC
:1027800003900C9822F030FD4FF0000A13E008EBA4
:102790008A000088DDE90B2101EB8201088008EB4B
:1027A0008A004088DDE90B2101EB820148800B980B
:1027B000401C0B90BA44CA45E9DB404622F00CFDB0
:1027C0000B9B0E9ACDE90023DDE90C03DDE90F1226
:1027D000FFF74BFD4FF400720021FD48006822F026
:1027E00003FDDDE90D23CDE900230123F848DDE9F0
:1027F0000B210068FFF795FA0C9822F0EDFCF448E5
:1028000009990068FEF7DDFE2823099ACDE9002327
:102810000123F048F0490268F0480068FEF7F2FC36
:102820001498012806D0022809D003280CD00428C7
:1028300014D10EE0002006900A20059012E00A2034
:102840000690242005900DE0242006903E2005905F
:1028500008E0002006903E20059003E0002015B01F
:10286000BDE8F08F00BF4FF4F8720021DC4800682B
:1028700022F0BAFC4FF0000A40E04FF0000B30E0CD
:10288000069A524402EB8202D64B03EB421252F8F4
:102890002B10D04A126852F82B0069F020FE0290EB
:1028A000069A524402EB8202CE4B03EB421252F8DC
:1028B0002B10C84A126852F82B0069F010FE0190E4
:1028C000029969F0B3FD0390C548006850F83A10CA
:1028D000039869F066FDC249096841F83A000BF1B6
:1028E000010BBBF1280FCBD1504669F07FFDBC49ED
:1028F000096801EBCA0148600AF1010ADDE9050136
:10290000401A5045B9D1DDE90501401A421E0021A7
:10291000B3480068FEF718FC4FF0000A0EE0B0491B
:10292000096801EBCA01486869F059FD0699084435
:10293000AD49085C06F80A000AF1010A13988245BD
:10294000EDDB002006F80A00307888E72DE9F84F23
:1029500004460D4616461F46DDF828804FF0000954
:102960004FF6FF7AD346012D02DCC846BDE8F88F4A
:102970004FF000091CE004EB8900B0F9001009F1E8
:10298000010004EB8000B0F9000081420BD104EBA0
:102990008900B0F9021009F1010004EB8000B0F9E0
:1029A0000200814200D006E009F101001FFA80F91F
:1029B000681E4845DFDC00BF681E484500D1D5E7EA
:1029C0004FF0000919E004EB8900B0F90000504510
:1029D00004DA04EB890000881FFA80FA04EB89000E
:1029E000B0F90200584504DA04EB890040881FFA68
:1029F00080FB09F101001FFA80F9A945E3DB4FF0E4
:102A0000000915E004EB89000088A0EB0A0000B281
:102A100004EB8901088004EB89004088A0EB0B00DF
:102A200000B204EB8901488009F101001FFA80F926
:102A3000A945E7DB3B46324629462046CDF80080D3
:102A4000FFF720FE92E72DE9F84F4FF00009C3F899
:102A500000900124EBE0A4F1010900EB8909B9F928
:102A6000005000EB8409B9F900A0CDF800A0A4F152
:102A7000010900EB8909B9F9026000EB8409B9F991
:102A80000270DDF800A0BAEB050901D4CA4601E0E6
:102A9000C9F1000AD446B7EB060901D4CA4601E0E1
:102AA000C9F1000AD646F44559DD4FF0000853E05D
:102AB000DDF80090A9450ADD05EB08090FFA89F950
:102AC000D3F800A002EB8A0AAAF8009009E0A5EB6F
:102AD00008090FFA89F9D3F800A002EB8A0AAAF8CC
:102AE0000090B7421ADDD3F800A002EB8A0ABAF9C7
:102AF00000A0BAEB050901D4CA4601E0C9F1000AF9
:102B00000AFB0EFA9AFBFCFAB2440FFA8AFAD3F8DF
:102B100000B002EB8B0BABF802A01AE0D3F800A0D8
:102B200002EB8A0ABAF900A0BAEB050901D4CA4639
:102B300001E0C9F1000A0AFB0EFA9AFBFCFAA6EBC7
:102B40000A0A0FFA8AFAD3F800B002EB8B0BABF843
:102B500002A01B1D08F10108E045A9DB66E04FF06B
:102B6000000861E0B7420ADD06EB08090FFA89F9AF
:102B7000D3F800A002EB8A0AAAF8029009E0A6EBBB
:102B800008090FFA89F9D3F800A002EB8A0AAAF81B
:102B90000290DDF80090A94528DDD3F800A002EBF3
:102BA0008A0ABAF902A0BAEB060901D4CA4601E0C2
:102BB000C9F1000A0AFB0CFA9AFBFEFAAA440FFAC2
:102BC0008AFAD3F800B002EB8B0BABF800A028E038
:102BD000900800209C0800204C1808089808002045
:102BE000A80800204C6808080C8F0808D3F800A03B
:102BF00002EB8A0ABAF902A0BAEB060901D4CA4666
:102C000001E0C9F1000A0AFB0CFA9AFBFEFAA5EBF7
:102C10000A0A0FFA8AFAD3F800B002EB8B0BABF872
:102C200000A01B1D08F10108F0459BDB641C8C42D1
:102C3000FFF611AFBDE8F88F704753EA020C00F0C1
:102C400069802DE9F04B4FF00006002B1FBFB3FA4F
:102C500083F503FA05F424FA05F65E4012BF164325
:102C6000B2FA82F502FA05F4C5F120051EBF22FA78
:102C700005FC44EA0C04203556EA044C4FEA14449F
:102C800018BF641C4FF000084FF00009904271EB30
:102C9000030C39D3002919BFB1FA81F701FA07F6FD
:102CA000B0FA80F700FA07F6C7F120071EBF20FA36
:102CB00007FC46EA0C062037B6FBF4FCA7EB050739
:102CC000103F07F01F0BCBF120060CFA0BFB2CFA80
:102CD00006F644BFB3460026202FA4BF5E464FF041
:102CE000000B5BEA060C08BF4FF0010B19EB0B0958
:102CF000ABFB027C48EB0608C01B06FB02CC0BFBBF
:102D000003CC71EB0C01C1E70B4602464146484635
:102D1000BDE8F08B13B54FF000004FF00001AFF3AA
:102D20000080BDE81C407047B2F120030AD5C2F113
:102D3000200320FA02F001FA03F341FA02F140EA1B
:102D40000300704741FA03F04FEAE171704710B594
:102D50004C1084EA530404D54042C1F1000138BF4D
:102D6000491E1B4204D55242C3F1000338BF5B1E0B
:102D7000FFF763FF14F0804F04D04042C1F100011F
:102D800038BF491E14F0004F04D05242C3F1000373
:102D900038BF5B1E10BD00001CB50C46064B7B44C3
:102DA00069460090204601F0CCF8044600206946B0
:102DB00001F0DAF820461CBDC71100000FB4044929
:102DC00010B503AA029801F0EBF810BC5DF814FBF3
:102DD000080000200FB41CB5084B06AA7B446946C6
:102DE0000090059801F0ADF804460020694601F016
:102DF000BBF820461CBC5DF814FB000089110000E4
:102E000070B5044685690068C10601D5302600E02A
:102E10002026C00707D070BDD4E901213046904775
:102E2000206A401C20626D1EF6D570BD70B5044648
:102E300085690078C00707D170BDD4E90121202041
:102E40009047206A401C20626D1EF6D570BD09684F
:102E50004A0501D540B27047C905FCD500B270479C
:102E600009684A0501D5C0B27047C905FCD580B2D2
:102E7000704770B50C460546012A05D028788006B3
:102E800000D5EA69002302E0012305E05B1C9342C0
:102E900002D2E05C0028F9D1A869E618C01AA8613E
:102EA000286A184428622846FFF7AAFF04E0D5E9FB
:102EB000012114F8010B9047B442F8D32846FFF7DC
:102EC000B5FF70BD2DE9F041064600241068752954
:102ED000314616A510D0FFF7BAFF002802DA4042AB
:102EE00013A507E031688A0701D512A502E049075A
:102EF00004D511A5012401E0FFF7B2FF00210A2249
:102F000006F1240709E0B0FBF2FCB0FBF2F302FB90
:102F10001C00303078541846491C0028F3D1234651
:102F20002A463046BDE8F04100F09DBD000000009B
:102F30002D0000002B000000200000001168026836
:102F4000006A530501D508700AE0D30501D5088051
:102F500006E0130603D5C217C1E9000200E00860CD
:102F6000012070472DE9FF5F15468A460446DFF8C9
:102F7000AC80F8440027D8E900103E46CDE90010A7
:102F800010E03AF816106A4602A801F03DF9411C1B
:102F900007D02178890603D5E269391891420DD806
:102FA0000744761C2078800602D5E069B84205DD2A
:102FB000AE42E6DB3AF816000028E2D1A069C01B59
:102FC000A0612046FFF71CFFD8E90010CDE90010F2
:102FD000002017E03AF818106A4602A801F014F928
:102FE000B0F1FF3F81460BD000250DF1080B05E045
:102FF000D4E901211BF8050090476D1C4D45F7D31E
:1030000008F10100B0428046E4DB206A38442062C7
:103010002046FFF70BFFBDE8FF9F0000D65F0800CA
:1030200030B4002100F1240408E002F00705D208C2
:10303000303542EA4372DB086554491C52EA030505
:10304000F3D10468002310A2250707D5A40600D4F5
:1030500021B1C46901230DA2641EC46130BC00F01B
:1030600002BD10B5044621461068FFF7F9FE02467E
:103070002046BDE810400023D2E7D21D22F0070110
:10308000D1E90023CCE70000000000003000000080
:10309000F0B40D460188090502D5214C7C4402E0BC
:1030A0001F4C7C440E34002100F1240608E002F09D
:1030B0000F071209E75D42EA03721B097754491CA6
:1030C00052EA0307F3D102780023120704D5702DCA
:1030D00006D009B1022311342246F0BC00F0C3BC73
:1030E00001231034F8E770B504460D4621461068F8
:1030F000FFF7B6FE024629462046BDE87040002391
:10310000C6E7D21D22F00703D3E90023C0E7036816
:10311000126843F0200303600823C3610023B7E76C
:10312000B45E08002DE9F05F894604464FF0000ABE
:10313000DFF874B1FB44C0F820A02046E16888475E
:10314000002874D0252806D0D4E901219047206AB0
:10315000401C2062F1E700265F462046E168884770
:103160002028054607DB312D05D2781910F8200CF0
:1031700008B10643F1E7B00701D526F00406C4F80C
:103180001CA00027C4F818A02A2D09D0284621F039
:10319000E4FD38B304EB8708303DC8F8185019E057
:1031A00059F8041B204604EB87029161E1688847C7
:1031B000012F054618D1E069002820DA26F0200604
:1031C0001DE0D8F8180000EB800005EB4000303817
:1031D000C8F818002046E1688847054621F0BDFD83
:1031E0000028EED1012F0AD02E2D08D12046E1680B
:1031F00088477F1C0546022F46F02006C4DBA069E5
:10320000002803DA404246F00106A061F00701D031
:1032100026F010066C2D0BD0682D09D04C2D39D01E
:103220006A2D35D0742D35D07A2D33D016E038E0A4
:10323000E1682F4620468847B842054609D16C2FE1
:1032400026D04FF48060E168064320468847054653
:1032500004E06C2F1AD04FF4807006430DB3A5F133
:103260004100192802D8203546F400664A4629460E
:10327000204626604E46FCF7E1FF80B101280BD0C6
:10328000F61D26F0070000F1080956E74020E4E7A4
:103290008020D8E70020D6E706F104094DE728464C
:1032A00052E7206ABDE8F09F445E08000FB400B505
:1032B0008DB010A9099000910B904FF0FF300A904B
:1032C00000200C90064878440690064878446A46E8
:1032D00007900F9909A800F0DDFE0DB05DF814FB12
:1032E000EB0D0000030E00002DE9FF5F1D464FF0BF
:1032F000FF3B91464FF000085F46D5E90146A969BA
:1033000001987F1C8847296A824688470028F6D1A1
:10331000BAF1FF3F0CD0002E24F4C06419DD600622
:1033200014D5BAF12B0F09D0BAF12D0F0ED103E04D
:10333000584604B0BDE8F09F44F48064A969019840
:103340007F1C8847761E8246002E02DDBAF1300FC0
:1033500003D0B9F1000F26D032E0A969761E01989A
:103360007F1C44F400748847002E824605DDBAF1C4
:10337000780F06D0BAF1580F03D0B9F1000F10D072
:103380001EE0B9F1000F02D0B9F1100F18D1A969F0
:10339000761E01987F1C24F4007488478246102012
:1033A00002E0082000E00A20814609E0A96908FB44
:1033B0000908761E01987F1C44F4007488478246F1
:1033C000002E05DD4946504600F050FE0028EDDA9B
:1033D000E96901988847A00502D46FF00100A8E7C9
:1033E000E00725D1600613D5600502D5C8F10000BD
:1033F00000E0404629680A1D2A600968220501D5B7
:10340000087015E0220701D5088011E008600FE080
:103410002868011D29600068210502D580F8008018
:1034200006E0210702D5A0F8008001E0C0F8008086
:1034300038467EE72DE9FF5F4FF0000899461446B5
:1034400046469169D2E901A7DDF838B0019888476E
:10345000054659EA0B0005D009E0A1690198761CE0
:1034600088470546216A284688470028F5D1681C08
:1034700003D05FEACA7005D015E04FF0FF3004B00A
:10348000BDE8F09F2068011D2160D0F800800AE0AF
:103490005FEACA7001D108F8015BA169761C019846
:1034A0007F1E88470546002F1ADD681C18D0B9F129
:1034B000000F0DD0E81705EBD060421120F01F007F
:1034C00059F822102A1A012090400142E0D107E069
:1034D000BBF1000FDCD12846216A88470028D7D0ED
:1034E000E16901988847BBF1000F07D1002E05DD87
:1034F0005FEACA7002D1002188F80010A068B842C3
:1035000003DDBBF1000F03D017B16FF00100B6E788
:103510003046B4E770B5064600F096FA04680546F2
:1035200030460A22002100F037FE2C6070BD401E9C
:10353000CAB210F8011F8A4202D00029F9D1002036
:10354000704730B505460B462A4613F8014B12F872
:10355000010B08B1A042F8D01CB1002802D06D1CAC
:10356000F1E7284630BD40EA010310B59B070FD1B3
:10357000042A0DD310C808C9121F9C42F8D020BAE3
:1035800019BA884201D9012010BD4FF0FF3010BD9B
:103590001AB1D30703D0521C07E0002010BD10F869
:1035A000013B11F8014B1B1B07D110F8013B11F82F
:1035B000014B1B1B01D1921EF1D1184610BD40EAF0
:1035C0000103024630B59B0710D14FF0013400E0F3
:1035D00008C208C91D1B9D4315EAC41FF8D013F08B
:1035E000FF0102F8011B0DD01B0AF8E711F8013B9F
:1035F000002B02F8013B05D011F8013B002B02F82B
:10360000013BF3D130BD10B5431C02E010F8011BA3
:1036100071B18107FAD14FF0013202C88C1A8C4384
:1036200014EAC211F9D0C01A0A0603D0C01E10BD98
:10363000C01A10BD0A0401D0801E10BD0902FCD0C2
:10364000401E10BD40EA010370B59B072ED14FF01C
:103650000136042A2AD308C810C99D1B9D43121F96
:1036600015EAC61517D0D8B2E1B2401A50EA056182
:1036700010D198B2A1B2401A50EA05410AD123F004
:103680007F4024F07F41401A50EA052102D1180EF4
:10369000A0EB146070BDA342DBD018BA21BA8842F7
:1036A00001D9012070BD4FF0FF3070BD0AB9002074
:1036B00070BD10F8013B11F8014B63B1A3420AD170
:1036C000521E08D010F8013B11F8014B1BB1A34268
:1036D00001D1521EEDD1181B70BD421E12F8013FE0
:1036E000002BFBD111F8013B002B02F8013BF9D173
:1036F0007047032A40F2308010F0030C00F0158070
:1037000011F8013BBCF1020F624498BF11F801CBE4
:1037100000F8013B38BF11F8013BA2F1040298BF49
:1037200000F801CB38BF00F8013B11F0030300F0B3
:103730006780083AC0F0088051F8043B083A51F815
:1037400004CBA0E80810F5E7121D5CBF51F8043B5C
:1037500040F8043BAFF30080D20724BF11F8013BCF
:1037600011F801CB48BF11F8012B24BF00F8013B31
:1037700000F801CB48BF00F8012B7047431A28BF5F
:103780009A427FF6B6AF032A1044114440F22680D5
:1037900010F0030F1EBF11F8013D521E00F8013D4D
:1037A00010F0030F7FF4F6AF11F0030300F05F8514
:1037B000083AC0F00B8051F8043D083A51F804CDA6
:1037C00040F8043D40F804CDFFF7F3BF121D5CBF85
:1037D00051F8043D40F8043DAFF30080D20724BF08
:1037E00011F8013D11F801CD48BF11F8012C24BF9B
:1037F00000F8013D00F801CD48BF00F8012C7047EA
:1038000010B5203AC0F00B80B1E81850203AA0E87B
:103810001850B1E81850A0E81850BFF4F5AF5FEAAF
:10382000027C24BFB1E81850A0E8185044BF18C962
:1038300018C0BDE810405FEA827C24BF51F8043B09
:1038400040F8043B08BF7047D20728BF31F8023B5D
:1038500048BF11F8012B28BF20F8023B48BF00F8F1
:10386000012B704702F0FF0343EA032242EA0242BF
:1038700000F002B84FF000020429C0F0128010F0EE
:10388000030C00F01B80CCF1040CBCF1020F18BF3C
:1038900000F8012BA8BF20F8022BA1EB0C0100F0CF
:1038A0000DB85FEAC17C24BF00F8012B00F8012BA2
:1038B00048BF00F8012B70474FF0000200B51346D7
:1038C00094469646203922BFA0E80C50A0E80C5040
:1038D000B1F12001BFF4F7AF090728BFA0E80C50F1
:1038E00048BF0CC05DF804EB890028BF40F8042BEA
:1038F00008BF704748BF20F8022B11F0804F18BF57
:1039000000F8012B704710B5044610F0030F08BFF4
:1039100011F0030F40F015804FF0013E121FC0F26E
:103920000E8051F8043BA3EB0E0C2CEA030C1CEAAE
:10393000CE1C08BF40F8043BF0D0A1F1040102F115
:103940000402521E08DB11F8013B002B00F8013B7A
:10395000F7D11146FFF78EFF204610BD4FF0013C16
:1039600050F8042B51F8043B9A4221D1A2EB0C03EE
:10397000934313EACC1317D150F8042B51F8043BAE
:103980009A4215D1A2EB0C03934313EACC130BD14B
:1039900050F8042B51F8043B9A4209D1A2EB0C03D6
:1039A000934313EACC13DBD04FF00000704700BF05
:1039B000D01A01BAB1FA81F101F0180122FA01F02E
:1039C000CB40C1F12001DBB2C0B2C01A2CFA01F326
:1039D000D11A914311EAC311E6D17047704770477D
:1039E0007047A0E8004FF0C040F804DB01B5AFF32A
:1039F0000080BDE8024001C10020A1EC068BA1ECD3
:103A000002BBA1EC06CBA1EC02FB704700F12C0835
:103A10000C46B8EC068BB8EC02BBB8EC06CBB8ECA5
:103A200002FB00F12C0858F8040DAFF3008058F8A1
:103A3000040D8546200008BF012038E9F00018E990
:103A4000004F7047704700000048704758F501204C
:103A500010B5FFF7F9FF006810BD10B50446FFF779
:103A6000F3FF046010BD2DE9F0470D4699469246DC
:103A7000044600F124080168880604D5E06921F0B5
:103A80001001216000E00120A84201DD471B00E099
:103A90000027A1697A1902EB0900081AA0612078B1
:103AA000C00602D42046FFF7ABF9002608E0D4E9AF
:103AB00001211AF806009047206A401C761C2062FB
:103AC0004E45F4DB2078C0060AD52046FFF798F96A
:103AD00006E0D4E9012130209047206A401C206292
:103AE000381EA7F10107F4DC07E0D4E9012118F83A
:103AF00005009047206A401C2062281EA5F10105A0
:103B0000F3DC2046FFF792F92078000602D5022068
:103B1000BDE8F0870120FBE770472DE9FF4F0C4619
:103B20001E464FF0FF378BB0D2E90001DDF8608010
:103B30000A908A46C1F30A5505B93D460021084658
:103B40004FF00000BAF1000F00F4400005DA00EB7E
:103B500080004FF4400101EA50004FEA9059B9F15A
:103B6000010F00DDB9460A9850EA4A000ED044F62B
:103B70001050A5F2FF3545432F14B8F1000F1ED0A9
:103B80007542291E1EDDC9F100021CE0B8F1010FCB
:103B90004FF0000001D0302103E0F24305E0215452
:103BA000401CB042FBDB30460022002121540B991F
:103BB000C1F80880C1E900200FB0BDE8F08FBD1B3F
:103BC0006D1CDEE74A4600DA694206A800F022FED4
:103BD00006AB93E8070003AB83E8070050460A9959
:103BE00001F077FB8DE80700A0F500501F3800902A
:103BF0000398002D0ADD42F21F014A4608440023C3
:103C000003A90390684601F023FE09E0A0F50050E7
:103C10004A461F38002303A90390684601F042FE7C
:103C20008DE807000004000C03D04FF0FF3041087E
:103C300000E01046B8F1000F03D0002200921546B4
:103C40001EE0751E05D400F04DFB303262556D1E2E
:103C5000F9D5B3460122084302D000227F1C04E0BC
:103C60002078302801D100227F1E002A099784D0B5
:103C70001DE0112D07DA00F035FB303262556D1C66
:103C800050EA0102F5D1084302D00098C8B10EE015
:103C90000021681E05E0235C625C63542254401ED0
:103CA000491C8142F7DBAB46A81B401E099000204F
:103CB00004F80B000B98099AC0F80880C0E9002BA3
:103CC0007AE711264FF0000857E72DE9F04F8846B4
:103CD0000446D21D22F0070191B0D1E90001CDE9DF
:103CE0000A011DF0ADFF02460B98C00F01D02D2038
:103CF00007E02068810701D52B2002E0202101EA9E
:103D0000C000032A099001D0072A05DB034641467B
:103D1000204600F035FB0BE12078800601D5E069F4
:103D200000E00620B8F1650F814606D0B8F1660FB5
:103D300018D0B8F1670F70D131E00020B9F1110F40
:103D4000009001DB112301E009F101030AAA01A996
:103D50000CA8FFF7E2FEDDE90C70002609F1010571
:103D6000834647E001204B4600904FF000470AAAE7
:103D700001A90CA8FFF7D1FEDDE90DB00C995D4655
:103D8000002610B909F101000D18B9EB050003D4A4
:103D9000C0F1FF3609F10105A5EB09002BE0B9F1EF
:103DA000010F01DA4FF001090020B9F1110F009065
:103DB000484601DD112300E003460AAA01A90CA828
:103DC000FFF7ABFEDDE90C704D46002683462078F8
:103DD00000070AD4AB4500DA5D4601A8012D04DDD9
:103DE000411911F8011C302907D04F4502DA17F1AB
:103DF000040F04DA012082460FE06D1EEEE7002F6B
:103E000002DCED1B3E4403E0781CA84200DD7D1C73
:103E1000B81B00F1010A4FF000472078000703D4D7
:103E2000AA4501DB4FF0FF3A0021B7F1004F0DF139
:103E300043088DF8431024D002202B23002F01DAF1
:103E40007F422D230A21021EA0F1010000DC5FB198
:103E500097FBF1FC97FBF1F201FB1C7C17460CF180
:103E6000300C08F801CDEEE7A8F1010003702188BD
:103E7000090501D5452100E06521A0F1010800F800
:103E8000011C09980FA9A1EB0807FF1D00B1012033
:103E9000411901EBEA70A1693844081A401EA0617B
:103EA0002078C00602D42046FEF7AAFF099828B160
:103EB000D4E901219047206A401C20622078C00686
:103EC00022D52046FEF79CFF1EE0002E04DBB34502
:103ED00002DD01A8805D00E03020D4E90121904797
:103EE000206A401C2062761CAAF101005FEA000AE9
:103EF0000AD100F0F3F9C0680168405CD4E90121FF
:103F00009047206A401C2062281EA5F10105DCDCD8
:103F100007E0D4E9012118F8010B9047206A401C02
:103F20002062381EA7F10107F3DC2046FEF77EFF72
:103F3000032011B041E6000001694A1C02610878C3
:103F4000704700B58FB0CDE90131002105910549D9
:103F50007944CDE9031011466846FFF7E3F80FB046
:103F600000BD0000E5FFFFFF0A6802F8010B0A60D0
:103F7000704710B5436913B1AFF3008001E0FEF75D
:103F800078FF012010BD127800F124010A70002290
:103F90004A700122EDE711684FF0FF32E9E70000B7
:103FA000074B70B50D467B44FFF7CBFF0446284610
:103FB00000F0A2FC10B14FF0FF3070BD204670BD84
:103FC0000B60030010B5436913B1AFF3008001E04B
:103FD000FEF7C8FF012010BD128800F12401828481
:103FE0000022C2840122EDE711684FF0FF32E9E7B9
:103FF0002DE9F0418046D21D22F007020025D2E9CA
:104000000002F52915A614D0011E72F1000106DA8E
:104010000023D0EB030063EB020211A608E0D8F8FE
:1040200000108B0701D50FA602E0490701D50EA6A7
:1040300001251146002408F1240704E000F052F99C
:1040400030323A55641C50EA0102F7D12B46324611
:1040500021464046BDE8F041FFF705BD00000000E5
:104060002D0000002B000000200000003A2800D2A4
:10407000303820F02002412A01D3A2F137008842D3
:1040800001D34FF0FF30704702681144137801608C
:1040900018467047D1600549794451610449794413
:1040A000116200211161114600F0AAB9EDFFFFFF76
:1040B000CD020000426842B1016811F8013B23B112
:1040C000521EC0E90012184670470121C160881EC7
:1040D000704742685AB1C368016843B983688B422C
:1040E00005D0491E521CC0E90012002070474FF055
:1040F000FF3070470FB4002300B589B00CA90091C0
:104100000B99CB60214B7B440693214B7B44079357
:1041100004236FF00042CDE901321E4A7A446B4617
:1041200008920246002068F048FA09B05DF814FBD6
:1041300070B506464FF0FF3015460C46324686B045
:104140000091CDE9010169460020049004A8FFF721
:10415000D1FF02460498211825B108B1084600E0B5
:1041600020462860049800280DD0002A02DD00981F
:10417000884208D03246081B69460094CDE9010404
:1041800004A8FFF7B7FF06B070BD0000ABFFFFFF4C
:10419000C3FFFFFF4F0200002DE9F04791460F4695
:1041A00080460446002614F8015B2DB100F08EF81D
:1041B0000068405DC007F6D12B2D02D02D2D18D000
:1041C000641E4A463946204600F0D4FA27B13968C1
:1041D000A14201D1C7F800804FF0020471050BD550
:1041E0004042002803DDFFF72FFC0460A007BDE874
:1041F000F08746F48066E4E70028F8DAFFF724FC4D
:1042000004606FF00040F2E770B516460C460546B4
:1042100000F05CF8036893F80101012806D0FF2C38
:104220000FD8185D68B101202C7070BDD3F807015C
:104230003246214603F2071303442846BDE8704086
:1042400018474FF0FF3070BD431A28BF9A427FF6DF
:10425000D7AA104410F0030F11441EBF11F8013DFE
:10426000521E00F8013D10F0030F7FF4F6AF103A34
:10427000C0F00A8010B531E91850103A20E9185002
:10428000BFF4F9AFBDE81040530724BF31E908106F
:1042900020E9081044BF51F8043D40F8043D12F0F5
:1042A000030F08BF7047D20728BF31F8023D48BF4F
:1042B00011F8012C28BF20F8023D48BF00F8012C5E
:1042C000704700000048704758F5012010B500F015
:1042D00005F8001D10BD00BF617106000048704761
:1042E00078F5012030B5B0F10A024FEA900E71F175
:1042F00000034EEA817EB0EB0E0061EB91014FEAC4
:10430000101E4EEA017E10EB0E0041EB11114FEA38
:10431000102E4EEA016E10EB0E0041EB11214FEA18
:10432000104E4EEA014E10EB0E0041EB11414018C9
:1043300041F100014FEAD00040EA41704FEAD1015B
:1043400010EB80054FEA810444EA907444EB0104C9
:104350006D1944EB0404521BA3414FF0000348BF06
:104360000A3200D530BD401C41F1000130BD10B50E
:104370000446FFF7ABFF0068005D00F0010010BDD0
:104380002DE9F0411F46044603260168072A01F47F
:10439000006004DB08B116A505E016A503E008B12E
:1043A00015A500E015A521F010002060A069C01E31
:1043B000A0610FB1401EA0612046FEF721FD4FB164
:1043C000D4E9012138469047206A401C2062C01C75
:1043D000206206E0206AFAE7D4E9012115F8010B12
:1043E0009047761EF8D22046FEF720FDBDE8F0810A
:1043F0004E414E006E616E00494E4600696E660089
:104400002DE9F34F4FF0000A0C4656468DB00120BF
:104410000C9001F10C000B9062690B980121904700
:10442000051E2DD0252D2CD0216A8847C0B1626988
:104430000B9801219047216A88470028F7D16269CB
:10444000411E0B98904700E0761CA1690D988847A3
:10445000216A88470028F7D1E1690D988847DBE792
:10446000A1690D988847A842074601D1761CD3E779
:10447000E1690D9888477F1C02D1BAF1000F6FD017
:104480006CE162690B9800273D46394690472A281F
:1044900004D162690B98012190470125DFF8D08291
:1044A00062690B9801219047A0F130010A290AD2D4
:1044B0004745E5DC07EB870100EB4107303FDFD4E0
:1044C00045F01005ECE7E90601D46FF000476C28D1
:1044D0000AD04C2814D0682815D06A280DD074282A
:1044E0001CD07A281AD01DE062690B9801219047F0
:1044F0006C2802D045F0040514E045F002050DE0FB
:1045000045F020050AE062690B9801219047682870
:1045100002D045F0080505E045F4006562690B9896
:1045200001219047C4E9015765283DD019DC58287E
:104530007AD00CDC452837D004DC252826D0412849
:104540009ED131E046282FD0472899D12CE05B2816
:1045500077D0612828D063287CD0642823D15AE002
:10456000F7E06F2848D008DC66281DD067281BD0EC
:10457000692821D06E2816D127E0702845D07328ED
:1045800068D0752847D078280DD14DE0A1690D98E5
:104590008847252805463FF469AFE1690D988847AB
:1045A0006D1C3FF46AAFD9E00D9923466A466FF05F
:1045B000010068F002F8C6E045F0400023464FF0E5
:1045C00000026060A80736D43EE0E8077FF447AFFA
:1045D0002068011D21600068290501D506701BE7D0
:1045E000290701D5068017E7A90703D5F117C0E908
:1045F000006111E706600FE745F0400023464FF0E9
:1046000008026060A80716D41EE040F60E0125EAF5
:104610000100606016E045F0400023464FF00A02BA
:104620006060A80707D40FE045F040006060A8076D
:1046300008D5234610220D996FF00100AFF30080DA
:1046400081E007E0102223460D996FF00100FEF78C
:104650004BFE78E04FF0000963284F46C8464B46B2
:10466000CB4602D05B2807D039E02079C00601D4C0
:104670000120A060012732E06269D4F80CB00B98E9
:10468000012190475E2807D14FF001094946626930
:10469000D4F80CB00B989047216939B900210A462B
:1046A00003AB43F82120491C0829FADBD8B3216960
:1046B00049B308F1010862690B98012190475D2810
:1046C000F4D1B9F1000F09D0002003A951F820203E
:1046D000D24341F82020401C0828F7DB03AB2069B7
:1046E000002820794FEA40701ED05B462246CDF864
:1046F0000080CDE901970D9900286FF0010020DAC4
:10470000AFF300801FE0C11703AA00EBD1614B118A
:1047100021F01F0102EB8302411A13680120884037
:1047200003431360C7E719E00D99224600286FF094
:104730000100009702DAAFF3008004E0FEF77AFE92
:1047400001E0AFF3008000280ADA401C06D10C9883
:1047500020B14FF0FF300FB0BDE8F08F5046FAE7C0
:10476000E90701D10AF1010A064400200C9053E642
:10477000CCCCCC0C2DE9F05F824615468B46002749
:104780000AF10104B9460078302801D09DB113E048
:1047900014F8010B0127782803D0582801D045B11F
:1047A0000AE00DB1102D07D1002714F8010B1025D8
:1047B00002E0082500E00A250026B0460EE005FBD1
:1047C000080005FB06F101271FFA80F801EB1046EF
:1047D000B6F5803F00D3B94614F8010B2946FFF720
:1047E00045FC0028EBDABBF1000F05D00FB1641EC9
:1047F00000E05446CBF80040B9F1000F06D0FFF7B7
:1048000023F902210160C81EBDE8F09F48EA064076
:10481000FAE700002DE9F047814616468AB0354890
:1048200078440DC88DE80D0032487844801C03ACF4
:104830000DC884E80D0041F69B300844372190FBF9
:10484000F1F290FBF1F5A5F1800501FB12041B3C90
:1048500002D56442012000E00020DFF898A08046E5
:104860000027FA44AAF1BE0A0EE0E0070AD0324659
:10487000684607EB470101230AEB810101F012F8BA
:104880008DE8070064107F1C002CEED1194F7F4487
:10489000AE3F19E0E80715D007EB04100DF1180A38
:1048A00090E80E008AE80E00C068F04201D1981925
:1048B00008903246012306A903A800F0F3FF03ABDA
:1048C00083E807006D10641C002DE3D14FF0010355
:1048D00032466946B8F1000F03A802D000F0B8FFD5
:1048E00001E000F0DFFFC9E90001C9F808200AB0C3
:1048F000BDE8F087584C0800007B00F0800070474E
:104900007546FFF7DFFCAE4605006946534620F0CA
:104910000700854618B020B5FCF79EFBBDE8204097
:104920004FF000064FF000074FF000084FF0000B6B
:1049300021F00701AC46ACE8C009ACE8C009ACE81E
:10494000C009ACE8C0098D46704700002DE9FF4F53
:1049500006468BB00878FF2806D0491C2D2805D0C4
:1049600000244FF0000908E000200CE00124F8E7E3
:1049700009EB8903491C00EB43090878FF28F7D1AC
:1049800014B1C9F100008146107800252C46AA46D2
:1049900029462D2801D02B2804D1521C2D2813D0B4
:1049A000002082468B461078FF280FD04FF0000C75
:1049B0000A21521CA5FB017804FB018105FB0C11A7
:1049C000C5194BEB0104EEE70120EAE70021084698
:1049D0004FF00000BAF1000F02D000EB8000400859
:1049E000C0F38157012F01DD4FF0FF370E9955EAD3
:1049F000040009EB01080BD04FF0020918F5FA7F0B
:104A000016DA4FEACA70002F706008DD012007E057
:104A10004FEACA70C6E900B00FB0BDE8F08F0020C1
:104A20003060FFF711F8C0F800901821084616E032
:104A3000B8F5FA7F18DD002F02DAF748784401E074
:104A4000F6487844D0E90010C6E9001040EACA7080
:104A50007060FEF7F9FFC0F80090142108460FB00F
:104A6000BDE8F04F67F044BD002108464FF000005C
:104A7000B8F10001099002DAC7F1000200E03A46FD
:104A800001DAC8F1000106A8FFF7C4FE06AB93E8FF
:104A9000070003AB83E8070044F23E005BEA040131
:104AA0000090584604D144F21E012C465D46009108
:104AB000210C0904014306D10099240444EA154459
:104AC0002D041039009104F07F41014306D1009973
:104AD000240244EA15642D020839009104F0704163
:104AE000014306D10099240144EA15742D01091FE0
:104AF000009104F04041014306D10099A40044EA2A
:104B00009574AD00891E009104F00041084304D162
:104B100000986D196441401E00904FF001033A4621
:104B20006846B8F1000FCDE9014503A902DD00F0A8
:104B3000CEFE01E000F0A1FEBAF1000F04460D46E2
:104B400001D084F00044002108464FF0000009998C
:104B500040F2FF77484010F00C0F07D124F00040DE
:104B6000284303D0C4F30A50B84212D1FEF76CFFB9
:104B7000C0F80090C4F30A50B8420AD1A84878445B
:104B8000D0E90010C6E9001004F00041084370604D
:104B900042E7C6E900543FE72DE9FF4F1F464FF0BB
:104BA000000A4FF0FF38454691B0D7E90146CDF8ED
:104BB0003CA0FFF793FBC0680168405C1090B969A6
:104BC00012986D1C8847396A814688470028F6D1BB
:104BD000B9F1FF3F0AD0002E24F4D06411DDB9F101
:104BE0002B0F08D0B9F12D0F0BD102E0404615B0C4
:104BF00013E744F48064B96912986D1C8847761EE7
:104C00008146600504A901D52D2000E02B20002E4F
:104C100001F1010B0DF130088DF810003FDDB9F105
:104C2000690F08D0B9F1490F05D0B9F16E0F02D064
:104C3000B9F14E0F1CD13B4601A8009580E8500207
:104C4000DDE912126FF0020067F0BBFCC11CCED18F
:104C50000EE0B96912986D1C884781461398761E3C
:104C600044F4007405600F98401C002E0F9016DD70
:104C7000B9F1300FEDD0B9F1780F02D0B9F1580F7A
:104C80000DD10F9801280AD13B46CDE90054DDE94A
:104C90001212001F029667F092FCC11CA7D1109956
:104CA00089453ED144F0800406E01399681CAAF1BE
:104CB000010A44F400740860B9696D1C1298761EEC
:104CC000884730288146F0D02BE01099894505D1DE
:104CD000200603D4761E44F0800418E0484620F0F5
:104CE0003CF808B3761E0DF123018B4544F40074A3
:104CF00008D2A9F130000BF8010B200607D5AAF164
:104D0000010003E0200602D40AF101008246A0055A
:104D100002D51399681C0860B96912986D1C884700
:104D20008146002ED1DC53E0002E51DDB9F1650F34
:104D300002D0B9F1450F4BD1A00549D5B9696D1C19
:104D40001298761E24F440748847002E81460CDDAC
:104D50002B2804D0B9F12D0F07D144F48074B96920
:104D600012986D1C8847761E8146E00501D52D21DD
:104D700000E02B2108F8011BCDF8008021E0761E11
:104D80000DF13901884544F400740CD2A9F13000CA
:104D900010F0FF0088F8000002D10099884509D979
:104DA00008F1010806E0E00501D51E4801E042F2E5
:104DB0000F708246B96912986D1C88478146139816
:104DC0000560002E04DD48461FF0C7FF0028D6D13D
:104DD000F96912988847FF2053468BF8000088F83D
:104DE000000000200A900B9004AA0CA90AA8FFF763
:104DF000ADFDA00502D46FF00100F8E614F0240F19
:104E000012D0E0071CD13868DDE90A12031D3B60AF
:104E10000068C0E9001213E0D4B10800C6B1080070
:104E20008AB00800F1D8FFFF0AA968461FF082FF88
:104E3000E00705D13868009A011D396000680260FA
:104E40002846D4E610B50446AFF300802046BDE8FE
:104E50001040FBF758BA00002DE9FF4F1F464FF0F6
:104E60003C0987B04FF00042DDE9141001F1010860
:104E7000DDF858A002EA40500390002005908346D8
:104E8000054604460490B969461E08988847AAF169
:104E9000010A0290BAF1000F3BDD02982E2815D0CE
:104EA0001021FFF7E3F800282EDB4FF0010B0599E6
:104EB000014317D0B9F1000F0BDB4A46C11700F0D0
:104EC000F5F905430C43A9F1040905E0012004901C
:104ED0000BE008B145F0010501200590049820B9C8
:104EE000361D02E0049800B1361FB969089808F130
:104EF00001088847BBF1000FAAF1010A0290C9D04E
:104F00000999C1F80080C5E70298702808D0502898
:104F100006D0F96908988847BBF1000F14D04FE01C
:104F2000002002900120BBF1000F049009D0B96964
:104F3000089808F101088847AAF10109B9F1000FA2
:104F400007DCF969089888476FF001000BB0BDE8ED
:104F5000F08F2B2804D02D280CD14FF0FF30049077
:104F6000B969089808F101088847A9F10109B9F160
:104F7000000FE6DD411CE4D00A21FFF777F8002896
:104F8000DFDB029908F1010801EB810100EB410030
:104F90000290B969089888470A21FFF767F8099ACB
:104FA000A9F10109B9F1000FC2F8008001DD002864
:104FB000E7DAF969089888470499029800FB0166C6
:104FC00055EA040004D004F04041090002D006E094
:104FD000039898E0A40044EA9574AD00B61E04F06E
:104FE0000041080002D16D196441761E159810F039
:104FF000240F03D04FF00B095C4803E04FF0280961
:105000006FF07D008246564507DAAAEB0601894417
:10501000B9F1410F01DD4FF0410901200021A9F153
:10502000010200F043F9024628400B4621400843A4
:1050300001D0012100E00021501E029143F1FF3117
:1050400028402140084301D0012000E000200299BF
:10505000834651EA0B014FD0002108464FF0000073
:10506000039900F4400039B100EB80004FF4400197
:1050700000EBD07001EA60008015012802DD4FF0DE
:10508000FF3000E013D0401C36D0029860B3BBF173
:10509000000F0CD14A460120002100F007F92840FA
:1050A0002140084301D0012000E00020E0B10120B0
:1050B0004A46002100F0FAF8034640190A466141C9
:1050C0002D1A8C4111D3B9F1400F09DD159810F05C
:1050D000240F02D0AAF1340603E0AAF1170600E07B
:1050E000761C00254FF0004406E05B1E42F1FF32C3
:1050F00020EA030521EA0204CAF10100B04206DAFF
:105100001B49039808430190002000900EE0039A89
:10511000C4F3D321E80A0A43164940EA44500A433B
:105120003146CDE9000268461FF00DFE159810F0DB
:10513000240F0BD01598C00715D13868DDE900128F
:10514000031D3B600068C0E900120CE002A869463C
:105150001FF0F0FD1598C00705D13868029A011DAF
:105160003960006802604046F0E6000002FCFFFF84
:105170000000F07F0000F03F2DE9FF4F92461D46F2
:1051800085B04FF00041DDE9124BDDE914727F1E5E
:1051900001EA4B50414940F0FF4940EA0108002133
:1051A00022F020004928049102D04E2828D04CE05B
:1051B0003BA0012607C88DE80700A9690698641C72
:1051C00088477F1E014606D41DF8060018B121F05D
:1051D000200181420BD0E96906988847032E34D01C
:1051E000082E32D06FF0010009B0BDE8F08F761CB8
:1051F000032E01D0082EE0D1601CCAF80000DCE7C5
:10520000A9690698641C88477F1E2AD420F02000D4
:10521000412826D1A9690698641C88477F1E20D49E
:1052200020F020004E281CD1A9690698641C8847EC
:105230007F1E48F4002849F48009CAF8004001D4D0
:10524000282806D0E969069888475FEACB7012D013
:1052500022E0A9690698641C88477F1E01D40028B3
:1052600003DAE96906988847BCE72928F1D1641C6C
:10527000CAF80040E9E71BF0240F07D0286804991A
:10528000031D2B600068C0E9001805E02868021DB6
:105290002A600068C0F800902046A5E70000F07F73
:1052A000494E46494E49545900000000B2F12003CE
:1052B0000AD5C2F1200301FA02F120FA03F300FA41
:1052C00002F041EA0301704700FA03F14FF00000D9
:1052D00070475FEA400C08BF91F0000F4FEA8C2343
:1052E0004FEAC12243EA51514FEA1C5018BF00F562
:1052F000F0404FEA300018BF41F000415FEA6C5CBB
:1053000000F02980BCF1FF3F08BF40F080407047AB
:10531000130C06BF12044FF0100C4FF0000C130ECC
:1053200004BF12020CF1080C130F04BF12010CF1A0
:10533000040C930F04BF92000CF1020CD30F04BFB6
:1053400052000CF1010C11464FF00002A0F11F00B9
:10535000A0EB0C00704711F0004F08BF704731F010
:1053600000413FF4D5AF0B0C06BF09044FF0100C01
:105370004FF0000C0B0E04BF09020CF1080C0B0FD0
:1053800004BF09010CF1040C8B0F04BF89000CF160
:10539000020CCB0F04BF49000CF1010CCCF120032F
:1053A000A0EB0C0022FA03F302FA0CF241EA03012B
:1053B00000F10100704720F07F4C80EA030023F0E9
:1053C0007F47ACEB070303F57C5300F0004003F18B
:1053D000FF032DE980494FEA154B09B44FEA144306
:1053E00025EA0B4E24EA03480FF2042606EB1327A6
:1053F00049083E785FEA320203FB0667C7F50007FB
:1054000007FB06F64FEA54374FEAD64606F1020686
:1054100007FB066CCCF1005C4FEA1C472CEA074CFA
:1054200007FB06F40CFB06F504EB15464FEA96164F
:1054300034BF00204FF000404FEAD13706FB07FC95
:105440004FEA1C4C0CFB0BF7D21B03FB0CF761EB78
:1054500007010CFB0EF7B0EB074072EB17420CFB99
:1054600008F734BFA2EB0742B2EB074261EB1741EA
:105470004FEA0C444FEA910706FB07FC4FEA1C4C2D
:105480000CFB0BF7B0EBC74072EB573203FB0CF78A
:1054900034BFA2EBC742B2EBC74261EB57310CFB02
:1054A0000EF7B0EBC70072EB57720CFB08F734BF76
:1054B000A2EBC702B2EBC70261EB5771039F4FEA41
:1054C000816141EA921104EBCC044FEAD1374FEAF3
:1054D000826206FB07FC42EA90124FEA80604FEAC4
:1054E0001C4C0CFB0BF7D21B03FB0CF761EB070109
:1054F0000CFB0EF7B0EB074072EB17420CFB08F702
:1055000034BFA2EB0742B2EB074261EB17414FEA0F
:105510008C554FEA910704EB9C2406FB07FC4FEAED
:105520001C4C0CFB0BF7B0EBC74072EB573203FB84
:105530000CF734BFA2EBC742B2EBC74261EB573165
:105540000CFB0EF7B0EBC70072EB57720CFB08F7C1
:1055500034BFA2EBC702B2EBC70261EB577115EB88
:105560004C254FEA816141EA92114FEA82624FEA8B
:10557000D13742EA901206FB07FC44F100044FEADF
:1055800080604FEA1C4C0CFB0BF7D21B03FB0CF7A3
:1055900061EB07010CFB0EF7B0EB074072EB174213
:1055A0000CFB08F734BFA2EB0742B2EB074261EBFA
:1055B000174115EB1C154FEA813141EA92414FEA40
:1055C000823242EA90424FEA80304FEA0C7644F150
:1055D000000448EA03434EEA0B484FF0000EB2EBDA
:1055E000080C71EB030724BF624639464EEB0E0EE2
:1055F0004FF0000B0018524149414BEB0B0BB2EB43
:10560000080C71EB03077BF1000B24BF624639469F
:105610004EEB0E0E4FF0000B0018524149414BEB80
:105620000B0BB2EB080C71EB03077BF1000B24BFF3
:10563000624639464EEB0E0E51EA020718BF46F09D
:10564000010616EB0E7655F1000254F1000103D568
:10565000BDE88901BDE80088BDE88901BDE80048D2
:10566000B619524141EB0101A3F10103704780805B
:105670007F7E7D7C7B7A79787776767574737271AC
:1056800071706F6E6E6D6C6C6B6A6A696868676664
:1056900066656464636362616160605F5F5E5E5DF6
:1056A0005D5C5C5B5B5A5A5959585857575656556A
:1056B00055555454535352525251515050504F4FCC
:1056C0004F4E4E4D4D4D4C4C4C4B4B4B4A4A4A491C
:1056D000494948484847474747464646454545445F
:1056E0004444444343434342424242414141000017
:1056F00046EA0646A3F570534FEA164646EA425676
:105700004FEAD22242EA415210B54FEAD121A3F129
:10571000010300F02FF820F0004000F1020C00F02F
:10572000004701EB00501146BCF5006F40EA07004E
:1057300000D210BDBAF1000F0AD01CB503B44FF06F
:1057400004004FF004014FF000000FBCBDE8104012
:105750004FF00001BBF1010FB9BF04484FF0FF311A
:105760000348002140EA070010BD00BFFFFFEF7FA4
:105770000000F07F002B9C4630D477002BD01CB566
:105780004FEA370703B44FF010004FF01001BAF1A1
:10579000000F06D0BCF1000FDCBF40F0080040F065
:1057A00008014FF000000FBCBDE810400BF1010BE9
:1057B000BBF1010F08BF5FEA170722BF12F1010218
:1057C00011F101014FF0004143F1000300F00040EE
:1057D00043EA00007047F9D35708D0E746EA064687
:1057E00013F1400F4FEA16461FDD13F1200FDFBF04
:1057F00016430A46002120335B42BED0C3F1200786
:1058000046EA064602FA07F74FEA164646EA070650
:10581000C3F1200722FA03F201FA07F721FA03F194
:105820004FF0000342EA0702A7E746EA020646EA0B
:1058300006464FEA164646EA0106BCBF46EA064659
:10584000360C4FF000034FF000024FF0000194E7D8
:105850002DE9804C9A46934670B491E8380007C809
:1058600031EA400C48BF34EA430C03D5FFF7A3FDEF
:10587000FFF780FFF0BCBDE8008C2DE9804C9A4614
:10588000934670B491E8380007C831EA400C48BF2D
:1058900034EA430C03D5FFF78EFDFFF729FFF0BC78
:1058A000BDE8008C2DE9804C9A46934670B491E88F
:1058B000380007C810F0804F08BF13F0804F03D1A5
:1058C00000F01AF8FFF756FFF0BCBDE8008C2DE998
:1058D000804C9A46934670B491E8380007C810F09F
:1058E000804F08BF13F0804F03D100F005F8FFF799
:1058F000FFFEF0BCBDE8008C20F07F4780EA03008B
:1059000023F07F4C07EB0C03A3F57C5300F0004021
:10591000A3F1FE0392F0000F00F0B38095F0000FAA
:1059200000F077802DE901494FEA11404FEA144613
:1059300021EA004800FB06FC24EA064708FB06F6BD
:1059400007FB08F800FB07F718EB06484CEB164C72
:105950004FEA124B18EB07484FEA15464CEB17403D
:1059600022EA0B4E0BFB06FC25EA06470EFB06F669
:1059700007FB0EFE0BFB07F71EEB064E4CEB164C1F
:105980004FF000061EEB074E4CEB174B18EB0B08C5
:1059900040F1000018EB0E0B58EB000840F100003E
:1059A0008F1A4FF000013CBFC943661B14BFB5EB13
:1059B000040C00213CBFC943F61B4FEA17444EEAD2
:1059C0008E0E27EA04454FEA1C4704FB07622CEAC7
:1059D000074C05FB07F70CFB05F604FB0CFC16EB6C
:1059E000074642EB174216EB0C4642EB1C421BEB00
:1059F000060658EB0202414146EA9E0601D5BDE883
:105A00000189B619524141EB0101A3F10103BDE83F
:105A100001894FEA14454FEA114724EA054621EA75
:105A2000074C05FB07F406FB07F70CFB06F105FB2B
:105A30000CFC11EB074144EB17444FEA124711EB02
:105A40000C4144EB1C4422EA074C05FB07F206FB21
:105A500007F70CFB06F605FB0CFC16EB074642EBC2
:105A6000174216EB0C4642EB1C456A1854F1000134
:105A700048BF7047B619524141EB0101A3F1010340
:105A8000704795F0000F37D04FEA11424FEA1447A4
:105A900021EA024624EA074C02FB07F106FB07F75E
:105AA0000CFB06F402FB0CFC14EB074441EB174122
:105AB0004FEA154714EB0C4441EB1C4125EA074C17
:105AC00002FB07F506FB07F70CFB06F602FB0CFCD6
:105AD00016EB074645EB174516EB0C4645EB1C420B
